{
  "_format": "hh-sol-artifact-1",
  "contractName": "GenesisLaunchAuction",
  "sourceName": "contracts/GLA.sol",
  "abi": [
    {
      "inputs": [
        {
          "internalType": "contract IERC20",
          "name": "_Lab",
          "type": "address"
        },
        {
          "internalType": "contract IERC20",
          "name": "_USDC",
          "type": "address"
        },
        {
          "internalType": "contract IMarket",
          "name": "_market",
          "type": "address"
        },
        {
          "internalType": "uint256",
          "name": "_publicOfferingEnabledAt",
          "type": "uint256"
        },
        {
          "internalType": "uint256",
          "name": "_publicOfferingInterval",
          "type": "uint256"
        },
        {
          "internalType": "uint256",
          "name": "_initInterval",
          "type": "uint256"
        },
        {
          "internalType": "uint256",
          "name": "_publicOfferingPrice",
          "type": "uint256"
        },
        {
          "internalType": "uint256",
          "name": "_softCap",
          "type": "uint256"
        },
        {
          "internalType": "uint256",
          "name": "_hardCap",
          "type": "uint256"
        }
      ],
      "stateMutability": "nonpayable",
      "type": "constructor"
    },
    {
      "anonymous": false,
      "inputs": [
        {
          "indexed": true,
          "internalType": "address",
          "name": "previousOwner",
          "type": "address"
        },
        {
          "indexed": true,
          "internalType": "address",
          "name": "newOwner",
          "type": "address"
        }
      ],
      "name": "OwnershipTransferred",
      "type": "event"
    },
    {
      "inputs": [],
      "name": "Lab",
      "outputs": [
        {
          "internalType": "contract IERC20",
          "name": "",
          "type": "address"
        }
      ],
      "stateMutability": "view",
      "type": "function"
    },
    {
      "inputs": [],
      "name": "USDC",
      "outputs": [
        {
          "internalType": "contract IERC20",
          "name": "",
          "type": "address"
        }
      ],
      "stateMutability": "view",
      "type": "function"
    },
    {
      "inputs": [],
      "name": "claim",
      "outputs": [],
      "stateMutability": "nonpayable",
      "type": "function"
    },
    {
      "inputs": [
        {
          "internalType": "address",
          "name": "user",
          "type": "address"
        }
      ],
      "name": "estimateClaim",
      "outputs": [
        {
          "internalType": "uint256",
          "name": "lab",
          "type": "uint256"
        }
      ],
      "stateMutability": "view",
      "type": "function"
    },
    {
      "inputs": [
        {
          "internalType": "address",
          "name": "user",
          "type": "address"
        }
      ],
      "name": "estimateWithdraw",
      "outputs": [
        {
          "internalType": "uint256",
          "name": "shares",
          "type": "uint256"
        }
      ],
      "stateMutability": "view",
      "type": "function"
    },
    {
      "inputs": [],
      "name": "getPhase",
      "outputs": [
        {
          "internalType": "uint8",
          "name": "",
          "type": "uint8"
        }
      ],
      "stateMutability": "view",
      "type": "function"
    },
    {
      "inputs": [],
      "name": "getPublicOfferingPrice",
      "outputs": [
        {
          "internalType": "uint256",
          "name": "",
          "type": "uint256"
        }
      ],
      "stateMutability": "view",
      "type": "function"
    },
    {
      "inputs": [],
      "name": "getTotalSupply",
      "outputs": [
        {
          "internalType": "uint256",
          "name": "",
          "type": "uint256"
        }
      ],
      "stateMutability": "view",
      "type": "function"
    },
    {
      "inputs": [],
      "name": "hardCap",
      "outputs": [
        {
          "internalType": "uint256",
          "name": "",
          "type": "uint256"
        }
      ],
      "stateMutability": "view",
      "type": "function"
    },
    {
      "inputs": [],
      "name": "initAt",
      "outputs": [
        {
          "internalType": "uint256",
          "name": "",
          "type": "uint256"
        }
      ],
      "stateMutability": "view",
      "type": "function"
    },
    {
      "inputs": [],
      "name": "initialize",
      "outputs": [],
      "stateMutability": "nonpayable",
      "type": "function"
    },
    {
      "inputs": [],
      "name": "initialized",
      "outputs": [
        {
          "internalType": "bool",
          "name": "",
          "type": "bool"
        }
      ],
      "stateMutability": "view",
      "type": "function"
    },
    {
      "inputs": [],
      "name": "market",
      "outputs": [
        {
          "internalType": "contract IMarket",
          "name": "",
          "type": "address"
        }
      ],
      "stateMutability": "view",
      "type": "function"
    },
    {
      "inputs": [],
      "name": "owner",
      "outputs": [
        {
          "internalType": "address",
          "name": "",
          "type": "address"
        }
      ],
      "stateMutability": "view",
      "type": "function"
    },
    {
      "inputs": [
        {
          "internalType": "uint256",
          "name": "amount_",
          "type": "uint256"
        }
      ],
      "name": "publicOfferingBuy",
      "outputs": [],
      "stateMutability": "nonpayable",
      "type": "function"
    },
    {
      "inputs": [],
      "name": "publicOfferingEnabledAt",
      "outputs": [
        {
          "internalType": "uint256",
          "name": "",
          "type": "uint256"
        }
      ],
      "stateMutability": "view",
      "type": "function"
    },
    {
      "inputs": [],
      "name": "publicOfferingPrice",
      "outputs": [
        {
          "internalType": "uint256",
          "name": "",
          "type": "uint256"
        }
      ],
      "stateMutability": "view",
      "type": "function"
    },
    {
      "inputs": [
        {
          "internalType": "address",
          "name": "",
          "type": "address"
        }
      ],
      "name": "publicOfferingSharesOf",
      "outputs": [
        {
          "internalType": "uint256",
          "name": "",
          "type": "uint256"
        }
      ],
      "stateMutability": "view",
      "type": "function"
    },
    {
      "inputs": [],
      "name": "publicOfferingTotalShares",
      "outputs": [
        {
          "internalType": "uint256",
          "name": "",
          "type": "uint256"
        }
      ],
      "stateMutability": "view",
      "type": "function"
    },
    {
      "inputs": [],
      "name": "renounceOwnership",
      "outputs": [],
      "stateMutability": "nonpayable",
      "type": "function"
    },
    {
      "inputs": [],
      "name": "softCap",
      "outputs": [
        {
          "internalType": "uint256",
          "name": "",
          "type": "uint256"
        }
      ],
      "stateMutability": "view",
      "type": "function"
    },
    {
      "inputs": [],
      "name": "totalCap",
      "outputs": [
        {
          "internalType": "uint256",
          "name": "",
          "type": "uint256"
        }
      ],
      "stateMutability": "view",
      "type": "function"
    },
    {
      "inputs": [],
      "name": "totalSupply",
      "outputs": [
        {
          "internalType": "uint256",
          "name": "",
          "type": "uint256"
        }
      ],
      "stateMutability": "view",
      "type": "function"
    },
    {
      "inputs": [
        {
          "internalType": "address",
          "name": "newOwner",
          "type": "address"
        }
      ],
      "name": "transferOwnership",
      "outputs": [],
      "stateMutability": "nonpayable",
      "type": "function"
    },
    {
      "inputs": [],
      "name": "unlockAt",
      "outputs": [
        {
          "internalType": "uint256",
          "name": "",
          "type": "uint256"
        }
      ],
      "stateMutability": "view",
      "type": "function"
    },
    {
      "inputs": [],
      "name": "withdraw",
      "outputs": [],
      "stateMutability": "nonpayable",
      "type": "function"
    }
  ],
  "bytecode": "0x60806040526004805460ff191690553480156200001b57600080fd5b5060405162001553380380620015538339810160408190526200003e91620002ab565b620000493362000242565b876001600160a01b031663313ce5676040518163ffffffff1660e01b8152600401602060405180830381865afa15801562000088573d6000803e3d6000fd5b505050506040513d601f19601f82011682018060405250810190620000ae91906200033a565b60ff166006148015620001285750886001600160a01b031663313ce5676040518163ffffffff1660e01b8152600401602060405180830381865afa158015620000fb573d6000803e3d6000fd5b505050506040513d601f19601f820116820180604052508101906200012191906200033a565b60ff166012145b8015620001355750600086115b8015620001425750600085115b80156200014f5750600084115b80156200015c5750600083115b8015620001695750600082115b80156200017557508181115b620001c65760405162461bcd60e51b815260206004820152601d60248201527f474c413a20696e76616c696420636f6e7374727563746f722061726773000000604482015260640160405180910390fd5b600880546001600160a01b03808c166001600160a01b031992831617909255600980548b8416908316179055600a8054928a1692909116919091179055600186905562000214858762000366565b60028190556200022690859062000366565b600355600592909255600655600755506200038d945050505050565b600080546001600160a01b038381166001600160a01b0319831681178455604051919092169283917f8be0079c531659141344cd1fd0a4f28419497f9722a3daafe3b4186f6b6457e09190a35050565b6001600160a01b0381168114620002a857600080fd5b50565b60008060008060008060008060006101208a8c031215620002cb57600080fd5b8951620002d88162000292565b60208b0151909950620002eb8162000292565b60408b0151909850620002fe8162000292565b8097505060608a0151955060808a0151945060a08a0151935060c08a0151925060e08a015191506101008a015190509295985092959850929598565b6000602082840312156200034d57600080fd5b815160ff811681146200035f57600080fd5b9392505050565b600082198211156200038857634e487b7160e01b600052601160045260246000fd5b500190565b6111b6806200039d6000396000f3fe608060405234801561001057600080fd5b506004361061016e5760003560e01c806372c95b91116100ce578063906a26e011610087578063906a26e0146102a8578063aa5dec6f146102b1578063c4e41b22146102ba578063eced0280146102c2578063ed086c3d146102dc578063f2fde38b146102e5578063fb86a404146102f857600080fd5b806372c95b911461024e57806380f55605146102565780638129fc1c14610269578063862011331461027157806389a30271146102845780638da5cb5b1461029757600080fd5b80633fe536891161012b5780633fe53689146101f0578063451371c8146101f95780634e5e0134146102195780634e71d92d1461022c578063574a2f4b146102345780636f7d0bd81461023d578063715018a61461024657600080fd5b80630ac1ab9f14610173578063158ef93e1461019c57806316450092146101b957806318160ddd146101cb578063197c0838146101d35780633ccfd60b146101e6575b600080fd5b600854610186906001600160a01b031681565b6040516101939190610fce565b60405180910390f35b6004546101a99060ff1681565b6040519015158152602001610193565b600b545b604051908152602001610193565b6101bd610301565b6101bd6101e1366004610fe2565b610326565b6101ee61034f565b005b6101bd60015481565b6101bd610207366004610fe2565b600c6020526000908152604090205481565b6101bd610227366004610fe2565b610414565b6101ee610465565b6101bd60055481565b6101bd600b5481565b6101ee610609565b6101bd61061d565b600a54610186906001600160a01b031681565b6101ee610632565b6101ee61027f366004611012565b6106b7565b600954610186906001600160a01b031681565b6000546001600160a01b0316610186565b6101bd60065481565b6101bd60035481565b6101bd6107eb565b6102ca610804565b60405160ff9091168152602001610193565b6101bd60025481565b6101ee6102f3366004610fe2565b61086a565b6101bd60075481565b6000600554600b54620f42406103179190611041565b6103219190611060565b905090565b6001600160a01b0381166000908152600c60205260408120546103499082611082565b92915050565b60035442101561039d5760405162461bcd60e51b815260206004820152601460248201527311d3104e881a5cc81b9bdd081d5b9b1bd8dad95960621b60448201526064015b60405180910390fd5b60006103a833610326565b336000908152600c60205260408120559050806103fa5760405162461bcd60e51b815260206004820152601060248201526f474c413a207a65726f2073686172657360801b6044820152606401610394565b610411336009546001600160a01b031690836108e0565b50565b6005546001600160a01b0382166000908152600c602052604081205490919061044090620f4240611041565b61044a9190611060565b6104549082611082565b905061034964e8d4a5100082611041565b60045460ff166104b15760405162461bcd60e51b815260206004820152601760248201527611d3104e881a5cc81b9bdd081a5b9a5d1a585b1a5e9959604a1b6044820152606401610394565b60006104bc33610414565b9050600081116104fe5760405162461bcd60e51b815260206004820152600d60248201526c23a6209d103d32b937903630b160991b6044820152606401610394565b6008546040516370a0823160e01b81526000916001600160a01b0316906370a082319061052f903090600401610fce565b602060405180830381865afa15801561054c573d6000803e3d6000fd5b505050506040513d601f19601f82011682018060405250810190610570919061109a565b6008549091506001600160a01b031663a9059cbb338484106105925784610594565b835b6040518363ffffffff1660e01b81526004016105b19291906110b3565b6020604051808303816000875af11580156105d0573d6000803e3d6000fd5b505050506040513d601f19601f820116820180604052508101906105f491906110cc565b5050336000908152600c602052604081205550565b610611610936565b61061b6000610990565b565b600060055464e8d4a510006103219190611041565b6002544210158015610645575060035442105b6106915760405162461bcd60e51b815260206004820152601b60248201527f474c413a20696e697469616c697a65206e6f7420656e61626c656400000000006044820152606401610394565b600654600b54106106a45761061b6109e0565b6002546106b2906001611082565b600355565b60015442101580156106ca575060025442105b6107165760405162461bcd60e51b815260206004820181905260248201527f474c413a207075626c6963206f66666572696e67206e6f7420656e61626c65646044820152606401610394565b806000610722600b5490565b60075461072f91906110ee565b90508082111561073d578091505b600082116107805760405162461bcd60e51b815260206004820152601060248201526f11d3104e881e995c9bc8185b5bdd5b9d60821b6044820152606401610394565b610798336009546001600160a01b0316903085610d31565b81600b60008282546107aa9190611082565b9091555050336000908152600c6020526040812080548492906107ce908490611082565b9091555050600754600b54106107e6576107e66109e0565b505050565b60006107f5610301565b6103219064e8d4a51000611041565b60045460009060ff16156108185750600390565b6001544210156108285750600090565b600154421015801561083b575060025442105b156108465750600190565b6002544210158015610859575060035442105b156108645750600290565b50600490565b610872610936565b6001600160a01b0381166108d75760405162461bcd60e51b815260206004820152602660248201527f4f776e61626c653a206e6577206f776e657220697320746865207a65726f206160448201526564647265737360d01b6064820152608401610394565b61041181610990565b6107e68363a9059cbb60e01b84846040516024016108ff9291906110b3565b60408051601f198184030181529190526020810180516001600160e01b03166001600160e01b031990931692909217909152610d6f565b6000546001600160a01b0316331461061b5760405162461bcd60e51b815260206004820181905260248201527f4f776e61626c653a2063616c6c6572206973206e6f7420746865206f776e65726044820152606401610394565b600080546001600160a01b038381166001600160a01b0319831681178455604051919092169283917f8be0079c531659141344cd1fd0a4f28419497f9722a3daafe3b4186f6b6457e09190a35050565b60006109ea6107eb565b905060006109f7600b5490565b600954600a5460405163095ea7b360e01b81529293506001600160a01b039182169263095ea7b392610a2f92169085906004016110b3565b6020604051808303816000875af1158015610a4e573d6000803e3d6000fd5b505050506040513d601f19601f82011682018060405250810190610a7291906110cc565b506009546040516370a0823160e01b81526000916001600160a01b0316906370a0823190610aa4903090600401610fce565b602060405180830381865afa158015610ac1573d6000803e3d6000fd5b505050506040513d601f19601f82011682018060405250810190610ae5919061109a565b6008546040516370a0823160e01b81529192506000916001600160a01b03909116906370a0823190610b1b903090600401610fce565b602060405180830381865afa158015610b38573d6000803e3d6000fd5b505050506040513d601f19601f82011682018060405250810190610b5c919061109a565b600a546009546040516375e2578760e01b81526001600160a01b039182166004820152602481018790526044810188905292935016906375e2578790606401600060405180830381600087803b158015610bb557600080fd5b505af1158015610bc9573d6000803e3d6000fd5b50506009546040516370a0823160e01b8152600093506001600160a01b0390911691506370a0823190610c00903090600401610fce565b602060405180830381865afa158015610c1d573d6000803e3d6000fd5b505050506040513d601f19601f82011682018060405250810190610c41919061109a565b6008546040516370a0823160e01b81529192506000916001600160a01b03909116906370a0823190610c77903090600401610fce565b602060405180830381865afa158015610c94573d6000803e3d6000fd5b505050506040513d601f19601f82011682018060405250810190610cb8919061109a565b905084610cc583866110ee565b148015610cda575085610cd884836110ee565b145b610d1c5760405162461bcd60e51b815260206004820152601360248201527211d3104e881cdd185c9d1d5c0819985a5b1959606a1b6044820152606401610394565b50506004805460ff1916600117905550505050565b6040516001600160a01b0380851660248301528316604482015260648101829052610d699085906323b872dd60e01b906084016108ff565b50505050565b6000610dc4826040518060400160405280602081526020017f5361666545524332303a206c6f772d6c6576656c2063616c6c206661696c6564815250856001600160a01b0316610e419092919063ffffffff16565b8051909150156107e65780806020019051810190610de291906110cc565b6107e65760405162461bcd60e51b815260206004820152602a60248201527f5361666545524332303a204552433230206f7065726174696f6e20646964206e6044820152691bdd081cdd58d8d9595960b21b6064820152608401610394565b6060610e508484600085610e58565b949350505050565b606082471015610eb95760405162461bcd60e51b815260206004820152602660248201527f416464726573733a20696e73756666696369656e742062616c616e636520666f6044820152651c8818d85b1b60d21b6064820152608401610394565b600080866001600160a01b03168587604051610ed59190611131565b60006040518083038185875af1925050503d8060008114610f12576040519150601f19603f3d011682016040523d82523d6000602084013e610f17565b606091505b5091509150610f2887838387610f33565b979650505050505050565b60608315610f9f578251610f98576001600160a01b0385163b610f985760405162461bcd60e51b815260206004820152601d60248201527f416464726573733a2063616c6c20746f206e6f6e2d636f6e74726163740000006044820152606401610394565b5081610e50565b610e508383815115610fb45781518083602001fd5b8060405162461bcd60e51b8152600401610394919061114d565b6001600160a01b0391909116815260200190565b600060208284031215610ff457600080fd5b81356001600160a01b038116811461100b57600080fd5b9392505050565b60006020828403121561102457600080fd5b5035919050565b634e487b7160e01b600052601160045260246000fd5b600081600019048311821515161561105b5761105b61102b565b500290565b60008261107d57634e487b7160e01b600052601260045260246000fd5b500490565b600082198211156110955761109561102b565b500190565b6000602082840312156110ac57600080fd5b5051919050565b6001600160a01b03929092168252602082015260400190565b6000602082840312156110de57600080fd5b8151801515811461100b57600080fd5b6000828210156111005761110061102b565b500390565b60005b83811015611120578181015183820152602001611108565b83811115610d695750506000910152565b60008251611143818460208701611105565b9190910192915050565b602081526000825180602084015261116c816040850160208701611105565b601f01601f1916919091016040019291505056fea2646970667358221220ed710c175db4641ce673a8f9229d6568fb71a5b75a6fdcdce51a4f06fe3c036f64736f6c634300080c0033",
  "linkReferences": {},
  "deployedLinkReferences": {}
}