{
  "_format": "hh-sol-artifact-1",
  "contractName": "prLab",
  "sourceName": "contracts/prCHaos.sol",
  "abi": [
    {
      "inputs": [],
      "stateMutability": "nonpayable",
      "type": "constructor"
    },
    {
      "anonymous": false,
      "inputs": [
        {
          "indexed": true,
          "internalType": "address",
          "name": "owner",
          "type": "address"
        },
        {
          "indexed": true,
          "internalType": "address",
          "name": "spender",
          "type": "address"
        },
        {
          "indexed": false,
          "internalType": "uint256",
          "name": "value",
          "type": "uint256"
        }
      ],
      "name": "Approval",
      "type": "event"
    },
    {
      "anonymous": false,
      "inputs": [
        {
          "indexed": true,
          "internalType": "bytes32",
          "name": "role",
          "type": "bytes32"
        },
        {
          "indexed": true,
          "internalType": "bytes32",
          "name": "previousAdminRole",
          "type": "bytes32"
        },
        {
          "indexed": true,
          "internalType": "bytes32",
          "name": "newAdminRole",
          "type": "bytes32"
        }
      ],
      "name": "RoleAdminChanged",
      "type": "event"
    },
    {
      "anonymous": false,
      "inputs": [
        {
          "indexed": true,
          "internalType": "bytes32",
          "name": "role",
          "type": "bytes32"
        },
        {
          "indexed": true,
          "internalType": "address",
          "name": "account",
          "type": "address"
        },
        {
          "indexed": true,
          "internalType": "address",
          "name": "sender",
          "type": "address"
        }
      ],
      "name": "RoleGranted",
      "type": "event"
    },
    {
      "anonymous": false,
      "inputs": [
        {
          "indexed": true,
          "internalType": "bytes32",
          "name": "role",
          "type": "bytes32"
        },
        {
          "indexed": true,
          "internalType": "address",
          "name": "account",
          "type": "address"
        },
        {
          "indexed": true,
          "internalType": "address",
          "name": "sender",
          "type": "address"
        }
      ],
      "name": "RoleRevoked",
      "type": "event"
    },
    {
      "anonymous": false,
      "inputs": [
        {
          "indexed": true,
          "internalType": "address",
          "name": "from",
          "type": "address"
        },
        {
          "indexed": true,
          "internalType": "address",
          "name": "to",
          "type": "address"
        },
        {
          "indexed": false,
          "internalType": "uint256",
          "name": "value",
          "type": "uint256"
        }
      ],
      "name": "Transfer",
      "type": "event"
    },
    {
      "inputs": [],
      "name": "DEFAULT_ADMIN_ROLE",
      "outputs": [
        {
          "internalType": "bytes32",
          "name": "",
          "type": "bytes32"
        }
      ],
      "stateMutability": "view",
      "type": "function"
    },
    {
      "inputs": [],
      "name": "MINT_ROLE",
      "outputs": [
        {
          "internalType": "bytes32",
          "name": "",
          "type": "bytes32"
        }
      ],
      "stateMutability": "view",
      "type": "function"
    },
    {
      "inputs": [
        {
          "internalType": "address",
          "name": "owner",
          "type": "address"
        },
        {
          "internalType": "address",
          "name": "spender",
          "type": "address"
        }
      ],
      "name": "allowance",
      "outputs": [
        {
          "internalType": "uint256",
          "name": "",
          "type": "uint256"
        }
      ],
      "stateMutability": "view",
      "type": "function"
    },
    {
      "inputs": [
        {
          "internalType": "address",
          "name": "spender",
          "type": "address"
        },
        {
          "internalType": "uint256",
          "name": "amount",
          "type": "uint256"
        }
      ],
      "name": "approve",
      "outputs": [
        {
          "internalType": "bool",
          "name": "",
          "type": "bool"
        }
      ],
      "stateMutability": "nonpayable",
      "type": "function"
    },
    {
      "inputs": [
        {
          "internalType": "address",
          "name": "account",
          "type": "address"
        }
      ],
      "name": "balanceOf",
      "outputs": [
        {
          "internalType": "uint256",
          "name": "",
          "type": "uint256"
        }
      ],
      "stateMutability": "view",
      "type": "function"
    },
    {
      "inputs": [
        {
          "internalType": "uint256",
          "name": "amount",
          "type": "uint256"
        }
      ],
      "name": "burn",
      "outputs": [],
      "stateMutability": "nonpayable",
      "type": "function"
    },
    {
      "inputs": [
        {
          "internalType": "address",
          "name": "account",
          "type": "address"
        },
        {
          "internalType": "uint256",
          "name": "amount",
          "type": "uint256"
        }
      ],
      "name": "burnFrom",
      "outputs": [],
      "stateMutability": "nonpayable",
      "type": "function"
    },
    {
      "inputs": [],
      "name": "decimals",
      "outputs": [
        {
          "internalType": "uint8",
          "name": "",
          "type": "uint8"
        }
      ],
      "stateMutability": "view",
      "type": "function"
    },
    {
      "inputs": [
        {
          "internalType": "address",
          "name": "spender",
          "type": "address"
        },
        {
          "internalType": "uint256",
          "name": "subtractedValue",
          "type": "uint256"
        }
      ],
      "name": "decreaseAllowance",
      "outputs": [
        {
          "internalType": "bool",
          "name": "",
          "type": "bool"
        }
      ],
      "stateMutability": "nonpayable",
      "type": "function"
    },
    {
      "inputs": [
        {
          "internalType": "bytes32",
          "name": "role",
          "type": "bytes32"
        }
      ],
      "name": "getRoleAdmin",
      "outputs": [
        {
          "internalType": "bytes32",
          "name": "",
          "type": "bytes32"
        }
      ],
      "stateMutability": "view",
      "type": "function"
    },
    {
      "inputs": [
        {
          "internalType": "bytes32",
          "name": "role",
          "type": "bytes32"
        },
        {
          "internalType": "uint256",
          "name": "index",
          "type": "uint256"
        }
      ],
      "name": "getRoleMember",
      "outputs": [
        {
          "internalType": "address",
          "name": "",
          "type": "address"
        }
      ],
      "stateMutability": "view",
      "type": "function"
    },
    {
      "inputs": [
        {
          "internalType": "bytes32",
          "name": "role",
          "type": "bytes32"
        }
      ],
      "name": "getRoleMemberCount",
      "outputs": [
        {
          "internalType": "uint256",
          "name": "",
          "type": "uint256"
        }
      ],
      "stateMutability": "view",
      "type": "function"
    },
    {
      "inputs": [
        {
          "internalType": "bytes32",
          "name": "role",
          "type": "bytes32"
        },
        {
          "internalType": "address",
          "name": "account",
          "type": "address"
        }
      ],
      "name": "grantRole",
      "outputs": [],
      "stateMutability": "nonpayable",
      "type": "function"
    },
    {
      "inputs": [
        {
          "internalType": "bytes32",
          "name": "role",
          "type": "bytes32"
        },
        {
          "internalType": "address",
          "name": "account",
          "type": "address"
        }
      ],
      "name": "hasRole",
      "outputs": [
        {
          "internalType": "bool",
          "name": "",
          "type": "bool"
        }
      ],
      "stateMutability": "view",
      "type": "function"
    },
    {
      "inputs": [
        {
          "internalType": "address",
          "name": "spender",
          "type": "address"
        },
        {
          "internalType": "uint256",
          "name": "addedValue",
          "type": "uint256"
        }
      ],
      "name": "increaseAllowance",
      "outputs": [
        {
          "internalType": "bool",
          "name": "",
          "type": "bool"
        }
      ],
      "stateMutability": "nonpayable",
      "type": "function"
    },
    {
      "inputs": [
        {
          "internalType": "address",
          "name": "to",
          "type": "address"
        },
        {
          "internalType": "uint256",
          "name": "amount",
          "type": "uint256"
        }
      ],
      "name": "mint",
      "outputs": [],
      "stateMutability": "nonpayable",
      "type": "function"
    },
    {
      "inputs": [],
      "name": "name",
      "outputs": [
        {
          "internalType": "string",
          "name": "",
          "type": "string"
        }
      ],
      "stateMutability": "view",
      "type": "function"
    },
    {
      "inputs": [
        {
          "internalType": "bytes32",
          "name": "role",
          "type": "bytes32"
        },
        {
          "internalType": "address",
          "name": "account",
          "type": "address"
        }
      ],
      "name": "renounceRole",
      "outputs": [],
      "stateMutability": "nonpayable",
      "type": "function"
    },
    {
      "inputs": [
        {
          "internalType": "bytes32",
          "name": "role",
          "type": "bytes32"
        },
        {
          "internalType": "address",
          "name": "account",
          "type": "address"
        }
      ],
      "name": "revokeRole",
      "outputs": [],
      "stateMutability": "nonpayable",
      "type": "function"
    },
    {
      "inputs": [
        {
          "internalType": "bytes4",
          "name": "interfaceId",
          "type": "bytes4"
        }
      ],
      "name": "supportsInterface",
      "outputs": [
        {
          "internalType": "bool",
          "name": "",
          "type": "bool"
        }
      ],
      "stateMutability": "view",
      "type": "function"
    },
    {
      "inputs": [],
      "name": "symbol",
      "outputs": [
        {
          "internalType": "string",
          "name": "",
          "type": "string"
        }
      ],
      "stateMutability": "view",
      "type": "function"
    },
    {
      "inputs": [],
      "name": "totalSupply",
      "outputs": [
        {
          "internalType": "uint256",
          "name": "",
          "type": "uint256"
        }
      ],
      "stateMutability": "view",
      "type": "function"
    },
    {
      "inputs": [
        {
          "internalType": "address",
          "name": "to",
          "type": "address"
        },
        {
          "internalType": "uint256",
          "name": "amount",
          "type": "uint256"
        }
      ],
      "name": "transfer",
      "outputs": [
        {
          "internalType": "bool",
          "name": "",
          "type": "bool"
        }
      ],
      "stateMutability": "nonpayable",
      "type": "function"
    },
    {
      "inputs": [
        {
          "internalType": "address",
          "name": "from",
          "type": "address"
        },
        {
          "internalType": "address",
          "name": "to",
          "type": "address"
        },
        {
          "internalType": "uint256",
          "name": "amount",
          "type": "uint256"
        }
      ],
      "name": "transferFrom",
      "outputs": [
        {
          "internalType": "bool",
          "name": "",
          "type": "bool"
        }
      ],
      "stateMutability": "nonpayable",
      "type": "function"
    }
  ],
  "bytecode": "0x60806040523480156200001157600080fd5b5060408051808201825260068082526570724c61627360d01b6020808401828152855180870190965292855284015281519192916200005391600391620001ea565b50805162000069906004906020840190620001ea565b506200007b9150600090503362000081565b620002cd565b6200008d828262000091565b5050565b620000a88282620000d460201b620006dc1760201c565b6000828152600660209081526040909120620000cf9183906200076262000178821b17901c565b505050565b60008281526005602090815260408083206001600160a01b038516845290915290205460ff166200008d5760008281526005602090815260408083206001600160a01b03851684529091529020805460ff19166001179055620001343390565b6001600160a01b0316816001600160a01b0316837f2f8788117e7eff1d82e926ec794901d17c78024a50270940304540a733656f0d60405160405180910390a45050565b60006200018f836001600160a01b03841662000198565b90505b92915050565b6000818152600183016020526040812054620001e15750815460018181018455600084815260208082209093018490558454848252828601909352604090209190915562000192565b50600062000192565b828054620001f89062000290565b90600052602060002090601f0160209004810192826200021c576000855562000267565b82601f106200023757805160ff191683800117855562000267565b8280016001018555821562000267579182015b82811115620002675782518255916020019190600101906200024a565b506200027592915062000279565b5090565b5b808211156200027557600081556001016200027a565b600181811c90821680620002a557607f821691505b60208210811415620002c757634e487b7160e01b600052602260045260246000fd5b50919050565b61147080620002dd6000396000f3fe608060405234801561001057600080fd5b50600436106101585760003560e01c806370a08231116100c3578063a457c2d71161007c578063a457c2d7146102ef578063a9059cbb14610302578063ca15c87314610315578063d547741f14610328578063dd62ed3e1461033b578063e9a9c8501461034e57600080fd5b806370a082311461026557806379cc67901461028e5780639010d07c146102a157806391d14854146102cc57806395d89b41146102df578063a217fddf146102e757600080fd5b80632f2ff15d116101155780632f2ff15d146101f5578063313ce5671461020a57806336568abe14610219578063395093511461022c57806340c10f191461023f57806342966c681461025257600080fd5b806301ffc9a71461015d57806306fdde0314610185578063095ea7b31461019a57806318160ddd146101ad57806323b872dd146101bf578063248a9ca3146101d2575b600080fd5b61017061016b3660046110fc565b610375565b60405190151581526020015b60405180910390f35b61018d6103a0565b60405161017c9190611152565b6101706101a83660046111a1565b610432565b6002545b60405190815260200161017c565b6101706101cd3660046111cb565b61044a565b6101b16101e0366004611207565b60009081526005602052604090206001015490565b610208610203366004611220565b61046e565b005b6040516012815260200161017c565b610208610227366004611220565b610498565b61017061023a3660046111a1565b61051b565b61020861024d3660046111a1565b61053d565b610208610260366004611207565b610571565b6101b161027336600461124c565b6001600160a01b031660009081526020819052604090205490565b61020861029c3660046111a1565b61057e565b6102b46102af366004611267565b610593565b6040516001600160a01b03909116815260200161017c565b6101706102da366004611220565b6105b2565b61018d6105dd565b6101b1600081565b6101706102fd3660046111a1565b6105ec565b6101706103103660046111a1565b610667565b6101b1610323366004611207565b610675565b610208610336366004611220565b61068c565b6101b1610349366004611289565b6106b1565b6101b17f154c00819833dac601ee5ddded6fda79d9d8b506b911b3dbd54cdb95fe6c368681565b60006001600160e01b03198216635a05180f60e01b148061039a575061039a82610777565b92915050565b6060600380546103af906112b3565b80601f01602080910402602001604051908101604052809291908181526020018280546103db906112b3565b80156104285780601f106103fd57610100808354040283529160200191610428565b820191906000526020600020905b81548152906001019060200180831161040b57829003601f168201915b5050505050905090565b6000336104408185856107ac565b5060019392505050565b6000336104588582856108d0565b61046385858561094a565b506001949350505050565b60008281526005602052604090206001015461048981610adc565b6104938383610ae6565b505050565b6001600160a01b038116331461050d5760405162461bcd60e51b815260206004820152602f60248201527f416363657373436f6e74726f6c3a2063616e206f6e6c792072656e6f756e636560448201526e103937b632b9903337b91039b2b63360891b60648201526084015b60405180910390fd5b6105178282610b08565b5050565b60003361044081858561052e83836106b1565b6105389190611304565b6107ac565b7f154c00819833dac601ee5ddded6fda79d9d8b506b911b3dbd54cdb95fe6c368661056781610adc565b6104938383610b2a565b61057b3382610bd7565b50565b6105898233836108d0565b6105178282610bd7565b60008281526006602052604081206105ab9083610cf7565b9392505050565b60009182526005602090815260408084206001600160a01b0393909316845291905290205460ff1690565b6060600480546103af906112b3565b600033816105fa82866106b1565b90508381101561065a5760405162461bcd60e51b815260206004820152602560248201527f45524332303a2064656372656173656420616c6c6f77616e63652062656c6f77604482015264207a65726f60d81b6064820152608401610504565b61046382868684036107ac565b60003361044081858561094a565b600081815260066020526040812061039a90610d03565b6000828152600560205260409020600101546106a781610adc565b6104938383610b08565b6001600160a01b03918216600090815260016020908152604080832093909416825291909152205490565b6106e682826105b2565b6105175760008281526005602090815260408083206001600160a01b03851684529091529020805460ff1916600117905561071e3390565b6001600160a01b0316816001600160a01b0316837f2f8788117e7eff1d82e926ec794901d17c78024a50270940304540a733656f0d60405160405180910390a45050565b60006105ab836001600160a01b038416610d0d565b60006001600160e01b03198216637965db0b60e01b148061039a57506301ffc9a760e01b6001600160e01b031983161461039a565b6001600160a01b03831661080e5760405162461bcd60e51b8152602060048201526024808201527f45524332303a20617070726f76652066726f6d20746865207a65726f206164646044820152637265737360e01b6064820152608401610504565b6001600160a01b03821661086f5760405162461bcd60e51b815260206004820152602260248201527f45524332303a20617070726f766520746f20746865207a65726f206164647265604482015261737360f01b6064820152608401610504565b6001600160a01b0383811660008181526001602090815260408083209487168084529482529182902085905590518481527f8c5be1e5ebec7d5bd14f71427d1e84f3dd0314c0f7b2291e5b200ac8c7c3b925910160405180910390a3505050565b60006108dc84846106b1565b9050600019811461094457818110156109375760405162461bcd60e51b815260206004820152601d60248201527f45524332303a20696e73756666696369656e7420616c6c6f77616e63650000006044820152606401610504565b61094484848484036107ac565b50505050565b6001600160a01b0383166109ae5760405162461bcd60e51b815260206004820152602560248201527f45524332303a207472616e736665722066726f6d20746865207a65726f206164604482015264647265737360d81b6064820152608401610504565b6001600160a01b038216610a105760405162461bcd60e51b815260206004820152602360248201527f45524332303a207472616e7366657220746f20746865207a65726f206164647260448201526265737360e81b6064820152608401610504565b6001600160a01b03831660009081526020819052604090205481811015610a885760405162461bcd60e51b815260206004820152602660248201527f45524332303a207472616e7366657220616d6f756e7420657863656564732062604482015265616c616e636560d01b6064820152608401610504565b6001600160a01b038481166000818152602081815260408083208787039055938716808352918490208054870190559251858152909260008051602061141b833981519152910160405180910390a3610944565b61057b8133610d5c565b610af082826106dc565b60008281526006602052604090206104939082610762565b610b128282610db5565b60008281526006602052604090206104939082610e1c565b6001600160a01b038216610b805760405162461bcd60e51b815260206004820152601f60248201527f45524332303a206d696e7420746f20746865207a65726f2061646472657373006044820152606401610504565b8060026000828254610b929190611304565b90915550506001600160a01b0382166000818152602081815260408083208054860190555184815260008051602061141b833981519152910160405180910390a35050565b6001600160a01b038216610c375760405162461bcd60e51b815260206004820152602160248201527f45524332303a206275726e2066726f6d20746865207a65726f206164647265736044820152607360f81b6064820152608401610504565b6001600160a01b03821660009081526020819052604090205481811015610cab5760405162461bcd60e51b815260206004820152602260248201527f45524332303a206275726e20616d6f756e7420657863656564732062616c616e604482015261636560f01b6064820152608401610504565b6001600160a01b03831660008181526020818152604080832086860390556002805487900390555185815291929160008051602061141b833981519152910160405180910390a3505050565b60006105ab8383610e31565b600061039a825490565b6000818152600183016020526040812054610d545750815460018181018455600084815260208082209093018490558454848252828601909352604090209190915561039a565b50600061039a565b610d6682826105b2565b61051757610d7381610e5b565b610d7e836020610e6d565b604051602001610d8f92919061131c565b60408051601f198184030181529082905262461bcd60e51b825261050491600401611152565b610dbf82826105b2565b156105175760008281526005602090815260408083206001600160a01b0385168085529252808320805460ff1916905551339285917ff6391f5c32d9c69d2a47ea670b442974b53935d1edc7fd64eb21e047a839171b9190a45050565b60006105ab836001600160a01b038416611009565b6000826000018281548110610e4857610e4861138b565b9060005260206000200154905092915050565b606061039a6001600160a01b03831660145b60606000610e7c8360026113a1565b610e87906002611304565b67ffffffffffffffff811115610e9f57610e9f6113c0565b6040519080825280601f01601f191660200182016040528015610ec9576020820181803683370190505b509050600360fc1b81600081518110610ee457610ee461138b565b60200101906001600160f81b031916908160001a905350600f60fb1b81600181518110610f1357610f1361138b565b60200101906001600160f81b031916908160001a9053506000610f378460026113a1565b610f42906001611304565b90505b6001811115610fba576f181899199a1a9b1b9c1cb0b131b232b360811b85600f1660108110610f7657610f7661138b565b1a60f81b828281518110610f8c57610f8c61138b565b60200101906001600160f81b031916908160001a90535060049490941c93610fb3816113d6565b9050610f45565b5083156105ab5760405162461bcd60e51b815260206004820181905260248201527f537472696e67733a20686578206c656e67746820696e73756666696369656e746044820152606401610504565b600081815260018301602052604081205480156110f257600061102d6001836113ed565b8554909150600090611041906001906113ed565b90508181146110a65760008660000182815481106110615761106161138b565b90600052602060002001549050808760000184815481106110845761108461138b565b6000918252602080832090910192909255918252600188019052604090208390555b85548690806110b7576110b7611404565b60019003818190600052602060002001600090559055856001016000868152602001908152602001600020600090556001935050505061039a565b600091505061039a565b60006020828403121561110e57600080fd5b81356001600160e01b0319811681146105ab57600080fd5b60005b83811015611141578181015183820152602001611129565b838111156109445750506000910152565b6020815260008251806020840152611171816040850160208701611126565b601f01601f19169190910160400192915050565b80356001600160a01b038116811461119c57600080fd5b919050565b600080604083850312156111b457600080fd5b6111bd83611185565b946020939093013593505050565b6000806000606084860312156111e057600080fd5b6111e984611185565b92506111f760208501611185565b9150604084013590509250925092565b60006020828403121561121957600080fd5b5035919050565b6000806040838503121561123357600080fd5b8235915061124360208401611185565b90509250929050565b60006020828403121561125e57600080fd5b6105ab82611185565b6000806040838503121561127a57600080fd5b50508035926020909101359150565b6000806040838503121561129c57600080fd5b6112a583611185565b915061124360208401611185565b600181811c908216806112c757607f821691505b602082108114156112e857634e487b7160e01b600052602260045260246000fd5b50919050565b634e487b7160e01b600052601160045260246000fd5b60008219821115611317576113176112ee565b500190565b76020b1b1b2b9b9a1b7b73a3937b61d1030b1b1b7bab73a1604d1b81526000835161134e816017850160208801611126565b7001034b99036b4b9b9b4b733903937b6329607d1b601791840191820152835161137f816028840160208801611126565b01602801949350505050565b634e487b7160e01b600052603260045260246000fd5b60008160001904831182151516156113bb576113bb6112ee565b500290565b634e487b7160e01b600052604160045260246000fd5b6000816113e5576113e56112ee565b506000190190565b6000828210156113ff576113ff6112ee565b500390565b634e487b7160e01b600052603160045260246000fdfeddf252ad1be2c89b69c2b068fc378daa952ba7f163c4a11628f55a4df523b3efa2646970667358221220b7e6570b038842e61c9c9e92118d75647ecedf8e6288d2d2a35274e92823a45b64736f6c634300080c0033",
  "linkReferences": {},
  "deployedLinkReferences": {}
}