{
  "_format": "hh-sol-artifact-1",
  "contractName": "Market",
  "sourceName": "contracts/Market.sol",
  "abi": [
    {
      "inputs": [
        {
          "internalType": "contract IERC20BurnableMinter",
          "name": "_Lab",
          "type": "address"
        },
        {
          "internalType": "contract IERC20BurnableMinter",
          "name": "_prLab",
          "type": "address"
        },
        {
          "internalType": "contract IStakePool",
          "name": "_pool",
          "type": "address"
        },
        {
          "internalType": "uint256",
          "name": "_k",
          "type": "uint256"
        },
        {
          "internalType": "uint32",
          "name": "_target",
          "type": "uint32"
        },
        {
          "internalType": "uint32",
          "name": "_targetAdjusted",
          "type": "uint32"
        },
        {
          "internalType": "address",
          "name": "buyback",
          "type": "address"
        },
        {
          "internalType": "address[]",
          "name": "_stablecoins",
          "type": "address[]"
        }
      ],
      "stateMutability": "nonpayable",
      "type": "constructor"
    },
    {
      "anonymous": false,
      "inputs": [
        {
          "indexed": false,
          "internalType": "uint256",
          "name": "c",
          "type": "uint256"
        },
        {
          "indexed": false,
          "internalType": "uint256",
          "name": "f",
          "type": "uint256"
        },
        {
          "indexed": false,
          "internalType": "uint256",
          "name": "p",
          "type": "uint256"
        }
      ],
      "name": "Adjust",
      "type": "event"
    },
    {
      "anonymous": false,
      "inputs": [
        {
          "indexed": false,
          "internalType": "uint32",
          "name": "minTarget",
          "type": "uint32"
        },
        {
          "indexed": false,
          "internalType": "uint32",
          "name": "maxTargetAdjusted",
          "type": "uint32"
        },
        {
          "indexed": false,
          "internalType": "uint32",
          "name": "raiseStep",
          "type": "uint32"
        },
        {
          "indexed": false,
          "internalType": "uint32",
          "name": "lowerStep",
          "type": "uint32"
        },
        {
          "indexed": false,
          "internalType": "uint32",
          "name": "lowerInterval",
          "type": "uint32"
        }
      ],
      "name": "AdjustOptionsChanged",
      "type": "event"
    },
    {
      "anonymous": false,
      "inputs": [
        {
          "indexed": true,
          "internalType": "address",
          "name": "user",
          "type": "address"
        },
        {
          "indexed": false,
          "internalType": "uint256",
          "name": "amount",
          "type": "uint256"
        }
      ],
      "name": "Burn",
      "type": "event"
    },
    {
      "anonymous": false,
      "inputs": [
        {
          "indexed": true,
          "internalType": "address",
          "name": "from",
          "type": "address"
        },
        {
          "indexed": true,
          "internalType": "address",
          "name": "token",
          "type": "address"
        },
        {
          "indexed": false,
          "internalType": "uint256",
          "name": "input",
          "type": "uint256"
        },
        {
          "indexed": false,
          "internalType": "uint256",
          "name": "output",
          "type": "uint256"
        },
        {
          "indexed": false,
          "internalType": "uint256",
          "name": "fee",
          "type": "uint256"
        }
      ],
      "name": "Buy",
      "type": "event"
    },
    {
      "anonymous": false,
      "inputs": [
        {
          "indexed": false,
          "internalType": "address",
          "name": "dev",
          "type": "address"
        },
        {
          "indexed": false,
          "internalType": "uint32",
          "name": "buyFee",
          "type": "uint32"
        },
        {
          "indexed": false,
          "internalType": "uint32",
          "name": "sellFee",
          "type": "uint32"
        }
      ],
      "name": "FeeOptionsChanged",
      "type": "event"
    },
    {
      "anonymous": false,
      "inputs": [
        {
          "indexed": false,
          "internalType": "uint256",
          "name": "target",
          "type": "uint256"
        },
        {
          "indexed": false,
          "internalType": "uint256",
          "name": "targetAdjusted",
          "type": "uint256"
        }
      ],
      "name": "Lower",
      "type": "event"
    },
    {
      "anonymous": false,
      "inputs": [
        {
          "indexed": false,
          "internalType": "address",
          "name": "account",
          "type": "address"
        }
      ],
      "name": "Paused",
      "type": "event"
    },
    {
      "anonymous": false,
      "inputs": [
        {
          "indexed": false,
          "internalType": "address",
          "name": "trigger",
          "type": "address"
        },
        {
          "indexed": false,
          "internalType": "uint256",
          "name": "target",
          "type": "uint256"
        },
        {
          "indexed": false,
          "internalType": "uint256",
          "name": "targetAdjusted",
          "type": "uint256"
        }
      ],
      "name": "Raise",
      "type": "event"
    },
    {
      "anonymous": false,
      "inputs": [
        {
          "indexed": true,
          "internalType": "address",
          "name": "from",
          "type": "address"
        },
        {
          "indexed": true,
          "internalType": "address",
          "name": "token",
          "type": "address"
        },
        {
          "indexed": false,
          "internalType": "uint256",
          "name": "input",
          "type": "uint256"
        },
        {
          "indexed": false,
          "internalType": "uint256",
          "name": "output",
          "type": "uint256"
        }
      ],
      "name": "Realize",
      "type": "event"
    },
    {
      "anonymous": false,
      "inputs": [
        {
          "indexed": true,
          "internalType": "bytes32",
          "name": "role",
          "type": "bytes32"
        },
        {
          "indexed": true,
          "internalType": "bytes32",
          "name": "previousAdminRole",
          "type": "bytes32"
        },
        {
          "indexed": true,
          "internalType": "bytes32",
          "name": "newAdminRole",
          "type": "bytes32"
        }
      ],
      "name": "RoleAdminChanged",
      "type": "event"
    },
    {
      "anonymous": false,
      "inputs": [
        {
          "indexed": true,
          "internalType": "bytes32",
          "name": "role",
          "type": "bytes32"
        },
        {
          "indexed": true,
          "internalType": "address",
          "name": "account",
          "type": "address"
        },
        {
          "indexed": true,
          "internalType": "address",
          "name": "sender",
          "type": "address"
        }
      ],
      "name": "RoleGranted",
      "type": "event"
    },
    {
      "anonymous": false,
      "inputs": [
        {
          "indexed": true,
          "internalType": "bytes32",
          "name": "role",
          "type": "bytes32"
        },
        {
          "indexed": true,
          "internalType": "address",
          "name": "account",
          "type": "address"
        },
        {
          "indexed": true,
          "internalType": "address",
          "name": "sender",
          "type": "address"
        }
      ],
      "name": "RoleRevoked",
      "type": "event"
    },
    {
      "anonymous": false,
      "inputs": [
        {
          "indexed": true,
          "internalType": "address",
          "name": "from",
          "type": "address"
        },
        {
          "indexed": true,
          "internalType": "address",
          "name": "token",
          "type": "address"
        },
        {
          "indexed": false,
          "internalType": "uint256",
          "name": "input",
          "type": "uint256"
        },
        {
          "indexed": false,
          "internalType": "uint256",
          "name": "output",
          "type": "uint256"
        },
        {
          "indexed": false,
          "internalType": "uint256",
          "name": "fee",
          "type": "uint256"
        }
      ],
      "name": "Sell",
      "type": "event"
    },
    {
      "anonymous": false,
      "inputs": [
        {
          "indexed": false,
          "internalType": "address",
          "name": "token",
          "type": "address"
        },
        {
          "indexed": false,
          "internalType": "bool",
          "name": "buyOrSell",
          "type": "bool"
        },
        {
          "indexed": false,
          "internalType": "bool",
          "name": "addOrDelete",
          "type": "bool"
        }
      ],
      "name": "StablecoinsChanged",
      "type": "event"
    },
    {
      "anonymous": false,
      "inputs": [
        {
          "indexed": false,
          "internalType": "address",
          "name": "account",
          "type": "address"
        }
      ],
      "name": "Unpaused",
      "type": "event"
    },
    {
      "inputs": [],
      "name": "DEFAULT_ADMIN_ROLE",
      "outputs": [
        {
          "internalType": "bytes32",
          "name": "",
          "type": "bytes32"
        }
      ],
      "stateMutability": "view",
      "type": "function"
    },
    {
      "inputs": [],
      "name": "Lab",
      "outputs": [
        {
          "internalType": "contract IERC20BurnableMinter",
          "name": "",
          "type": "address"
        }
      ],
      "stateMutability": "view",
      "type": "function"
    },
    {
      "inputs": [],
      "name": "MANAGER_ROLE",
      "outputs": [
        {
          "internalType": "bytes32",
          "name": "",
          "type": "bytes32"
        }
      ],
      "stateMutability": "view",
      "type": "function"
    },
    {
      "inputs": [],
      "name": "STARTUP_ROLE",
      "outputs": [
        {
          "internalType": "bytes32",
          "name": "",
          "type": "bytes32"
        }
      ],
      "stateMutability": "view",
      "type": "function"
    },
    {
      "inputs": [
        {
          "internalType": "uint256",
          "name": "amount",
          "type": "uint256"
        }
      ],
      "name": "burn",
      "outputs": [],
      "stateMutability": "nonpayable",
      "type": "function"
    },
    {
      "inputs": [
        {
          "internalType": "uint256",
          "name": "amount",
          "type": "uint256"
        },
        {
          "internalType": "address",
          "name": "user",
          "type": "address"
        }
      ],
      "name": "burnFor",
      "outputs": [],
      "stateMutability": "nonpayable",
      "type": "function"
    },
    {
      "inputs": [
        {
          "internalType": "address",
          "name": "token",
          "type": "address"
        },
        {
          "internalType": "uint256",
          "name": "tokenWorth",
          "type": "uint256"
        },
        {
          "internalType": "uint256",
          "name": "desired",
          "type": "uint256"
        }
      ],
      "name": "buy",
      "outputs": [
        {
          "internalType": "uint256",
          "name": "",
          "type": "uint256"
        },
        {
          "internalType": "uint256",
          "name": "",
          "type": "uint256"
        }
      ],
      "stateMutability": "nonpayable",
      "type": "function"
    },
    {
      "inputs": [],
      "name": "buyFee",
      "outputs": [
        {
          "internalType": "uint32",
          "name": "",
          "type": "uint32"
        }
      ],
      "stateMutability": "view",
      "type": "function"
    },
    {
      "inputs": [
        {
          "internalType": "address",
          "name": "token",
          "type": "address"
        },
        {
          "internalType": "uint256",
          "name": "tokenWorth",
          "type": "uint256"
        },
        {
          "internalType": "uint256",
          "name": "desired",
          "type": "uint256"
        },
        {
          "internalType": "address",
          "name": "user",
          "type": "address"
        }
      ],
      "name": "buyFor",
      "outputs": [
        {
          "internalType": "uint256",
          "name": "",
          "type": "uint256"
        },
        {
          "internalType": "uint256",
          "name": "",
          "type": "uint256"
        }
      ],
      "stateMutability": "nonpayable",
      "type": "function"
    },
    {
      "inputs": [],
      "name": "c",
      "outputs": [
        {
          "internalType": "uint256",
          "name": "",
          "type": "uint256"
        }
      ],
      "stateMutability": "view",
      "type": "function"
    },
    {
      "inputs": [],
      "name": "currentFundingRatio",
      "outputs": [
        {
          "internalType": "uint256",
          "name": "numerator",
          "type": "uint256"
        },
        {
          "internalType": "uint256",
          "name": "denominator",
          "type": "uint256"
        }
      ],
      "stateMutability": "view",
      "type": "function"
    },
    {
      "inputs": [],
      "name": "dev",
      "outputs": [
        {
          "internalType": "address",
          "name": "",
          "type": "address"
        }
      ],
      "stateMutability": "view",
      "type": "function"
    },
    {
      "inputs": [
        {
          "internalType": "uint256",
          "name": "_k",
          "type": "uint256"
        },
        {
          "internalType": "uint256",
          "name": "_tar",
          "type": "uint256"
        },
        {
          "internalType": "uint256",
          "name": "_w",
          "type": "uint256"
        },
        {
          "internalType": "uint256",
          "name": "_t",
          "type": "uint256"
        }
      ],
      "name": "estimateAdjust",
      "outputs": [
        {
          "internalType": "bool",
          "name": "success",
          "type": "bool"
        },
        {
          "internalType": "uint256",
          "name": "_c",
          "type": "uint256"
        },
        {
          "internalType": "uint256",
          "name": "_f",
          "type": "uint256"
        },
        {
          "internalType": "uint256",
          "name": "_p",
          "type": "uint256"
        }
      ],
      "stateMutability": "pure",
      "type": "function"
    },
    {
      "inputs": [
        {
          "internalType": "address",
          "name": "token",
          "type": "address"
        },
        {
          "internalType": "uint256",
          "name": "tokenWorth",
          "type": "uint256"
        }
      ],
      "name": "estimateBuy",
      "outputs": [
        {
          "internalType": "uint256",
          "name": "amount",
          "type": "uint256"
        },
        {
          "internalType": "uint256",
          "name": "fee",
          "type": "uint256"
        },
        {
          "internalType": "uint256",
          "name": "worth1e18",
          "type": "uint256"
        },
        {
          "internalType": "uint256",
          "name": "newPrice",
          "type": "uint256"
        }
      ],
      "stateMutability": "view",
      "type": "function"
    },
    {
      "inputs": [
        {
          "internalType": "uint256",
          "name": "_f",
          "type": "uint256"
        },
        {
          "internalType": "uint256",
          "name": "_k",
          "type": "uint256"
        },
        {
          "internalType": "uint256",
          "name": "_p",
          "type": "uint256"
        },
        {
          "internalType": "uint256",
          "name": "_tar",
          "type": "uint256"
        },
        {
          "internalType": "uint256",
          "name": "_tarAdjusted",
          "type": "uint256"
        }
      ],
      "name": "estimateRaisePrice",
      "outputs": [
        {
          "internalType": "bool",
          "name": "success",
          "type": "bool"
        },
        {
          "internalType": "uint256",
          "name": "_t",
          "type": "uint256"
        },
        {
          "internalType": "uint256",
          "name": "_c",
          "type": "uint256"
        },
        {
          "internalType": "uint256",
          "name": "_w",
          "type": "uint256"
        },
        {
          "internalType": "uint256",
          "name": "raisedFloorPrice",
          "type": "uint256"
        }
      ],
      "stateMutability": "pure",
      "type": "function"
    },
    {
      "inputs": [],
      "name": "estimateRaisePrice",
      "outputs": [
        {
          "internalType": "bool",
          "name": "success",
          "type": "bool"
        },
        {
          "internalType": "uint256",
          "name": "_t",
          "type": "uint256"
        },
        {
          "internalType": "uint256",
          "name": "_c",
          "type": "uint256"
        },
        {
          "internalType": "uint256",
          "name": "_w",
          "type": "uint256"
        },
        {
          "internalType": "uint256",
          "name": "raisedFloorPrice",
          "type": "uint256"
        }
      ],
      "stateMutability": "view",
      "type": "function"
    },
    {
      "inputs": [
        {
          "internalType": "uint256",
          "name": "amount",
          "type": "uint256"
        },
        {
          "internalType": "address",
          "name": "token",
          "type": "address"
        }
      ],
      "name": "estimateRealize",
      "outputs": [
        {
          "internalType": "uint256",
          "name": "worth1e18",
          "type": "uint256"
        },
        {
          "internalType": "uint256",
          "name": "worth",
          "type": "uint256"
        }
      ],
      "stateMutability": "view",
      "type": "function"
    },
    {
      "inputs": [
        {
          "internalType": "uint256",
          "name": "amount",
          "type": "uint256"
        },
        {
          "internalType": "address",
          "name": "token",
          "type": "address"
        }
      ],
      "name": "estimateSell",
      "outputs": [
        {
          "internalType": "uint256",
          "name": "fee",
          "type": "uint256"
        },
        {
          "internalType": "uint256",
          "name": "worth1e18",
          "type": "uint256"
        },
        {
          "internalType": "uint256",
          "name": "worth",
          "type": "uint256"
        },
        {
          "internalType": "uint256",
          "name": "newPrice",
          "type": "uint256"
        }
      ],
      "stateMutability": "view",
      "type": "function"
    },
    {
      "inputs": [],
      "name": "f",
      "outputs": [
        {
          "internalType": "uint256",
          "name": "",
          "type": "uint256"
        }
      ],
      "stateMutability": "view",
      "type": "function"
    },
    {
      "inputs": [
        {
          "internalType": "bytes32",
          "name": "role",
          "type": "bytes32"
        }
      ],
      "name": "getRoleAdmin",
      "outputs": [
        {
          "internalType": "bytes32",
          "name": "",
          "type": "bytes32"
        }
      ],
      "stateMutability": "view",
      "type": "function"
    },
    {
      "inputs": [
        {
          "internalType": "bytes32",
          "name": "role",
          "type": "bytes32"
        },
        {
          "internalType": "uint256",
          "name": "index",
          "type": "uint256"
        }
      ],
      "name": "getRoleMember",
      "outputs": [
        {
          "internalType": "address",
          "name": "",
          "type": "address"
        }
      ],
      "stateMutability": "view",
      "type": "function"
    },
    {
      "inputs": [
        {
          "internalType": "bytes32",
          "name": "role",
          "type": "bytes32"
        }
      ],
      "name": "getRoleMemberCount",
      "outputs": [
        {
          "internalType": "uint256",
          "name": "",
          "type": "uint256"
        }
      ],
      "stateMutability": "view",
      "type": "function"
    },
    {
      "inputs": [
        {
          "internalType": "bytes32",
          "name": "role",
          "type": "bytes32"
        },
        {
          "internalType": "address",
          "name": "account",
          "type": "address"
        }
      ],
      "name": "grantRole",
      "outputs": [],
      "stateMutability": "nonpayable",
      "type": "function"
    },
    {
      "inputs": [
        {
          "internalType": "bytes32",
          "name": "role",
          "type": "bytes32"
        },
        {
          "internalType": "address",
          "name": "account",
          "type": "address"
        }
      ],
      "name": "hasRole",
      "outputs": [
        {
          "internalType": "bool",
          "name": "",
          "type": "bool"
        }
      ],
      "stateMutability": "view",
      "type": "function"
    },
    {
      "inputs": [],
      "name": "k",
      "outputs": [
        {
          "internalType": "uint256",
          "name": "",
          "type": "uint256"
        }
      ],
      "stateMutability": "view",
      "type": "function"
    },
    {
      "inputs": [],
      "name": "latestUpdateTimestamp",
      "outputs": [
        {
          "internalType": "uint256",
          "name": "",
          "type": "uint256"
        }
      ],
      "stateMutability": "view",
      "type": "function"
    },
    {
      "inputs": [],
      "name": "lowerAndAdjust",
      "outputs": [],
      "stateMutability": "nonpayable",
      "type": "function"
    },
    {
      "inputs": [],
      "name": "lowerInterval",
      "outputs": [
        {
          "internalType": "uint32",
          "name": "",
          "type": "uint32"
        }
      ],
      "stateMutability": "view",
      "type": "function"
    },
    {
      "inputs": [],
      "name": "lowerStep",
      "outputs": [
        {
          "internalType": "uint32",
          "name": "",
          "type": "uint32"
        }
      ],
      "stateMutability": "view",
      "type": "function"
    },
    {
      "inputs": [],
      "name": "maxTargetAdjusted",
      "outputs": [
        {
          "internalType": "uint32",
          "name": "",
          "type": "uint32"
        }
      ],
      "stateMutability": "view",
      "type": "function"
    },
    {
      "inputs": [],
      "name": "minTarget",
      "outputs": [
        {
          "internalType": "uint32",
          "name": "",
          "type": "uint32"
        }
      ],
      "stateMutability": "view",
      "type": "function"
    },
    {
      "inputs": [],
      "name": "p",
      "outputs": [
        {
          "internalType": "uint256",
          "name": "",
          "type": "uint256"
        }
      ],
      "stateMutability": "view",
      "type": "function"
    },
    {
      "inputs": [],
      "name": "pause",
      "outputs": [],
      "stateMutability": "nonpayable",
      "type": "function"
    },
    {
      "inputs": [],
      "name": "paused",
      "outputs": [
        {
          "internalType": "bool",
          "name": "",
          "type": "bool"
        }
      ],
      "stateMutability": "view",
      "type": "function"
    },
    {
      "inputs": [],
      "name": "pool",
      "outputs": [
        {
          "internalType": "contract IStakePool",
          "name": "",
          "type": "address"
        }
      ],
      "stateMutability": "view",
      "type": "function"
    },
    {
      "inputs": [],
      "name": "prLab",
      "outputs": [
        {
          "internalType": "contract IERC20BurnableMinter",
          "name": "",
          "type": "address"
        }
      ],
      "stateMutability": "view",
      "type": "function"
    },
    {
      "inputs": [],
      "name": "raiseStep",
      "outputs": [
        {
          "internalType": "uint32",
          "name": "",
          "type": "uint32"
        }
      ],
      "stateMutability": "view",
      "type": "function"
    },
    {
      "inputs": [
        {
          "internalType": "uint256",
          "name": "amount",
          "type": "uint256"
        },
        {
          "internalType": "address",
          "name": "token",
          "type": "address"
        },
        {
          "internalType": "uint256",
          "name": "desired",
          "type": "uint256"
        }
      ],
      "name": "realize",
      "outputs": [
        {
          "internalType": "uint256",
          "name": "",
          "type": "uint256"
        }
      ],
      "stateMutability": "nonpayable",
      "type": "function"
    },
    {
      "inputs": [
        {
          "internalType": "uint256",
          "name": "amount",
          "type": "uint256"
        },
        {
          "internalType": "address",
          "name": "token",
          "type": "address"
        },
        {
          "internalType": "uint256",
          "name": "desired",
          "type": "uint256"
        },
        {
          "internalType": "address",
          "name": "user",
          "type": "address"
        }
      ],
      "name": "realizeFor",
      "outputs": [
        {
          "internalType": "uint256",
          "name": "",
          "type": "uint256"
        }
      ],
      "stateMutability": "nonpayable",
      "type": "function"
    },
    {
      "inputs": [
        {
          "internalType": "bytes32",
          "name": "role",
          "type": "bytes32"
        },
        {
          "internalType": "address",
          "name": "account",
          "type": "address"
        }
      ],
      "name": "renounceRole",
      "outputs": [],
      "stateMutability": "nonpayable",
      "type": "function"
    },
    {
      "inputs": [
        {
          "internalType": "bytes32",
          "name": "role",
          "type": "bytes32"
        },
        {
          "internalType": "address",
          "name": "account",
          "type": "address"
        }
      ],
      "name": "revokeRole",
      "outputs": [],
      "stateMutability": "nonpayable",
      "type": "function"
    },
    {
      "inputs": [
        {
          "internalType": "uint256",
          "name": "amount",
          "type": "uint256"
        },
        {
          "internalType": "address",
          "name": "token",
          "type": "address"
        },
        {
          "internalType": "uint256",
          "name": "desired",
          "type": "uint256"
        }
      ],
      "name": "sell",
      "outputs": [
        {
          "internalType": "uint256",
          "name": "",
          "type": "uint256"
        },
        {
          "internalType": "uint256",
          "name": "",
          "type": "uint256"
        }
      ],
      "stateMutability": "nonpayable",
      "type": "function"
    },
    {
      "inputs": [],
      "name": "sellFee",
      "outputs": [
        {
          "internalType": "uint32",
          "name": "",
          "type": "uint32"
        }
      ],
      "stateMutability": "view",
      "type": "function"
    },
    {
      "inputs": [
        {
          "internalType": "uint256",
          "name": "amount",
          "type": "uint256"
        },
        {
          "internalType": "address",
          "name": "token",
          "type": "address"
        },
        {
          "internalType": "uint256",
          "name": "desired",
          "type": "uint256"
        },
        {
          "internalType": "address",
          "name": "user",
          "type": "address"
        }
      ],
      "name": "sellFor",
      "outputs": [
        {
          "internalType": "uint256",
          "name": "",
          "type": "uint256"
        },
        {
          "internalType": "uint256",
          "name": "",
          "type": "uint256"
        }
      ],
      "stateMutability": "nonpayable",
      "type": "function"
    },
    {
      "inputs": [
        {
          "internalType": "uint32",
          "name": "_minTarget",
          "type": "uint32"
        },
        {
          "internalType": "uint32",
          "name": "_maxTargetAdjusted",
          "type": "uint32"
        },
        {
          "internalType": "uint32",
          "name": "_raiseStep",
          "type": "uint32"
        },
        {
          "internalType": "uint32",
          "name": "_lowerStep",
          "type": "uint32"
        },
        {
          "internalType": "uint32",
          "name": "_lowerInterval",
          "type": "uint32"
        }
      ],
      "name": "setAdjustOptions",
      "outputs": [],
      "stateMutability": "nonpayable",
      "type": "function"
    },
    {
      "inputs": [
        {
          "internalType": "address",
          "name": "_dev",
          "type": "address"
        },
        {
          "internalType": "uint32",
          "name": "_buyFee",
          "type": "uint32"
        },
        {
          "internalType": "uint32",
          "name": "_sellFee",
          "type": "uint32"
        }
      ],
      "name": "setFeeOptions",
      "outputs": [],
      "stateMutability": "nonpayable",
      "type": "function"
    },
    {
      "inputs": [
        {
          "internalType": "uint256",
          "name": "_k",
          "type": "uint256"
        },
        {
          "internalType": "uint32",
          "name": "_target",
          "type": "uint32"
        },
        {
          "internalType": "uint32",
          "name": "_targetAdjusted",
          "type": "uint32"
        }
      ],
      "name": "setMarketOptions",
      "outputs": [],
      "stateMutability": "nonpayable",
      "type": "function"
    },
    {
      "inputs": [
        {
          "internalType": "uint256",
          "name": "index",
          "type": "uint256"
        }
      ],
      "name": "stablecoinsCanBuyAt",
      "outputs": [
        {
          "internalType": "address",
          "name": "",
          "type": "address"
        }
      ],
      "stateMutability": "view",
      "type": "function"
    },
    {
      "inputs": [
        {
          "internalType": "address",
          "name": "token",
          "type": "address"
        }
      ],
      "name": "stablecoinsCanBuyContains",
      "outputs": [
        {
          "internalType": "bool",
          "name": "",
          "type": "bool"
        }
      ],
      "stateMutability": "view",
      "type": "function"
    },
    {
      "inputs": [],
      "name": "stablecoinsCanBuyLength",
      "outputs": [
        {
          "internalType": "uint256",
          "name": "",
          "type": "uint256"
        }
      ],
      "stateMutability": "view",
      "type": "function"
    },
    {
      "inputs": [
        {
          "internalType": "uint256",
          "name": "index",
          "type": "uint256"
        }
      ],
      "name": "stablecoinsCanSellAt",
      "outputs": [
        {
          "internalType": "address",
          "name": "",
          "type": "address"
        }
      ],
      "stateMutability": "view",
      "type": "function"
    },
    {
      "inputs": [
        {
          "internalType": "address",
          "name": "token",
          "type": "address"
        }
      ],
      "name": "stablecoinsCanSellContains",
      "outputs": [
        {
          "internalType": "bool",
          "name": "",
          "type": "bool"
        }
      ],
      "stateMutability": "view",
      "type": "function"
    },
    {
      "inputs": [],
      "name": "stablecoinsCanSellLength",
      "outputs": [
        {
          "internalType": "uint256",
          "name": "",
          "type": "uint256"
        }
      ],
      "stateMutability": "view",
      "type": "function"
    },
    {
      "inputs": [
        {
          "internalType": "address",
          "name": "",
          "type": "address"
        }
      ],
      "name": "stablecoinsDecimals",
      "outputs": [
        {
          "internalType": "uint8",
          "name": "",
          "type": "uint8"
        }
      ],
      "stateMutability": "view",
      "type": "function"
    },
    {
      "inputs": [
        {
          "internalType": "address",
          "name": "_token",
          "type": "address"
        },
        {
          "internalType": "uint256",
          "name": "_w",
          "type": "uint256"
        },
        {
          "internalType": "uint256",
          "name": "_t",
          "type": "uint256"
        }
      ],
      "name": "startup",
      "outputs": [],
      "stateMutability": "nonpayable",
      "type": "function"
    },
    {
      "inputs": [
        {
          "internalType": "bytes4",
          "name": "interfaceId",
          "type": "bytes4"
        }
      ],
      "name": "supportsInterface",
      "outputs": [
        {
          "internalType": "bool",
          "name": "",
          "type": "bool"
        }
      ],
      "stateMutability": "view",
      "type": "function"
    },
    {
      "inputs": [],
      "name": "target",
      "outputs": [
        {
          "internalType": "uint32",
          "name": "",
          "type": "uint32"
        }
      ],
      "stateMutability": "view",
      "type": "function"
    },
    {
      "inputs": [],
      "name": "targetAdjusted",
      "outputs": [
        {
          "internalType": "uint32",
          "name": "",
          "type": "uint32"
        }
      ],
      "stateMutability": "view",
      "type": "function"
    },
    {
      "inputs": [],
      "name": "totalVolume",
      "outputs": [
        {
          "internalType": "uint256",
          "name": "",
          "type": "uint256"
        }
      ],
      "stateMutability": "view",
      "type": "function"
    },
    {
      "inputs": [],
      "name": "unpause",
      "outputs": [],
      "stateMutability": "nonpayable",
      "type": "function"
    },
    {
      "inputs": [],
      "name": "w",
      "outputs": [
        {
          "internalType": "uint256",
          "name": "",
          "type": "uint256"
        }
      ],
      "stateMutability": "view",
      "type": "function"
    }
  ],
  "bytecode": "0x608060405260006007553480156200001657600080fd5b5060405162004b5038038062004b50833981016040819052620000399162000755565b6002805460ff19169055600480546001600160e01b0316600160e01b1781556005805463ffffffff19166127101790556040805163313ce56760e01b815290516001600160a01b038b169263313ce567928082019260209290918290030181865afa158015620000ad573d6000803e3d6000fd5b505050506040513d601f19601f82011682018060405250810190620000d39190620008b0565b60ff166012146200012b5760405162461bcd60e51b815260206004820152601960248201527f4d61726b65743a20696e76616c6964204c616220746f6b656e0000000000000060448201526064015b60405180910390fd5b866001600160a01b031663313ce5676040518163ffffffff1660e01b8152600401602060405180830381865afa1580156200016a573d6000803e3d6000fd5b505050506040513d601f19601f82011682018060405250810190620001909190620008b0565b60ff16601214620001e45760405162461bcd60e51b815260206004820152601b60248201527f4d61726b65743a20696e76616c69642070724c616220746f6b656e0000000000604482015260640162000122565b60008511801562000208575060045463ffffffff600160e01b909104811690851610155b80156200022057508363ffffffff168363ffffffff16115b801562000239575060055463ffffffff90811690841611155b620002875760405162461bcd60e51b815260206004820181905260248201527f4d61726b65743a20696e76616c696420636f6e7374727563746f722061726773604482015260640162000122565b600280546001600160a01b03808b1661010002610100600160a81b031990921691909117909155600380548983166001600160a01b031990911617905560048054600988905563ffffffff868116600160c01b0263ffffffff60c01b19918916600160a01b026001600160c01b0319909316948b16949094179190911716919091179055620003377f241ecf16d79d0f8dbfb92cbc07fe17840425976cf0667f022fe9877caa831b08336200059a565b620003446000336200059a565b60005b81518110156200058b576000828281518110620003685762000368620008dc565b602090810291909101015160405163095ea7b360e01b81526001600160a01b03868116600483015260001960248301529192509082169063095ea7b3906044016020604051808303816000875af1158015620003c8573d6000803e3d6000fd5b505050506040513d601f19601f82011682018060405250810190620003ee9190620008f2565b506000816001600160a01b031663313ce5676040518163ffffffff1660e01b8152600401602060405180830381865afa15801562000430573d6000803e3d6000fd5b505050506040513d601f19601f82011682018060405250810190620004569190620008b0565b905060008160ff1611620004ad5760405162461bcd60e51b815260206004820152601560248201527f4d61726b65743a20696e76616c696420746f6b656e0000000000000000000000604482015260640162000122565b620004c882600e620005aa60201b6200299e1790919060201c565b50620004e4826010620005aa60201b6200299e1790919060201c565b506001600160a01b038216600081815260126020908152604091829020805460ff191660ff8616179055815192835260019083018190529082015260008051602062004b308339815191529060600160405180910390a1604080516001600160a01b038416815260006020820152600181830152905160008051602062004b308339815191529181900360600190a150508080620005829062000916565b91505062000347565b5050505050505050506200093e565b620005a68282620005ca565b5050565b6000620005c1836001600160a01b0384166200060d565b90505b92915050565b620005e182826200065f60201b620029b31760201c565b6000828152600160209081526040909120620006089183906200299e620005aa821b17901c565b505050565b60008181526001830160205260408120546200065657508154600181810184556000848152602080822090930184905584548482528286019093526040902091909155620005c4565b506000620005c4565b6000828152602081815260408083206001600160a01b038516845290915290205460ff16620005a6576000828152602081815260408083206001600160a01b03851684529091529020805460ff19166001179055620006bb3390565b6001600160a01b0316816001600160a01b0316837f2f8788117e7eff1d82e926ec794901d17c78024a50270940304540a733656f0d60405160405180910390a45050565b6001600160a01b03811681146200071557600080fd5b50565b805163ffffffff811681146200072d57600080fd5b919050565b80516200072d81620006ff565b634e487b7160e01b600052604160045260246000fd5b600080600080600080600080610100898b0312156200077357600080fd5b88516200078081620006ff565b809850506020808a01516200079581620006ff565b60408b0151909850620007a881620006ff565b60608b01519097509550620007c060808b0162000718565b9450620007d060a08b0162000718565b935060c08a0151620007e281620006ff565b60e08b01519093506001600160401b03808211156200080057600080fd5b818c0191508c601f8301126200081557600080fd5b8151818111156200082a576200082a6200073f565b8060051b604051601f19603f830116810181811085821117156200085257620008526200073f565b60405291825284820192508381018501918f8311156200087157600080fd5b938501935b828510156200089a576200088a8562000732565b8452938501939285019262000876565b8096505050505050509295985092959890939650565b600060208284031215620008c357600080fd5b815160ff81168114620008d557600080fd5b9392505050565b634e487b7160e01b600052603260045260246000fd5b6000602082840312156200090557600080fd5b81518015158114620008d557600080fd5b6000600182016200093757634e487b7160e01b600052601160045260246000fd5b5060010190565b6141e2806200094e6000396000f3fe608060405234801561001057600080fd5b506004361061032f5760003560e01c80637558f708116101b4578063b4f40c61116100fa578063e3b3f98f1161009d578063e3b3f98f146107bb578063e702ccda146107c3578063e7d7ebd7146107d6578063e9c3d3e9146107e9578063ec87621c146107fc578063f3ee570914610811578063fe8a382114610828578063ffcdd26a1461083b57600080fd5b8063b4f40c611461072f578063c3da42b814610738578063c486752e14610741578063c7da787b14610754578063ca15c87314610767578063d4b839921461077a578063d547741f14610791578063d56c73f1146107a457600080fd5b806391d148541161016257806391d1485414610695578063970c195d146106a85780639ae8886a146106b05780639c66d9a9146106b95780639d880530146106cc578063a217fddf14610701578063a59ac6dd14610709578063ac2f9c961461071c57600080fd5b80637558f7081461060457806375e257871461060c5780637cbb1b1e1461061f5780638456cb59146106545780638b9385251461065c5780639010d07c1461066f57806391cca3db1461068257600080fd5b80633723e81b116102795780635c975abb116102275780635c975abb146105655780635e1ef30d146105705780635f2ac357146105785780635f81a57c1461058b57806362df9ea21461059457806367cdf6c9146105c757806374442a95146105da57806374c5dee4146105f157600080fd5b80633723e81b146104bd5780633c422a91146104e55780633c9720ba146105225780633f4ba83a1461052a57806342966c6814610532578063470624021461054557806353d96f2c1461055c57600080fd5b8063260840c9116102e1578063260840c91461041557806326121ff014610441578063291eae7f1461044a5780632b14ca561461045d5780632ef42247146104745780632f2ff15d1461048457806334bb6b7c1461049757806336568abe146104aa57600080fd5b806301ffc9a714610334578063059fc3c61461035c5780630ac1ab9f1461039157806316f0115b146103c157806319662f12146103d4578063205c9cc7146103e9578063248a9ca3146103f2575b600080fd5b610347610342366004613935565b610852565b60405190151581526020015b60405180910390f35b6103837f6afe9cfb47664136b26b50db67b3566cb1d289a2bee71ac01b59c95757fb24fe81565b604051908152602001610353565b6002546103a99061010090046001600160a01b031681565b6040516001600160a01b039091168152602001610353565b6004546103a9906001600160a01b031681565b6103e76103e236600461398a565b61087d565b005b610383600d5481565b6103836104003660046139cd565b60009081526020819052604090206001015490565b60045461042c90600160e01b900463ffffffff1681565b60405163ffffffff9091168152602001610353565b610383600b5481565b6103a96104583660046139cd565b610a13565b60085461042c90600160c01b900463ffffffff1681565b60055461042c9063ffffffff1681565b6103e76104923660046139e6565b610a20565b6103e76104a5366004613a12565b610a4a565b6103e76104b83660046139e6565b610cd5565b6104d06104cb366004613a77565b610d53565b60408051928352602083019190915201610353565b6104f86104f3366004613abd565b61108d565b6040805195151586526020860194909452928401919091526060830152608082015260a001610353565b6103836111f7565b6103e7611208565b6103e76105403660046139cd565b61122b565b60085461042c90600160a01b900463ffffffff1681565b61038360065481565b60025460ff16610347565b6104d061125f565b6103a96105863660046139cd565b61130b565b61038360075481565b6105a76105a2366004613af8565b611318565b604080519485526020850193909352918301526060820152608001610353565b6104d06105d5366004613b22565b611493565b60055461042c90600160601b900463ffffffff1681565b6103e76105ff3660046139e6565b6114b6565b6103e7611923565b6103e761061a366004613b57565b6119ce565b61063261062d366004613b8a565b611c95565b6040805194151585526020850193909352918301526060820152608001610353565b6103e7611d6f565b6104d061066a366004613bbc565b611d8f565b6103a961067d366004613bf7565b612104565b6008546103a9906001600160a01b031681565b6103476106a33660046139e6565b612123565b61038361214c565b610383600c5481565b6104d06106c73660046139e6565b612158565b6106ef6106da366004613c19565b60126020526000908152604090205460ff1681565b60405160ff9091168152602001610353565b610383600081565b6104d0610717366004613b57565b61221d565b61038361072a366004613b22565b612234565b61038360095481565b610383600a5481565b61038361074f366004613a77565b612252565b6105a76107623660046139e6565b6124d0565b6103836107753660046139cd565b61278e565b60045461042c90600160a01b900463ffffffff1681565b6103e761079f3660046139e6565b6127a5565b60045461042c90600160c01b900463ffffffff1681565b6104f86127ca565b6103476107d1366004613c19565b612833565b6003546103a9906001600160a01b031681565b6103476107f7366004613c19565b612840565b61038360008051602061418d83398151915281565b60055461042c90600160201b900463ffffffff1681565b6103e7610836366004613c34565b61284d565b60055461042c90600160401b900463ffffffff1681565b60006001600160e01b03198216635a05180f60e01b1480610877575061087782612a37565b92915050565b60008051602061418d83398151915261089581612a6c565b6001600160a01b0384166108eb5760405162461bcd60e51b81526020600482015260186024820152774d61726b65743a207a65726f20646576206164647265737360401b60448201526064015b60405180910390fd5b6127108363ffffffff16111561093c5760405162461bcd60e51b81526020600482015260166024820152754d61726b65743a20696e76616c69642062757946656560501b60448201526064016108e2565b6127108263ffffffff16111561098e5760405162461bcd60e51b81526020600482015260176024820152764d61726b65743a20696e76616c69642073656c6c46656560481b60448201526064016108e2565b6008805463ffffffff848116600160c01b0263ffffffff60c01b19918716600160a01b026001600160c01b03199093166001600160a01b0389161792909217161790556040517f37e4c31a1b02ae6e145f1b31e0daf91e98188e546bf6ef5be16208040990279e90610a0590869086908690613c59565b60405180910390a150505050565b6000610877601083612a76565b600082815260208190526040902060010154610a3b81612a6c565b610a458383612a82565b505050565b60008051602061418d833981519152610a6281612a6c565b60008663ffffffff16118015610a8b575060045463ffffffff600160a01b909104811690871611155b610ad35760405162461bcd60e51b815260206004820152601960248201527813585c9ad95d0e881a5b9d985b1a59081b5a5b95185c99d95d603a1b60448201526064016108e2565b6127108563ffffffff1611158015610afe575060045463ffffffff600160c01b909104811690861610155b610b545760405162461bcd60e51b815260206004820152602160248201527f4d61726b65743a20696e76616c6964206d617854617267657441646a757374656044820152601960fa1b60648201526084016108e2565b6127108463ffffffff161115610bac5760405162461bcd60e51b815260206004820152601e60248201527f4d61726b65743a2072616973655374657020697320746f6f206c61726765000060448201526064016108e2565b6127108363ffffffff161115610c045760405162461bcd60e51b815260206004820152601e60248201527f4d61726b65743a206c6f7765725374657020697320746f6f206c61726765000060448201526064016108e2565b600480546001600160e01b0316600160e01b63ffffffff898116918202929092179092556005805488831667ffffffffffffffff199091168117600160201b8985169081029190911767ffffffffffffffff60401b1916600160401b89861690810263ffffffff60601b191691909117600160601b9589169586021790935560408051958652602086019290925290840152606083015260808201527fbac8fa563440d32c0c8d45e10ac67a28e47c4826d5832ea69f35e2f814b026be9060a00160405180910390a1505050505050565b6001600160a01b0381163314610d455760405162461bcd60e51b815260206004820152602f60248201527f416363657373436f6e74726f6c3a2063616e206f6e6c792072656e6f756e636560448201526e103937b632b9903337b91039b2b63360891b60648201526084016108e2565b610d4f8282612aa4565b5050565b600080610d5e612ac6565b600080600080610d6e8a8a6124d0565b9350935093509350600082118015610d865750600081115b610da25760405162461bcd60e51b81526004016108e290613c80565b87821015610e035760405162461bcd60e51b815260206004820152602860248201527f4d61726b65743a20776f727468206973206c657373207468616e2064657369726044820152670cac840eedee4e8d60c31b60648201526084016108e2565b600480546040805163630b5ba160e01b815290516001600160a01b039092169263630b5ba192828201926000929082900301818387803b158015610e4657600080fd5b505af1158015610e5a573d6000803e3d6000fd5b505060025461010090046001600160a01b031691506379cc6790905033610e81878e613ccd565b6040518363ffffffff1660e01b8152600401610e9e929190613ce4565b600060405180830381600087803b158015610eb857600080fd5b505af1158015610ecc573d6000803e3d6000fd5b50506002546008546040516323b872dd60e01b81526001600160a01b03610100909304831694506323b872dd9350610f0c92339216908990600401613cfd565b6020604051808303816000875af1158015610f2b573d6000803e3d6000fd5b505050506040513d601f19601f82011682018060405250810190610f4f9190613d21565b50610f646001600160a01b038a163384612b0c565b6001600160a01b03808a169088167f01fbb57444511e3de5b26ac09ad6bec45c3f9a1e59dd4a0f2b13a240d18476ce610f9d878e613ccd565b6040805191825260208201879052810188905260600160405180910390a380600a8190555082600d6000828254610fd49190613ccd565b925050819055508260076000828254610fed9190613d43565b9091555050600b54810361107657600260019054906101000a90046001600160a01b03166001600160a01b03166318160ddd6040518163ffffffff1660e01b8152600401602060405180830381865afa15801561104e573d6000803e3d6000fd5b505050506040513d601f19601f820116820180604052508101906110729190613d5b565b600c555b61107e611923565b50989197509095505050505050565b600080808080806110a087612710613ccd565b8a886110ad8e6002613d74565b6110b79190613d74565b6110c19190613d74565b6110cb9190613da9565b905060026111018a6110de846004613d74565b6110e89190613d74565b6110f28480613d74565b6110fc9190613d43565b612b62565b8261110d8c6002613d74565b6111179190613d43565b6111219190613d43565b61112b9190613da9565b9450888511156111e95761113f8986613ccd565b90508961114c8c82613d74565b6111569083613d43565b6111609190613da9565b935061116d8a6002613d74565b61117f90670de0b6b3a7640000613d74565b8a8661118c8e6002613d74565b6111969190613d74565b6111a09190613d74565b6111aa8380613d74565b6111b49190613d43565b6111be9190613da9565b925060008b1180156111cf57508a84115b156111e9576111e08a898588611c95565b50919750909250505b509550955095509550959050565b6000611203600e612bd2565b905090565b60008051602061418d83398151915261122081612a6c565b611228612bdc565b50565b6000600b541161124d5760405162461bcd60e51b81526004016108e290613dbd565b611255612ac6565b61122881336114b6565b6000806000600b54116112845760405162461bcd60e51b81526004016108e290613dbd565b611303600260019054906101000a90046001600160a01b03166001600160a01b03166318160ddd6040518163ffffffff1660e01b8152600401602060405180830381865afa1580156112da573d6000803e3d6000fd5b505050506040513d601f19601f820116820180604052508101906112fe9190613d5b565b612c2e565b915091509091565b6000610877600e83612a76565b600080808085611329600e82612c9b565b6113455760405162461bcd60e51b81526004016108e290613ded565b6000600b54116113675760405162461bcd60e51b81526004016108e290613dbd565b600a546009546001600160a01b038916600090815260126020819052604090912054611398918a9160ff1690612cbd565b945060006113e7826113ab886002613d74565b6113b59190613d74565b6113c790670de0b6b3a7640000613d74565b83806113d38780613d74565b6113dd9190613d74565b6110f29190613d74565b905060006113f58385613d74565b90508082111561144f57600061140b8284613ccd565b90506000848261141b8289613d74565b6114259190613d43565b61142f9190613da9565b905085811180156114405750600082115b1561144c57819a508097505b50505b6008546127109061146d90600160a01b900463ffffffff168b613d74565b6114779190613da9565b9750611483888a613ccd565b9850505050505092959194509250565b60008061149e612ac6565b6114aa85858533610d53565b91509150935093915050565b6000600b54116114d85760405162461bcd60e51b81526004016108e290613dbd565b6114e0612ac6565b600082116115295760405162461bcd60e51b81526020600482015260166024820152754d61726b65743a20616d6f756e74206973207a65726f60501b60448201526064016108e2565b600480546040805163630b5ba160e01b815290516001600160a01b039092169263630b5ba192828201926000929082900301818387803b15801561156c57600080fd5b505af1158015611580573d6000803e3d6000fd5b505060025461010090046001600160a01b031691506379cc6790905033846040518363ffffffff1660e01b81526004016115bb929190613ce4565b600060405180830381600087803b1580156115d557600080fd5b505af11580156115e9573d6000803e3d6000fd5b505050506000600260019054906101000a90046001600160a01b03166001600160a01b03166318160ddd6040518163ffffffff1660e01b8152600401602060405180830381865afa158015611642573d6000803e3d6000fd5b505050506040513d601f19601f820116820180604052508101906116669190613d5b565b9050600081116116b85760405162461bcd60e51b815260206004820152601a60248201527f4d61726b65743a2063616e2774206275726e20616c6c206c616200000000000060448201526064016108e2565b600b54600954600d54600061171983866116d3876002613d74565b6116dd9190613d74565b6116e79190613d74565b846116f3856002613d74565b6116fd9190613d74565b61170f90670de0b6b3a7640000613d74565b6110fc9190613ccd565b90506000811161173b5760405162461bcd60e51b81526004016108e290613e20565b8481101561179e57600083826117518288613d74565b61175b9190613d43565b6117659190613da9565b90508481116117865760405162461bcd60e51b81526004016108e290613e20565b600a8190556117958287613ccd565b600c5550611880565b826117aa866002613d74565b6117b49190613d74565b6117be8680613d74565b846117ca856002613d74565b6117d49190613d74565b6117e690670de0b6b3a7640000613d74565b6117f09190613ccd565b6117fa9190613da9565b93506000838661180a8288613d74565b6118149190613d43565b61181e9190613da9565b9050600b548511801561183057508481115b6118725760405162461bcd60e51b815260206004820152601360248201527213585c9ad95d0e88189d5c9b8819985a5b1959606a1b60448201526064016108e2565b600a55600b8490556000600c555b856001600160a01b03167fcc16f5dbb4873280815c1ee09dbd06736cffcc184412cf7a71a0fdb75d397ca5886040516118bb91815260200190565b60405180910390a26000806118cf87612c2e565b60045491935091506118ee90600160c01b900463ffffffff1682613d74565b6118fa83612710613d74565b111561190f5761190a8789612d26565b611918565b61191887612f47565b505050505050505050565b6000600b54116119455760405162461bcd60e51b81526004016108e290613dbd565b61194d612ac6565b6119cc600260019054906101000a90046001600160a01b03166001600160a01b03166318160ddd6040518163ffffffff1660e01b8152600401602060405180830381865afa1580156119a3573d6000803e3d6000fd5b505050506040513d601f19601f820116820180604052508101906119c79190613d5b565b612f47565b565b7f6afe9cfb47664136b26b50db67b3566cb1d289a2bee71ac01b59c95757fb24fe6119f881612a6c565b83611a04600e82612c9b565b611a205760405162461bcd60e51b81526004016108e290613ded565b600554600160201b900463ffffffff16611a775760405162461bcd60e51b81526020600482015260186024820152774d61726b65743a2073657441646a7573744f7074696f6e7360401b60448201526064016108e2565b6008546001600160a01b0316611ac75760405162461bcd60e51b81526020600482015260156024820152744d61726b65743a207365744665654f7074696f6e7360581b60448201526064016108e2565b600b5415611ae75760405162461bcd60e51b81526004016108e290613e57565b6001600160a01b0385166000908152601260208190526040822054611b1191879160ff1690612cbd565b9050600081118015611b235750600084115b8015611ba35750600260019054906101000a90046001600160a01b03166001600160a01b03166318160ddd6040518163ffffffff1660e01b8152600401602060405180830381865afa158015611b7d573d6000803e3d6000fd5b505050506040513d601f19601f82011682018060405250810190611ba19190613d5b565b155b611be95760405162461bcd60e51b815260206004820152601760248201527604d61726b65743a20696e76616c6964207374617274757604c1b60448201526064016108e2565b611bfe6001600160a01b038716333088613171565b60025461010090046001600160a01b03166340c10f1933866040518363ffffffff1660e01b8152600401611c33929190613ce4565b600060405180830381600087803b158015611c4d57600080fd5b505af1158015611c61573d6000803e3d6000fd5b5050505080600d819055508060076000828254611c7e9190613d43565b90915550611c8d905084613192565b505050505050565b60008080808487611cac88655af3107a4000613d74565b611cb69190613d74565b611cc888670de0b6b3a7640000613d74565b611cd29190613ccd565b611cdc9190613da9565b91506000611d148988611cf08b6002613d74565b611cfa9190613d74565b611d049190613d74565b6110fc90655af3107a4000613d74565b9050808610611d6357611d278187613ccd565b915088611d348482613d74565b611d3e9083613d43565b611d489190613da9565b9350600083118015611d5957508284115b15611d6357600194505b50945094509450949050565b60008051602061418d833981519152611d8781612a6c565b61122861326b565b600080611d9a612ac6565b600080600080611daa8a8a611318565b9350935093509350600082118015611dc25750600084115b8015611dce5750600081115b611dea5760405162461bcd60e51b81526004016108e290613c80565b87841015611e525760405162461bcd60e51b815260206004820152602f60248201527f4d61726b65743a206d696e7420616d6f756e74206973206c657373207468616e60448201526e0819195cda5c995908185b5bdd5b9d608a1b60648201526084016108e2565b611e676001600160a01b038b1633308c613171565b600480546040805163630b5ba160e01b815290516001600160a01b039092169263630b5ba192828201926000929082900301818387803b158015611eaa57600080fd5b505af1158015611ebe573d6000803e3d6000fd5b505060025461010090046001600160a01b031691506340c10f19905033866040518363ffffffff1660e01b8152600401611ef9929190613ce4565b600060405180830381600087803b158015611f1357600080fd5b505af1158015611f27573d6000803e3d6000fd5b50506002546008546040516340c10f1960e01b81526101009092046001600160a01b0390811694506340c10f199350611f67929116908790600401613ce4565b600060405180830381600087803b158015611f8157600080fd5b505af1158015611f95573d6000803e3d6000fd5b5050604080518c8152602081018890529081018690526001600160a01b03808e1693508a1691507ef93dbdb72854b6b6fb35433086556f2635fc83c37080c667496fecfa650fb49060600160405180910390a380600a8190555081600760008282546120019190613d43565b9250508190555081600d600082825461201a9190613d43565b925050819055506000600260019054906101000a90046001600160a01b03166001600160a01b03166318160ddd6040518163ffffffff1660e01b8152600401602060405180830381865afa158015612076573d6000803e3d6000fd5b505050506040513d601f19601f8201168201806040525081019061209a9190613d5b565b90506000806120a883612c2e565b60045491935091506120c790600160c01b900463ffffffff1682613d74565b6120d383612710613d74565b11156120e8576120e3838b612d26565b6120f1565b6120f183612f47565b50949b939a509298505050505050505050565b600082815260016020526040812061211c9083612a76565b9392505050565b6000918252602082815260408084206001600160a01b0393909316845291905290205460ff1690565b60006112036010612bd2565b60008082612167600e82612c9b565b6121835760405162461bcd60e51b81526004016108e290613ded565b6000600b54116121a55760405162461bcd60e51b81526004016108e290613dbd565b670de0b6b3a764000085600b546121bc9190613d74565b6121c69190613da9565b6001600160a01b03851660009081526012602081905260409091205491945060ff909116906121f7908590836132a8565b925060128160ff1610156122145761221183826012612cbd565b93505b50509250929050565b600080612228612ac6565b6114aa85858533611d8f565b600061223e612ac6565b61224a84848433612252565b949350505050565b600061225c612ac6565b6000806122698787612158565b915091506000811161228d5760405162461bcd60e51b81526004016108e290613c80565b848111156122f15760405162461bcd60e51b815260206004820152602b60248201527f4d61726b65743a20776f7274682069732067726561746572207468616e20646560448201526a0e6d2e4cac840eedee4e8d60ab1b60648201526084016108e2565b6123066001600160a01b038716333084613171565b6003546001600160a01b03166379cc679033896040518363ffffffff1660e01b8152600401612336929190613ce4565b600060405180830381600087803b15801561235057600080fd5b505af1158015612364573d6000803e3d6000fd5b5050600480546040805163630b5ba160e01b815290516001600160a01b03909216945063630b5ba19350808301926000929182900301818387803b1580156123ab57600080fd5b505af11580156123bf573d6000803e3d6000fd5b505060025461010090046001600160a01b031691506340c10f19905033896040518363ffffffff1660e01b81526004016123fa929190613ce4565b600060405180830381600087803b15801561241457600080fd5b505af1158015612428573d6000803e3d6000fd5b505060408051848152602081018b90526001600160a01b03808b169450881692507f18c0b000fa0bbc09023cc2e469b7c84958d49cb8c996d5b533aeae38f3ed2a69910160405180910390a381600d60008282546124869190613d43565b92505081905550816007600082825461249f9190613d43565b9250508190555086600c60008282546124b89190613d43565b909155506124c69050611923565b9695505050505050565b6000808080846124e1601082612c9b565b61252d5760405162461bcd60e51b815260206004820152601a60248201527f4d61726b65743a20696e76616c69642073656c6c20746f6b656e00000000000060448201526064016108e2565b6000600b541161254f5760405162461bcd60e51b81526004016108e290613dbd565b600a54600b54600954600254604080516318160ddd60e01b8152905160009261010090046001600160a01b0316916318160ddd9160048083019260209291908290030181865afa1580156125a7573d6000803e3d6000fd5b505050506040513d601f19601f820116820180604052508101906125cb9190613d5b565b600854909150612710906125ec90600160c01b900463ffffffff168d613d74565b6125f69190613da9565b9850612602898c613ccd565b9a50600c54811115612701576000600c548261261e9190613ccd565b90508b8111612676576000671bc16d674ec800008261263d8888613d43565b6126479190613d74565b6126519190613da9565b9050849750808a6126629190613d43565b995061266e828e613ccd565b9c50506126ff565b6000838d6126848289613d74565b61268e9190613ccd565b6126989190613da9565b90506000671bc16d674ec800008e6126b08985613d43565b6126ba9190613d74565b6126c49190613da9565b905086821080156126d55750858210155b80156126e15750600081115b156126f857819850808b6126f59190613d43565b9a505b60009d5050505b505b8a1561273657829550670de0b6b3a7640000838c61271f9190613d74565b6127299190613da9565b6127339089613d43565b97505b6001600160a01b038a1660009081526012602081905260409091205460ff1690612762908a9083612cbd565b975060128160ff16101561277f5761277c88826012612cbd565b98505b50505050505092959194509250565b600081815260016020526040812061087790612bd2565b6000828152602081905260409020600101546127c081612a6c565b610a458383612aa4565b600080600080600080600b54116127f35760405162461bcd60e51b81526004016108e290613dbd565b600b54600954600c546004546128229392919063ffffffff600160a01b8204811691600160c01b90041661108d565b945094509450945094509091929394565b6000610877601083612c9b565b6000610877600e83612c9b565b60008051602061418d83398151915261286581612a6c565b600b54156128855760405162461bcd60e51b81526004016108e290613e57565b600084116128cd5760405162461bcd60e51b81526020600482015260156024820152744d61726b65743a20696e76616c696420736c6f706560581b60448201526064016108e2565b60045463ffffffff600160e01b9091048116908416108015906128fb57508263ffffffff168263ffffffff16115b8015612913575060055463ffffffff90811690831611155b6129575760405162461bcd60e51b81526020600482015260156024820152744d61726b65743a20696e76616c696420726174696f60581b60448201526064016108e2565b506009929092556004805467ffffffffffffffff60a01b1916600160a01b63ffffffff9384160263ffffffff60c01b191617600160c01b9290931691909102919091179055565b600061211c836001600160a01b038416613320565b6129bd8282612123565b610d4f576000828152602081815260408083206001600160a01b03851684529091529020805460ff191660011790556129f33390565b6001600160a01b0316816001600160a01b0316837f2f8788117e7eff1d82e926ec794901d17c78024a50270940304540a733656f0d60405160405180910390a45050565b60006001600160e01b03198216637965db0b60e01b148061087757506301ffc9a760e01b6001600160e01b0319831614610877565b611228813361336f565b600061211c83836133d3565b612a8c82826129b3565b6000828152600160205260409020610a45908261299e565b612aae82826133fd565b6000828152600160205260409020610a459082613462565b60025460ff16156119cc5760405162461bcd60e51b815260206004820152601060248201526f14185d5cd8589b194e881c185d5cd95960821b60448201526064016108e2565b610a458363a9059cbb60e01b8484604051602401612b2b929190613ce4565b60408051601f198184030181529190526020810180516001600160e01b03166001600160e01b031990931692909217909152613477565b60006003821115612bc35750806000612b7c600283613da9565b612b87906001613d43565b90505b81811015612bbd57905080600281612ba28186613da9565b612bac9190613d43565b612bb69190613da9565b9050612b8a565b50919050565b8115612bcd575060015b919050565b6000610877825490565b612be4613549565b6002805460ff191690557f5db9ee0a495bf2e6ff9c91a7834c1ba4fdd244a5e8aa4e537bd38aeae4b073aa335b6040516001600160a01b03909116815260200160405180910390a1565b600080600c54831115612c93576000600c5484612c4b9190613ccd565b9050612c578180613d74565b92508260095485600b546002612c6d9190613d74565b612c779190613d74565b612c819190613d74565b612c8b9190613d43565b915050915091565b506001915091565b6001600160a01b0381166000908152600183016020526040812054151561211c565b60008160ff168360ff1603612cd357508261211c565b8160ff168360ff161015612d0757612ceb8383613e83565b612cf690600a613f8a565b612d009085613d74565b905061211c565b612d118284613e83565b612d1c90600a613f8a565b61224a9085613da9565b42600681905550600080600080612d5b600954600460149054906101000a900463ffffffff1663ffffffff16600d5489611c95565b9350935093509350838015612d725750600b548210155b15611c8d57600a839055600b829055600c81905560408051848152602081018490529081018290527f031beffcb4b4d3d33cf44d7a9ff0a471fb95ad223f3b4ac6767ef7e8f9a0981e9060600160405180910390a16001600160a01b03851615801590612df5575060055460045463ffffffff918216600160c01b909104909116105b15611c8d5760055460045463ffffffff600160201b8304811692811691612e25918491600160c01b900416613f99565b63ffffffff161115612e5457600454600554612e519163ffffffff600160c01b90910481169116613fc1565b90505b63ffffffff811615612f3e5780600460148282829054906101000a900463ffffffff16612e819190613f99565b92506101000a81548163ffffffff021916908363ffffffff16021790555080600460188282829054906101000a900463ffffffff16612ec09190613f99565b92506101000a81548163ffffffff021916908363ffffffff1602179055507f11df61431069ecb6bffb62f185491e4adc966b75b0648630ea30f60cfff8a9e586600460149054906101000a900463ffffffff16600460189054906101000a900463ffffffff16604051612f3593929190613c59565b60405180910390a15b50505050505050565b60065442118015612f665750600554600160601b900463ffffffff1615155b1561122857600554600654600091600160601b900463ffffffff1690612f8c9042613ccd565b600554612fa69190600160401b900463ffffffff16613fe6565b612fb09190614012565b905063ffffffff811615610d4f574260065560045463ffffffff600160e01b82048116600160a01b9092041603612fe5575050565b60045463ffffffff808316600160a01b90920416108061302d575060045463ffffffff600160e01b8204811691613025918491600160a01b900416613fc1565b63ffffffff16105b15613058576004546130559063ffffffff600160e01b8204811691600160a01b900416613fc1565b90505b80600460148282829054906101000a900463ffffffff166130799190613fc1565b92506101000a81548163ffffffff021916908363ffffffff16021790555080600460188282829054906101000a900463ffffffff166130b89190613fc1565b82546101009290920a63ffffffff81810219909316918316021790915560045460408051600160a01b830484168152600160c01b90920490921660208201527fcb23a4ec68710aad47873f6b056baa8b2002c146d2c86c4d7803f6ce74a2383a92500160405180910390a160008061312f84612c2e565b600454919350915061314e90600160c01b900463ffffffff1682613d74565b61315a83612710613d74565b111561316b5761316b846000612d26565b50505050565b61316b846323b872dd60e01b858585604051602401612b2b93929190613cfd565b426006819055506000806000806131c7600954600460149054906101000a900463ffffffff1663ffffffff16600d5488611c95565b9350935093509350836132145760405162461bcd60e51b815260206004820152601560248201527413585c9ad95d0e8818591a9d5cdd0819985a5b1959605a1b60448201526064016108e2565b600a839055600b829055600c81905560408051848152602081018490529081018290527f031beffcb4b4d3d33cf44d7a9ff0a471fb95ad223f3b4ac6767ef7e8f9a0981e9060600160405180910390a15050505050565b613273612ac6565b6002805460ff191660011790557f62e78cea01bee320cd4e420270b5ea74000d11b0c9f74754ebdbfc544b05a258612c113390565b60008160ff168360ff16036132be57508261211c565b8160ff168360ff1610156132d657612ceb8383613e83565b60006132e28385613e83565b6132ed90600a613f8a565b90506132f98186613da9565b91506133058186614035565b1561331857613315600183613d43565b91505b509392505050565b600081815260018301602052604081205461336757508154600181810184556000848152602080822090930184905584548482528286019093526040902091909155610877565b506000610877565b6133798282612123565b610d4f57613391816001600160a01b03166014613592565b61339c836020613592565b6040516020016133ad929190614075565b60408051601f198184030181529082905262461bcd60e51b82526108e2916004016140e4565b60008260000182815481106133ea576133ea614117565b9060005260206000200154905092915050565b6134078282612123565b15610d4f576000828152602081815260408083206001600160a01b0385168085529252808320805460ff1916905551339285917ff6391f5c32d9c69d2a47ea670b442974b53935d1edc7fd64eb21e047a839171b9190a45050565b600061211c836001600160a01b03841661372e565b60006134cc826040518060400160405280602081526020017f5361666545524332303a206c6f772d6c6576656c2063616c6c206661696c6564815250856001600160a01b03166138219092919063ffffffff16565b805190915015610a4557808060200190518101906134ea9190613d21565b610a455760405162461bcd60e51b815260206004820152602a60248201527f5361666545524332303a204552433230206f7065726174696f6e20646964206e6044820152691bdd081cdd58d8d9595960b21b60648201526084016108e2565b60025460ff166119cc5760405162461bcd60e51b815260206004820152601460248201527314185d5cd8589b194e881b9bdd081c185d5cd95960621b60448201526064016108e2565b606060006135a1836002613d74565b6135ac906002613d43565b67ffffffffffffffff8111156135c4576135c461412d565b6040519080825280601f01601f1916602001820160405280156135ee576020820181803683370190505b509050600360fc1b8160008151811061360957613609614117565b60200101906001600160f81b031916908160001a905350600f60fb1b8160018151811061363857613638614117565b60200101906001600160f81b031916908160001a905350600061365c846002613d74565b613667906001613d43565b90505b60018111156136df576f181899199a1a9b1b9c1cb0b131b232b360811b85600f166010811061369b5761369b614117565b1a60f81b8282815181106136b1576136b1614117565b60200101906001600160f81b031916908160001a90535060049490941c936136d881614143565b905061366a565b50831561211c5760405162461bcd60e51b815260206004820181905260248201527f537472696e67733a20686578206c656e67746820696e73756666696369656e7460448201526064016108e2565b60008181526001830160205260408120548015613817576000613752600183613ccd565b855490915060009061376690600190613ccd565b90508181146137cb57600086600001828154811061378657613786614117565b90600052602060002001549050808760000184815481106137a9576137a9614117565b6000918252602080832090910192909255918252600188019052604090208390555b85548690806137dc576137dc61415a565b600190038181906000526020600020016000905590558560010160008681526020019081526020016000206000905560019350505050610877565b6000915050610877565b606061224a8484600085856001600160a01b0385163b6138835760405162461bcd60e51b815260206004820152601d60248201527f416464726573733a2063616c6c20746f206e6f6e2d636f6e747261637400000060448201526064016108e2565b600080866001600160a01b0316858760405161389f9190614170565b60006040518083038185875af1925050503d80600081146138dc576040519150601f19603f3d011682016040523d82523d6000602084013e6138e1565b606091505b50915091506138f18282866138fc565b979650505050505050565b6060831561390b57508161211c565b82511561391b5782518084602001fd5b8160405162461bcd60e51b81526004016108e291906140e4565b60006020828403121561394757600080fd5b81356001600160e01b03198116811461211c57600080fd5b80356001600160a01b0381168114612bcd57600080fd5b803563ffffffff81168114612bcd57600080fd5b60008060006060848603121561399f57600080fd5b6139a88461395f565b92506139b660208501613976565b91506139c460408501613976565b90509250925092565b6000602082840312156139df57600080fd5b5035919050565b600080604083850312156139f957600080fd5b82359150613a096020840161395f565b90509250929050565b600080600080600060a08688031215613a2a57600080fd5b613a3386613976565b9450613a4160208701613976565b9350613a4f60408701613976565b9250613a5d60608701613976565b9150613a6b60808701613976565b90509295509295909350565b60008060008060808587031215613a8d57600080fd5b84359350613a9d6020860161395f565b925060408501359150613ab26060860161395f565b905092959194509250565b600080600080600060a08688031215613ad557600080fd5b505083359560208501359550604085013594606081013594506080013592509050565b60008060408385031215613b0b57600080fd5b613b148361395f565b946020939093013593505050565b600080600060608486031215613b3757600080fd5b83359250613b476020850161395f565b9150604084013590509250925092565b600080600060608486031215613b6c57600080fd5b613b758461395f565b95602085013595506040909401359392505050565b60008060008060808587031215613ba057600080fd5b5050823594602084013594506040840135936060013592509050565b60008060008060808587031215613bd257600080fd5b613bdb8561395f565b93506020850135925060408501359150613ab26060860161395f565b60008060408385031215613c0a57600080fd5b50508035926020909101359150565b600060208284031215613c2b57600080fd5b61211c8261395f565b600080600060608486031215613c4957600080fd5b833592506139b660208501613976565b6001600160a01b0393909316835263ffffffff918216602084015216604082015260600190565b6020808252601b908201527f4d61726b65743a207573656c657373207472616e73616374696f6e0000000000604082015260600190565b634e487b7160e01b600052601160045260246000fd5b600082821015613cdf57613cdf613cb7565b500390565b6001600160a01b03929092168252602082015260400190565b6001600160a01b039384168152919092166020820152604081019190915260600190565b600060208284031215613d3357600080fd5b8151801515811461211c57600080fd5b60008219821115613d5657613d56613cb7565b500190565b600060208284031215613d6d57600080fd5b5051919050565b6000816000190483118215151615613d8e57613d8e613cb7565b500290565b634e487b7160e01b600052601260045260246000fd5b600082613db857613db8613d93565b500490565b60208082526016908201527513585c9ad95d0e881a5cc81b9bdd081cdd185c9d195960521b604082015260600190565b60208082526019908201527826b0b935b2ba1d1034b73b30b634b210313abc903a37b5b2b760391b604082015260600190565b6020808252601b908201527f4d61726b65743a20616d6f756e7420697320746f6f20736d616c6c0000000000604082015260600190565b60208082526012908201527113585c9ad95d0e881a5cc81cdd185c9d195960721b604082015260600190565b600060ff821660ff841680821015613e9d57613e9d613cb7565b90039392505050565b600181815b80851115613ee1578160001904821115613ec757613ec7613cb7565b80851615613ed457918102915b93841c9390800290613eab565b509250929050565b600082613ef857506001610877565b81613f0557506000610877565b8160018114613f1b5760028114613f2557613f41565b6001915050610877565b60ff841115613f3657613f36613cb7565b50506001821b610877565b5060208310610133831016604e8410600b8410161715613f64575081810a610877565b613f6e8383613ea6565b8060001904821115613f8257613f82613cb7565b029392505050565b600061211c60ff841683613ee9565b600063ffffffff808316818516808303821115613fb857613fb8613cb7565b01949350505050565b600063ffffffff83811690831681811015613fde57613fde613cb7565b039392505050565b600063ffffffff8083168185168183048111821515161561400957614009613cb7565b02949350505050565b600063ffffffff8084168061402957614029613d93565b92169190910492915050565b60008261404457614044613d93565b500690565b60005b8381101561406457818101518382015260200161404c565b8381111561316b5750506000910152565b76020b1b1b2b9b9a1b7b73a3937b61d1030b1b1b7bab73a1604d1b8152600083516140a7816017850160208801614049565b7001034b99036b4b9b9b4b733903937b6329607d1b60179184019182015283516140d8816028840160208801614049565b01602801949350505050565b6020815260008251806020840152614103816040850160208701614049565b601f01601f19169190910160400192915050565b634e487b7160e01b600052603260045260246000fd5b634e487b7160e01b600052604160045260246000fd5b60008161415257614152613cb7565b506000190190565b634e487b7160e01b600052603160045260246000fd5b60008251614182818460208701614049565b919091019291505056fe241ecf16d79d0f8dbfb92cbc07fe17840425976cf0667f022fe9877caa831b08a2646970667358221220fbd4743d1ce6293234b4cd7d1399af3fdfc84ad30c455f14c058cb701395c34564736f6c634300080e003308c19ac4d8fff6d0c1eee587e93f5b408ed1f76080321538c5f7195ea08a6b5b",
  "linkReferences": {},
  "deployedLinkReferences": {}
}