{
  "_format": "hh-sol-artifact-1",
  "contractName": "StakePool",
  "sourceName": "contracts/StakePool.sol",
  "abi": [
    {
      "inputs": [
        {
          "internalType": "contract IERC20",
          "name": "_Lab",
          "type": "address"
        },
        {
          "internalType": "contract IERC20BurnableMinter",
          "name": "_prLab",
          "type": "address"
        }
      ],
      "stateMutability": "nonpayable",
      "type": "constructor"
    },
    {
      "anonymous": false,
      "inputs": [
        {
          "indexed": true,
          "internalType": "address",
          "name": "user",
          "type": "address"
        },
        {
          "indexed": true,
          "internalType": "uint256",
          "name": "pid",
          "type": "uint256"
        },
        {
          "indexed": false,
          "internalType": "uint256",
          "name": "amount",
          "type": "uint256"
        }
      ],
      "name": "Deposit",
      "type": "event"
    },
    {
      "anonymous": false,
      "inputs": [
        {
          "indexed": false,
          "internalType": "uint32",
          "name": "mintPercentPerDay",
          "type": "uint32"
        },
        {
          "indexed": false,
          "internalType": "uint256",
          "name": "blocksPerDay",
          "type": "uint256"
        },
        {
          "indexed": false,
          "internalType": "address",
          "name": "dev",
          "type": "address"
        },
        {
          "indexed": false,
          "internalType": "uint32",
          "name": "withdrawFee",
          "type": "uint32"
        },
        {
          "indexed": false,
          "internalType": "uint32",
          "name": "mintFee",
          "type": "uint32"
        }
      ],
      "name": "OptionsChanged",
      "type": "event"
    },
    {
      "anonymous": false,
      "inputs": [
        {
          "indexed": true,
          "internalType": "address",
          "name": "previousOwner",
          "type": "address"
        },
        {
          "indexed": true,
          "internalType": "address",
          "name": "newOwner",
          "type": "address"
        }
      ],
      "name": "OwnershipTransferred",
      "type": "event"
    },
    {
      "anonymous": false,
      "inputs": [
        {
          "indexed": true,
          "internalType": "address",
          "name": "user",
          "type": "address"
        },
        {
          "indexed": true,
          "internalType": "uint256",
          "name": "pid",
          "type": "uint256"
        },
        {
          "indexed": false,
          "internalType": "uint256",
          "name": "amount",
          "type": "uint256"
        },
        {
          "indexed": false,
          "internalType": "uint256",
          "name": "fee",
          "type": "uint256"
        }
      ],
      "name": "Withdraw",
      "type": "event"
    },
    {
      "inputs": [],
      "name": "Lab",
      "outputs": [
        {
          "internalType": "contract IERC20",
          "name": "",
          "type": "address"
        }
      ],
      "stateMutability": "view",
      "type": "function"
    },
    {
      "inputs": [
        {
          "internalType": "uint256",
          "name": "_allocPoint",
          "type": "uint256"
        },
        {
          "internalType": "contract IERC20",
          "name": "_lpToken",
          "type": "address"
        },
        {
          "internalType": "bool",
          "name": "_withUpdate",
          "type": "bool"
        }
      ],
      "name": "add",
      "outputs": [],
      "stateMutability": "nonpayable",
      "type": "function"
    },
    {
      "inputs": [],
      "name": "bank",
      "outputs": [
        {
          "internalType": "contract IBank",
          "name": "",
          "type": "address"
        }
      ],
      "stateMutability": "view",
      "type": "function"
    },
    {
      "inputs": [],
      "name": "blocksPerDay",
      "outputs": [
        {
          "internalType": "uint256",
          "name": "",
          "type": "uint256"
        }
      ],
      "stateMutability": "view",
      "type": "function"
    },
    {
      "inputs": [
        {
          "internalType": "uint256",
          "name": "_pid",
          "type": "uint256"
        }
      ],
      "name": "claim",
      "outputs": [],
      "stateMutability": "nonpayable",
      "type": "function"
    },
    {
      "inputs": [
        {
          "internalType": "uint256",
          "name": "_pid",
          "type": "uint256"
        },
        {
          "internalType": "address",
          "name": "_user",
          "type": "address"
        }
      ],
      "name": "claimFor",
      "outputs": [],
      "stateMutability": "nonpayable",
      "type": "function"
    },
    {
      "inputs": [
        {
          "internalType": "uint256",
          "name": "_pid",
          "type": "uint256"
        },
        {
          "internalType": "uint256",
          "name": "_amount",
          "type": "uint256"
        }
      ],
      "name": "deposit",
      "outputs": [],
      "stateMutability": "nonpayable",
      "type": "function"
    },
    {
      "inputs": [
        {
          "internalType": "uint256",
          "name": "_pid",
          "type": "uint256"
        },
        {
          "internalType": "uint256",
          "name": "_amount",
          "type": "uint256"
        },
        {
          "internalType": "address",
          "name": "_user",
          "type": "address"
        }
      ],
      "name": "depositFor",
      "outputs": [],
      "stateMutability": "nonpayable",
      "type": "function"
    },
    {
      "inputs": [],
      "name": "dev",
      "outputs": [
        {
          "internalType": "address",
          "name": "",
          "type": "address"
        }
      ],
      "stateMutability": "view",
      "type": "function"
    },
    {
      "inputs": [],
      "name": "massUpdatePools",
      "outputs": [],
      "stateMutability": "nonpayable",
      "type": "function"
    },
    {
      "inputs": [],
      "name": "mintFee",
      "outputs": [
        {
          "internalType": "uint32",
          "name": "",
          "type": "uint32"
        }
      ],
      "stateMutability": "view",
      "type": "function"
    },
    {
      "inputs": [],
      "name": "mintPercentPerDay",
      "outputs": [
        {
          "internalType": "uint32",
          "name": "",
          "type": "uint32"
        }
      ],
      "stateMutability": "view",
      "type": "function"
    },
    {
      "inputs": [],
      "name": "owner",
      "outputs": [
        {
          "internalType": "address",
          "name": "",
          "type": "address"
        }
      ],
      "stateMutability": "view",
      "type": "function"
    },
    {
      "inputs": [
        {
          "internalType": "uint256",
          "name": "_pid",
          "type": "uint256"
        },
        {
          "internalType": "address",
          "name": "_user",
          "type": "address"
        }
      ],
      "name": "pendingRewards",
      "outputs": [
        {
          "internalType": "uint256",
          "name": "",
          "type": "uint256"
        }
      ],
      "stateMutability": "view",
      "type": "function"
    },
    {
      "inputs": [
        {
          "internalType": "uint256",
          "name": "",
          "type": "uint256"
        }
      ],
      "name": "poolInfo",
      "outputs": [
        {
          "internalType": "contract IERC20",
          "name": "lpToken",
          "type": "address"
        },
        {
          "internalType": "uint256",
          "name": "allocPoint",
          "type": "uint256"
        },
        {
          "internalType": "uint256",
          "name": "lastRewardBlock",
          "type": "uint256"
        },
        {
          "internalType": "uint256",
          "name": "accPerShare",
          "type": "uint256"
        }
      ],
      "stateMutability": "view",
      "type": "function"
    },
    {
      "inputs": [],
      "name": "poolLength",
      "outputs": [
        {
          "internalType": "uint256",
          "name": "",
          "type": "uint256"
        }
      ],
      "stateMutability": "view",
      "type": "function"
    },
    {
      "inputs": [],
      "name": "prLab",
      "outputs": [
        {
          "internalType": "contract IERC20BurnableMinter",
          "name": "",
          "type": "address"
        }
      ],
      "stateMutability": "view",
      "type": "function"
    },
    {
      "inputs": [],
      "name": "renounceOwnership",
      "outputs": [],
      "stateMutability": "nonpayable",
      "type": "function"
    },
    {
      "inputs": [
        {
          "internalType": "uint256",
          "name": "_pid",
          "type": "uint256"
        },
        {
          "internalType": "uint256",
          "name": "_allocPoint",
          "type": "uint256"
        },
        {
          "internalType": "bool",
          "name": "_withUpdate",
          "type": "bool"
        }
      ],
      "name": "set",
      "outputs": [],
      "stateMutability": "nonpayable",
      "type": "function"
    },
    {
      "inputs": [
        {
          "internalType": "contract IBank",
          "name": "_bank",
          "type": "address"
        }
      ],
      "name": "setBank",
      "outputs": [],
      "stateMutability": "nonpayable",
      "type": "function"
    },
    {
      "inputs": [
        {
          "internalType": "uint32",
          "name": "_mintPercentPerDay",
          "type": "uint32"
        },
        {
          "internalType": "uint256",
          "name": "_blocksPerDay",
          "type": "uint256"
        },
        {
          "internalType": "address",
          "name": "_dev",
          "type": "address"
        },
        {
          "internalType": "uint32",
          "name": "_withdrawFee",
          "type": "uint32"
        },
        {
          "internalType": "uint32",
          "name": "_mintFee",
          "type": "uint32"
        },
        {
          "internalType": "bool",
          "name": "_withUpdate",
          "type": "bool"
        }
      ],
      "name": "setOptions",
      "outputs": [],
      "stateMutability": "nonpayable",
      "type": "function"
    },
    {
      "inputs": [],
      "name": "totalAllocPoint",
      "outputs": [
        {
          "internalType": "uint256",
          "name": "",
          "type": "uint256"
        }
      ],
      "stateMutability": "view",
      "type": "function"
    },
    {
      "inputs": [
        {
          "internalType": "address",
          "name": "newOwner",
          "type": "address"
        }
      ],
      "name": "transferOwnership",
      "outputs": [],
      "stateMutability": "nonpayable",
      "type": "function"
    },
    {
      "inputs": [
        {
          "internalType": "uint256",
          "name": "",
          "type": "uint256"
        },
        {
          "internalType": "address",
          "name": "",
          "type": "address"
        }
      ],
      "name": "userInfo",
      "outputs": [
        {
          "internalType": "uint256",
          "name": "amount",
          "type": "uint256"
        },
        {
          "internalType": "uint256",
          "name": "rewardDebt",
          "type": "uint256"
        }
      ],
      "stateMutability": "view",
      "type": "function"
    },
    {
      "inputs": [
        {
          "internalType": "uint256",
          "name": "_pid",
          "type": "uint256"
        },
        {
          "internalType": "uint256",
          "name": "_amount",
          "type": "uint256"
        }
      ],
      "name": "withdraw",
      "outputs": [],
      "stateMutability": "nonpayable",
      "type": "function"
    },
    {
      "inputs": [],
      "name": "withdrawFee",
      "outputs": [
        {
          "internalType": "uint32",
          "name": "",
          "type": "uint32"
        }
      ],
      "stateMutability": "view",
      "type": "function"
    }
  ],
  "bytecode": "0x60806040526000805460ff60a01b1916815560068190556007805463ffffffff1916905560085560098054600160a01b600160e01b03191690553480156200004657600080fd5b5060405162001e7b38038062001e7b83398101604081905262000069916200010f565b6200007433620000a6565b600180546001600160a01b039384166001600160a01b031991821617909155600280549290931691161790556200014e565b600080546001600160a01b038381166001600160a01b0319831681178455604051919092169283917f8be0079c531659141344cd1fd0a4f28419497f9722a3daafe3b4186f6b6457e09190a35050565b6001600160a01b03811681146200010c57600080fd5b50565b600080604083850312156200012357600080fd5b82516200013081620000f6565b60208401519092506200014381620000f6565b809150509250929050565b611d1d806200015e6000396000f3fe608060405234801561001057600080fd5b506004361061016e5760003560e01c8063715018a6116100ce578063d18df53c11610087578063d18df53c1461033a578063d82debb81461034d578063daf5c8bb1461035d578063e2bbb15814610370578063e7d7ebd714610383578063e941fa7814610396578063f2fde38b146103ad57600080fd5b8063715018a6146102a157806376cdb03b146102a95780638da5cb5b146102bc57806390210d7e146102cd57806391cca3db146102e057806393f1a40b146102f357600080fd5b806317caf6f11161012b57806317caf6f11461023b5780631eaaa04514610244578063379607f514610257578063441a3e701461026a5780634cfea68a1461027d578063630b5ba11461028657806364482f791461028e57600080fd5b8063081e3eda14610173578063090d23b91461018a5780630ac1ab9f1461019f57806310ee3f00146101bf57806313966db5146101d25780631526fe27146101fe575b600080fd5b6004545b6040519081526020015b60405180910390f35b61019d61019836600461198b565b6103c0565b005b6001546101b2906001600160a01b031681565b60405161018191906119af565b61019d6101cd3660046119c3565b61044a565b6009546101e990600160c01b900463ffffffff1681565b60405163ffffffff9091168152602001610181565b61021161020c3660046119f3565b6105cf565b604080516001600160a01b0390951685526020850193909352918301526060820152608001610181565b61017760065481565b61019d610252366004611a1a565b610613565b61019d6102653660046119f3565b610790565b61019d610278366004611a5c565b61079d565b61017760085481565b61019d610a8e565b61019d61029c366004611a7e565b610b2c565b61019d610bb3565b6003546101b2906001600160a01b031681565b6000546001600160a01b03166101b2565b61019d6102db366004611aac565b610bc7565b6009546101b2906001600160a01b031681565b6103256103013660046119c3565b60056020908152600092835260408084209091529082529020805460019091015482565b60408051928352602083019190915201610181565b6101776103483660046119c3565b610d36565b6007546101e99063ffffffff1681565b61019d61036b366004611af3565b610f3f565b61019d61037e366004611a5c565b6111ca565b6002546101b2906001600160a01b031681565b6009546101e990600160a01b900463ffffffff1681565b61019d6103bb36600461198b565b6111d9565b6103c861124f565b600054600160a01b900460ff16156104145760405162461bcd60e51b815260206004820152600a602482015269105b1c9958591e54d95d60b21b60448201526064015b60405180910390fd5b600380546001600160a01b039092166001600160a01b03199092169190911790556000805460ff60a01b1916600160a01b179055565b60006004838154811061045f5761045f611b66565b600091825260208083208684526005825260408085206001600160a01b038816865290925292208054600490920290920192506104da5760405162461bcd60e51b815260206004820152601960248201527814dd185ad9541bdbdb0e8818db185a5b481b9bdd0819dbdbd9603a1b604482015260640161040b565b61055a84600160009054906101000a90046001600160a01b03166001600160a01b03166318160ddd6040518163ffffffff1660e01b8152600401602060405180830381865afa158015610531573d6000803e3d6000fd5b505050506040513d601f19601f820116820180604052508101906105559190611b7c565b6112a9565b6000816001015464e8d4a510008460030154846000015461057b9190611bab565b6105859190611bca565b61058f9190611bec565b905080156105c8576105a18482611520565b6003830154825464e8d4a51000916105b891611bab565b6105c29190611bca565b60018301555b5050505050565b600481815481106105df57600080fd5b600091825260209091206004909102018054600182015460028301546003909301546001600160a01b039092169350919084565b61061b61124f565b60045461067f576001546001600160a01b0383811691161461067f5760405162461bcd60e51b815260206004820152601b60248201527f5374616b65506f6f6c3a20696e76616c6964206c7020746f6b656e0000000000604482015260640161040b565b801561068d5761068d610a8e565b8260065461069b9190611c03565b60065550604080516080810182526001600160a01b0392831681526020810193845243918101918252600060608201818152600480546001810182559281905292517f8a35acfbc15ff81a39ae7d344fd709f28e8600b4aa8c65c6b64bfe7fe36bd19b9290930291820180546001600160a01b031916939095169290921790935592517f8a35acfbc15ff81a39ae7d344fd709f28e8600b4aa8c65c6b64bfe7fe36bd19c830155517f8a35acfbc15ff81a39ae7d344fd709f28e8600b4aa8c65c6b64bfe7fe36bd19d82015590517f8a35acfbc15ff81a39ae7d344fd709f28e8600b4aa8c65c6b64bfe7fe36bd19e90910155565b61079a813361044a565b50565b6000600483815481106107b2576107b2611b66565b60009182526020808320868452600582526040808520338652909252922080546004909202909201925083111561082b5760405162461bcd60e51b815260206004820152601c60248201527f5374616b65506f6f6c3a207769746864726177206e6f7420676f6f6400000000604482015260640161040b565b61088284600160009054906101000a90046001600160a01b03166001600160a01b03166318160ddd6040518163ffffffff1660e01b8152600401602060405180830381865afa158015610531573d6000803e3d6000fd5b6000816001015464e8d4a51000846003015484600001546108a39190611bab565b6108ad9190611bca565b6108b79190611bec565b905080156108c9576108c93382611520565b6000856109d157600354835460405163e6e8413f60e01b81526000926001600160a01b03169163e6e8413f91610903913391600401611c1b565b602060405180830381865afa158015610920573d6000803e3d6000fd5b505050506040513d601f19601f820116820180604052508101906109449190611b7c565b9050858110156109a55760405162461bcd60e51b815260206004820152602660248201527f5374616b65506f6f6c3a20616d6f756e74206578636565647320776974686472604482015265617761626c6560d01b606482015260840161040b565b600954612710906109c390600160a01b900463ffffffff1688611bab565b6109cd9190611bca565b9150505b82546109de908690611bec565b808455600385015464e8d4a51000916109f79190611bab565b610a019190611bca565b6001840155610a2633610a148388611bec565b86546001600160a01b03169190611649565b6009548454610a42916001600160a01b03918216911683611649565b85337f02f25270a4d87bea75db541cdfe559334a275b4a233520ed6c0a2429667cca94610a6f8489611bec565b60408051918252602082018690520160405180910390a3505050505050565b600154604080516318160ddd60e01b815290516000926001600160a01b0316916318160ddd9160048083019260209291908290030181865afa158015610ad8573d6000803e3d6000fd5b505050506040513d601f19601f82011682018060405250810190610afc9190611b7c565b60045490915060005b81811015610b2757610b1781846112a9565b610b2081611c34565b9050610b05565b505050565b610b3461124f565b8015610b4257610b42610a8e565b8160048481548110610b5657610b56611b66565b906000526020600020906004020160010154600654610b759190611bec565b610b7f9190611c03565b6006819055508160048481548110610b9957610b99611b66565b906000526020600020906004020160010181905550505050565b610bbb61124f565b610bc5600061169f565b565b600060048481548110610bdc57610bdc611b66565b600091825260208083208784526005825260408085206001600160a01b0380891687529084529481902060015482516318160ddd60e01b81529251600496870290940197509095610c53958b9592909116936318160ddd938083019392908290030181865afa158015610531573d6000803e3d6000fd5b805415610ca3576000816001015464e8d4a5100084600301548460000154610c7b9190611bab565b610c859190611bca565b610c8f9190611bec565b90508015610ca157610ca18482611520565b505b8154610cba906001600160a01b03163330876116ef565b8054610cc7908590611c03565b808255600383015464e8d4a5100091610ce09190611bab565b610cea9190611bca565b600182015560405184815285906001600160a01b038516907f90890809c654f11d6e72a28fa60149770a0d11ec6c92319d6ceb2bb0a4ea1a159060200160405180910390a35050505050565b60008060048481548110610d4c57610d4c611b66565b600091825260208083208784526005825260408085206001600160a01b038981168752935280852060049485029092016003810154815492516370a0823160e01b815291975092959294929391909116916370a0823191610daf913091016119af565b602060405180830381865afa158015610dcc573d6000803e3d6000fd5b505050506040513d601f19601f82011682018060405250810190610df09190611b7c565b9050836002015443118015610e0457508015155b15610f07576000600654600854612710610e1e9190611bab565b610e289190611bab565b60018601546002870154610e3c9043611bec565b600754600154604080516318160ddd60e01b8152905163ffffffff909316926001600160a01b03909216916318160ddd916004808201926020929091908290030181865afa158015610e92573d6000803e3d6000fd5b505050506040513d601f19601f82011682018060405250810190610eb69190611b7c565b610ec59064e8d4a51000611bab565b610ecf9190611bab565b610ed99190611bab565b610ee39190611bab565b610eed9190611bca565b9050610ef98282611bca565b610f039084611c03565b9250505b6001830154835464e8d4a5100090610f20908590611bab565b610f2a9190611bca565b610f349190611bec565b979650505050505050565b610f4761124f565b6127108663ffffffff161115610fb15760405162461bcd60e51b815260206004820152602960248201527f5374616b65506f6f6c3a206d696e7450657263656e7450657244617920697320604482015268746f6f206c6172676560b81b606482015260840161040b565b600085116110015760405162461bcd60e51b815260206004820152601f60248201527f5374616b65506f6f6c3a20626c6f636b73506572446179206973207a65726f00604482015260640161040b565b6001600160a01b0384166110575760405162461bcd60e51b815260206004820152601b60248201527f5374616b65506f6f6c3a207a65726f2064657620616464726573730000000000604482015260640161040b565b6127108363ffffffff1611156110af5760405162461bcd60e51b815260206004820152601e60248201527f5374616b65506f6f6c3a20696e76616c69642077697468647261774665650000604482015260640161040b565b6127108263ffffffff1611156111075760405162461bcd60e51b815260206004820152601a60248201527f5374616b65506f6f6c3a20696e76616c6964206d696e74466565000000000000604482015260640161040b565b801561111557611115610a8e565b6007805463ffffffff191663ffffffff8881169182179092556008879055600980546001600160a01b0388166001600160c01b03199091168117600160a01b8886169081029190911763ffffffff60c01b1916600160c01b9588169586021790925560408051938452602084018a9052830152606082015260808101919091527f9eaa45a1177c296c3b7502f3997a57dcc51958ec948ce6ed0b6269b4e50931fb9060a00160405180910390a1505050505050565b6111d5828233610bc7565b5050565b6111e161124f565b6001600160a01b0381166112465760405162461bcd60e51b815260206004820152602660248201527f4f776e61626c653a206e6577206f776e657220697320746865207a65726f206160448201526564647265737360d01b606482015260840161040b565b61079a8161169f565b6000546001600160a01b03163314610bc55760405162461bcd60e51b815260206004820181905260248201527f4f776e61626c653a2063616c6c6572206973206e6f7420746865206f776e6572604482015260640161040b565b6000600483815481106112be576112be611b66565b90600052602060002090600402019050806002015443116112de57505050565b80546040516370a0823160e01b81526000916001600160a01b0316906370a082319061130e9030906004016119af565b602060405180830381865afa15801561132b573d6000803e3d6000fd5b505050506040513d601f19601f8201168201806040525081019061134f9190611b7c565b905080158061135e5750600654155b1561136f5750436002909101555050565b60006006546008546127106113849190611bab565b61138e9190611bab565b600184015460028501546113a29043611bec565b60075463ffffffff166113ba8864e8d4a51000611bab565b6113c49190611bab565b6113ce9190611bab565b6113d89190611bab565b6113e29190611bca565b905060006113f564e8d4a5100083611bca565b6002546009549192506001600160a01b03908116916340c10f19918116906127109061142e90600160c01b900463ffffffff1686611bab565b6114389190611bca565b6040518363ffffffff1660e01b8152600401611455929190611c1b565b600060405180830381600087803b15801561146f57600080fd5b505af1158015611483573d6000803e3d6000fd5b50506002546040516340c10f1960e01b81526001600160a01b0390911692506340c10f1991506114b99030908590600401611c1b565b600060405180830381600087803b1580156114d357600080fd5b505af11580156114e7573d6000803e3d6000fd5b5050505082826114f79190611bca565b84600301600082825461150a9190611c03565b9091555050436002909401939093555050505050565b6002546040516370a0823160e01b81526000916001600160a01b0316906370a08231906115519030906004016119af565b602060405180830381865afa15801561156e573d6000803e3d6000fd5b505050506040513d601f19601f820116820180604052508101906115929190611b7c565b9050808211156116175760025460405163a9059cbb60e01b81526001600160a01b039091169063a9059cbb906115ce9086908590600401611c1b565b6020604051808303816000875af11580156115ed573d6000803e3d6000fd5b505050506040513d601f19601f820116820180604052508101906116119190611c4f565b50505050565b60025460405163a9059cbb60e01b81526001600160a01b039091169063a9059cbb906115ce9086908690600401611c1b565b610b278363a9059cbb60e01b8484604051602401611668929190611c1b565b60408051601f198184030181529190526020810180516001600160e01b03166001600160e01b031990931692909217909152611727565b600080546001600160a01b038381166001600160a01b0319831681178455604051919092169283917f8be0079c531659141344cd1fd0a4f28419497f9722a3daafe3b4186f6b6457e09190a35050565b6040516001600160a01b03808516602483015283166044820152606481018290526116119085906323b872dd60e01b90608401611668565b600061177c826040518060400160405280602081526020017f5361666545524332303a206c6f772d6c6576656c2063616c6c206661696c6564815250856001600160a01b03166117f99092919063ffffffff16565b805190915015610b27578080602001905181019061179a9190611c4f565b610b275760405162461bcd60e51b815260206004820152602a60248201527f5361666545524332303a204552433230206f7065726174696f6e20646964206e6044820152691bdd081cdd58d8d9595960b21b606482015260840161040b565b60606118088484600085611810565b949350505050565b6060824710156118715760405162461bcd60e51b815260206004820152602660248201527f416464726573733a20696e73756666696369656e742062616c616e636520666f6044820152651c8818d85b1b60d21b606482015260840161040b565b600080866001600160a01b0316858760405161188d9190611c98565b60006040518083038185875af1925050503d80600081146118ca576040519150601f19603f3d011682016040523d82523d6000602084013e6118cf565b606091505b5091509150610f348783838760608315611947578251611940576001600160a01b0385163b6119405760405162461bcd60e51b815260206004820152601d60248201527f416464726573733a2063616c6c20746f206e6f6e2d636f6e7472616374000000604482015260640161040b565b5081611808565b611808838381511561195c5781518083602001fd5b8060405162461bcd60e51b815260040161040b9190611cb4565b6001600160a01b038116811461079a57600080fd5b60006020828403121561199d57600080fd5b81356119a881611976565b9392505050565b6001600160a01b0391909116815260200190565b600080604083850312156119d657600080fd5b8235915060208301356119e881611976565b809150509250929050565b600060208284031215611a0557600080fd5b5035919050565b801515811461079a57600080fd5b600080600060608486031215611a2f57600080fd5b833592506020840135611a4181611976565b91506040840135611a5181611a0c565b809150509250925092565b60008060408385031215611a6f57600080fd5b50508035926020909101359150565b600080600060608486031215611a9357600080fd5b83359250602084013591506040840135611a5181611a0c565b600080600060608486031215611ac157600080fd5b83359250602084013591506040840135611a5181611976565b803563ffffffff81168114611aee57600080fd5b919050565b60008060008060008060c08789031215611b0c57600080fd5b611b1587611ada565b9550602087013594506040870135611b2c81611976565b9350611b3a60608801611ada565b9250611b4860808801611ada565b915060a0870135611b5881611a0c565b809150509295509295509295565b634e487b7160e01b600052603260045260246000fd5b600060208284031215611b8e57600080fd5b5051919050565b634e487b7160e01b600052601160045260246000fd5b6000816000190483118215151615611bc557611bc5611b95565b500290565b600082611be757634e487b7160e01b600052601260045260246000fd5b500490565b600082821015611bfe57611bfe611b95565b500390565b60008219821115611c1657611c16611b95565b500190565b6001600160a01b03929092168252602082015260400190565b6000600019821415611c4857611c48611b95565b5060010190565b600060208284031215611c6157600080fd5b81516119a881611a0c565b60005b83811015611c87578181015183820152602001611c6f565b838111156116115750506000910152565b60008251611caa818460208701611c6c565b9190910192915050565b6020815260008251806020840152611cd3816040850160208701611c6c565b601f01601f1916919091016040019291505056fea264697066735822122009bc4f9a95ecd722fcdb0577c68a45c6e0b3dc673370a80b18d923decbdac84664736f6c634300080c0033",
  "linkReferences": {},
  "deployedLinkReferences": {}
}