{
  "_format": "hh-sol-artifact-1",
  "contractName": "Market",
  "sourceName": "contracts/Market.sol",
  "abi": [
    {
      "inputs": [
        {
          "internalType": "contract IERC20BurnableMinter",
          "name": "_Lab",
          "type": "address"
        },
        {
          "internalType": "contract IERC20BurnableMinter",
          "name": "_prLab",
          "type": "address"
        },
        {
          "internalType": "contract IStakePool",
          "name": "_pool",
          "type": "address"
        },
        {
          "internalType": "address",
          "name": "bank",
          "type": "address"
        },
        {
          "internalType": "uint256",
          "name": "_k",
          "type": "uint256"
        },
        {
          "internalType": "uint32",
          "name": "_target",
          "type": "uint32"
        },
        {
          "internalType": "uint32",
          "name": "_targetAdjusted",
          "type": "uint32"
        },
        {
          "internalType": "address",
          "name": "buyback",
          "type": "address"
        },
        {
          "internalType": "address[]",
          "name": "_stablecoins",
          "type": "address[]"
        }
      ],
      "stateMutability": "nonpayable",
      "type": "constructor"
    },
    {
      "anonymous": false,
      "inputs": [
        {
          "indexed": false,
          "internalType": "uint256",
          "name": "c",
          "type": "uint256"
        },
        {
          "indexed": false,
          "internalType": "uint256",
          "name": "f",
          "type": "uint256"
        },
        {
          "indexed": false,
          "internalType": "uint256",
          "name": "p",
          "type": "uint256"
        }
      ],
      "name": "Adjust",
      "type": "event"
    },
    {
      "anonymous": false,
      "inputs": [
        {
          "indexed": false,
          "internalType": "uint32",
          "name": "minTarget",
          "type": "uint32"
        },
        {
          "indexed": false,
          "internalType": "uint32",
          "name": "maxTargetAdjusted",
          "type": "uint32"
        },
        {
          "indexed": false,
          "internalType": "uint32",
          "name": "raiseStep",
          "type": "uint32"
        },
        {
          "indexed": false,
          "internalType": "uint32",
          "name": "lowerStep",
          "type": "uint32"
        },
        {
          "indexed": false,
          "internalType": "uint32",
          "name": "lowerInterval",
          "type": "uint32"
        }
      ],
      "name": "AdjustOptionsChanged",
      "type": "event"
    },
    {
      "anonymous": false,
      "inputs": [
        {
          "indexed": true,
          "internalType": "address",
          "name": "user",
          "type": "address"
        },
        {
          "indexed": false,
          "internalType": "uint256",
          "name": "amount",
          "type": "uint256"
        }
      ],
      "name": "Burn",
      "type": "event"
    },
    {
      "anonymous": false,
      "inputs": [
        {
          "indexed": true,
          "internalType": "address",
          "name": "from",
          "type": "address"
        },
        {
          "indexed": true,
          "internalType": "address",
          "name": "token",
          "type": "address"
        },
        {
          "indexed": false,
          "internalType": "uint256",
          "name": "input",
          "type": "uint256"
        },
        {
          "indexed": false,
          "internalType": "uint256",
          "name": "output",
          "type": "uint256"
        },
        {
          "indexed": false,
          "internalType": "uint256",
          "name": "fee",
          "type": "uint256"
        }
      ],
      "name": "Buy",
      "type": "event"
    },
    {
      "anonymous": false,
      "inputs": [
        {
          "indexed": false,
          "internalType": "address",
          "name": "dev",
          "type": "address"
        },
        {
          "indexed": false,
          "internalType": "uint32",
          "name": "buyFee",
          "type": "uint32"
        },
        {
          "indexed": false,
          "internalType": "uint32",
          "name": "sellFee",
          "type": "uint32"
        }
      ],
      "name": "FeeOptionsChanged",
      "type": "event"
    },
    {
      "anonymous": false,
      "inputs": [
        {
          "indexed": false,
          "internalType": "uint256",
          "name": "target",
          "type": "uint256"
        },
        {
          "indexed": false,
          "internalType": "uint256",
          "name": "targetAdjusted",
          "type": "uint256"
        }
      ],
      "name": "Lower",
      "type": "event"
    },
    {
      "anonymous": false,
      "inputs": [
        {
          "indexed": false,
          "internalType": "address",
          "name": "account",
          "type": "address"
        }
      ],
      "name": "Paused",
      "type": "event"
    },
    {
      "anonymous": false,
      "inputs": [
        {
          "indexed": false,
          "internalType": "address",
          "name": "trigger",
          "type": "address"
        },
        {
          "indexed": false,
          "internalType": "uint256",
          "name": "target",
          "type": "uint256"
        },
        {
          "indexed": false,
          "internalType": "uint256",
          "name": "targetAdjusted",
          "type": "uint256"
        }
      ],
      "name": "Raise",
      "type": "event"
    },
    {
      "anonymous": false,
      "inputs": [
        {
          "indexed": true,
          "internalType": "address",
          "name": "from",
          "type": "address"
        },
        {
          "indexed": true,
          "internalType": "address",
          "name": "token",
          "type": "address"
        },
        {
          "indexed": false,
          "internalType": "uint256",
          "name": "input",
          "type": "uint256"
        },
        {
          "indexed": false,
          "internalType": "uint256",
          "name": "output",
          "type": "uint256"
        }
      ],
      "name": "Realize",
      "type": "event"
    },
    {
      "anonymous": false,
      "inputs": [
        {
          "indexed": true,
          "internalType": "bytes32",
          "name": "role",
          "type": "bytes32"
        },
        {
          "indexed": true,
          "internalType": "bytes32",
          "name": "previousAdminRole",
          "type": "bytes32"
        },
        {
          "indexed": true,
          "internalType": "bytes32",
          "name": "newAdminRole",
          "type": "bytes32"
        }
      ],
      "name": "RoleAdminChanged",
      "type": "event"
    },
    {
      "anonymous": false,
      "inputs": [
        {
          "indexed": true,
          "internalType": "bytes32",
          "name": "role",
          "type": "bytes32"
        },
        {
          "indexed": true,
          "internalType": "address",
          "name": "account",
          "type": "address"
        },
        {
          "indexed": true,
          "internalType": "address",
          "name": "sender",
          "type": "address"
        }
      ],
      "name": "RoleGranted",
      "type": "event"
    },
    {
      "anonymous": false,
      "inputs": [
        {
          "indexed": true,
          "internalType": "bytes32",
          "name": "role",
          "type": "bytes32"
        },
        {
          "indexed": true,
          "internalType": "address",
          "name": "account",
          "type": "address"
        },
        {
          "indexed": true,
          "internalType": "address",
          "name": "sender",
          "type": "address"
        }
      ],
      "name": "RoleRevoked",
      "type": "event"
    },
    {
      "anonymous": false,
      "inputs": [
        {
          "indexed": true,
          "internalType": "address",
          "name": "from",
          "type": "address"
        },
        {
          "indexed": true,
          "internalType": "address",
          "name": "token",
          "type": "address"
        },
        {
          "indexed": false,
          "internalType": "uint256",
          "name": "input",
          "type": "uint256"
        },
        {
          "indexed": false,
          "internalType": "uint256",
          "name": "output",
          "type": "uint256"
        },
        {
          "indexed": false,
          "internalType": "uint256",
          "name": "fee",
          "type": "uint256"
        }
      ],
      "name": "Sell",
      "type": "event"
    },
    {
      "anonymous": false,
      "inputs": [
        {
          "indexed": false,
          "internalType": "address",
          "name": "token",
          "type": "address"
        },
        {
          "indexed": false,
          "internalType": "bool",
          "name": "buyOrSell",
          "type": "bool"
        },
        {
          "indexed": false,
          "internalType": "bool",
          "name": "addOrDelete",
          "type": "bool"
        }
      ],
      "name": "StablecoinsChanged",
      "type": "event"
    },
    {
      "anonymous": false,
      "inputs": [
        {
          "indexed": false,
          "internalType": "address",
          "name": "account",
          "type": "address"
        }
      ],
      "name": "Unpaused",
      "type": "event"
    },
    {
      "inputs": [],
      "name": "DEFAULT_ADMIN_ROLE",
      "outputs": [
        {
          "internalType": "bytes32",
          "name": "",
          "type": "bytes32"
        }
      ],
      "stateMutability": "view",
      "type": "function"
    },
    {
      "inputs": [],
      "name": "Lab",
      "outputs": [
        {
          "internalType": "contract IERC20BurnableMinter",
          "name": "",
          "type": "address"
        }
      ],
      "stateMutability": "view",
      "type": "function"
    },
    {
      "inputs": [],
      "name": "MANAGER_ROLE",
      "outputs": [
        {
          "internalType": "bytes32",
          "name": "",
          "type": "bytes32"
        }
      ],
      "stateMutability": "view",
      "type": "function"
    },
    {
      "inputs": [],
      "name": "STARTUP_ROLE",
      "outputs": [
        {
          "internalType": "bytes32",
          "name": "",
          "type": "bytes32"
        }
      ],
      "stateMutability": "view",
      "type": "function"
    },
    {
      "inputs": [
        {
          "internalType": "uint256",
          "name": "amount",
          "type": "uint256"
        }
      ],
      "name": "burn",
      "outputs": [],
      "stateMutability": "nonpayable",
      "type": "function"
    },
    {
      "inputs": [
        {
          "internalType": "uint256",
          "name": "amount",
          "type": "uint256"
        },
        {
          "internalType": "address",
          "name": "user",
          "type": "address"
        }
      ],
      "name": "burnFor",
      "outputs": [],
      "stateMutability": "nonpayable",
      "type": "function"
    },
    {
      "inputs": [
        {
          "internalType": "address",
          "name": "token",
          "type": "address"
        },
        {
          "internalType": "uint256",
          "name": "tokenWorth",
          "type": "uint256"
        },
        {
          "internalType": "uint256",
          "name": "desired",
          "type": "uint256"
        }
      ],
      "name": "buy",
      "outputs": [
        {
          "internalType": "uint256",
          "name": "",
          "type": "uint256"
        },
        {
          "internalType": "uint256",
          "name": "",
          "type": "uint256"
        }
      ],
      "stateMutability": "nonpayable",
      "type": "function"
    },
    {
      "inputs": [],
      "name": "buyFee",
      "outputs": [
        {
          "internalType": "uint32",
          "name": "",
          "type": "uint32"
        }
      ],
      "stateMutability": "view",
      "type": "function"
    },
    {
      "inputs": [
        {
          "internalType": "address",
          "name": "token",
          "type": "address"
        },
        {
          "internalType": "uint256",
          "name": "tokenWorth",
          "type": "uint256"
        },
        {
          "internalType": "uint256",
          "name": "desired",
          "type": "uint256"
        },
        {
          "internalType": "address",
          "name": "user",
          "type": "address"
        }
      ],
      "name": "buyFor",
      "outputs": [
        {
          "internalType": "uint256",
          "name": "",
          "type": "uint256"
        },
        {
          "internalType": "uint256",
          "name": "",
          "type": "uint256"
        }
      ],
      "stateMutability": "nonpayable",
      "type": "function"
    },
    {
      "inputs": [],
      "name": "c",
      "outputs": [
        {
          "internalType": "uint256",
          "name": "",
          "type": "uint256"
        }
      ],
      "stateMutability": "view",
      "type": "function"
    },
    {
      "inputs": [],
      "name": "currentFundingRatio",
      "outputs": [
        {
          "internalType": "uint256",
          "name": "numerator",
          "type": "uint256"
        },
        {
          "internalType": "uint256",
          "name": "denominator",
          "type": "uint256"
        }
      ],
      "stateMutability": "view",
      "type": "function"
    },
    {
      "inputs": [],
      "name": "dev",
      "outputs": [
        {
          "internalType": "address",
          "name": "",
          "type": "address"
        }
      ],
      "stateMutability": "view",
      "type": "function"
    },
    {
      "inputs": [
        {
          "internalType": "uint256",
          "name": "_k",
          "type": "uint256"
        },
        {
          "internalType": "uint256",
          "name": "_tar",
          "type": "uint256"
        },
        {
          "internalType": "uint256",
          "name": "_w",
          "type": "uint256"
        },
        {
          "internalType": "uint256",
          "name": "_t",
          "type": "uint256"
        }
      ],
      "name": "estimateAdjust",
      "outputs": [
        {
          "internalType": "bool",
          "name": "success",
          "type": "bool"
        },
        {
          "internalType": "uint256",
          "name": "_c",
          "type": "uint256"
        },
        {
          "internalType": "uint256",
          "name": "_f",
          "type": "uint256"
        },
        {
          "internalType": "uint256",
          "name": "_p",
          "type": "uint256"
        }
      ],
      "stateMutability": "pure",
      "type": "function"
    },
    {
      "inputs": [
        {
          "internalType": "address",
          "name": "token",
          "type": "address"
        },
        {
          "internalType": "uint256",
          "name": "tokenWorth",
          "type": "uint256"
        }
      ],
      "name": "estimateBuy",
      "outputs": [
        {
          "internalType": "uint256",
          "name": "amount",
          "type": "uint256"
        },
        {
          "internalType": "uint256",
          "name": "fee",
          "type": "uint256"
        },
        {
          "internalType": "uint256",
          "name": "worth1e18",
          "type": "uint256"
        },
        {
          "internalType": "uint256",
          "name": "newPrice",
          "type": "uint256"
        }
      ],
      "stateMutability": "view",
      "type": "function"
    },
    {
      "inputs": [
        {
          "internalType": "uint256",
          "name": "_f",
          "type": "uint256"
        },
        {
          "internalType": "uint256",
          "name": "_k",
          "type": "uint256"
        },
        {
          "internalType": "uint256",
          "name": "_p",
          "type": "uint256"
        },
        {
          "internalType": "uint256",
          "name": "_tar",
          "type": "uint256"
        },
        {
          "internalType": "uint256",
          "name": "_tarAdjusted",
          "type": "uint256"
        }
      ],
      "name": "estimateRaisePrice",
      "outputs": [
        {
          "internalType": "bool",
          "name": "success",
          "type": "bool"
        },
        {
          "internalType": "uint256",
          "name": "_t",
          "type": "uint256"
        },
        {
          "internalType": "uint256",
          "name": "_c",
          "type": "uint256"
        },
        {
          "internalType": "uint256",
          "name": "_w",
          "type": "uint256"
        },
        {
          "internalType": "uint256",
          "name": "raisedFloorPrice",
          "type": "uint256"
        }
      ],
      "stateMutability": "pure",
      "type": "function"
    },
    {
      "inputs": [],
      "name": "estimateRaisePrice",
      "outputs": [
        {
          "internalType": "bool",
          "name": "success",
          "type": "bool"
        },
        {
          "internalType": "uint256",
          "name": "_t",
          "type": "uint256"
        },
        {
          "internalType": "uint256",
          "name": "_c",
          "type": "uint256"
        },
        {
          "internalType": "uint256",
          "name": "_w",
          "type": "uint256"
        },
        {
          "internalType": "uint256",
          "name": "raisedFloorPrice",
          "type": "uint256"
        }
      ],
      "stateMutability": "view",
      "type": "function"
    },
    {
      "inputs": [
        {
          "internalType": "uint256",
          "name": "amount",
          "type": "uint256"
        },
        {
          "internalType": "address",
          "name": "token",
          "type": "address"
        }
      ],
      "name": "estimateRealize",
      "outputs": [
        {
          "internalType": "uint256",
          "name": "worth1e18",
          "type": "uint256"
        },
        {
          "internalType": "uint256",
          "name": "worth",
          "type": "uint256"
        }
      ],
      "stateMutability": "view",
      "type": "function"
    },
    {
      "inputs": [
        {
          "internalType": "uint256",
          "name": "amount",
          "type": "uint256"
        },
        {
          "internalType": "address",
          "name": "token",
          "type": "address"
        }
      ],
      "name": "estimateSell",
      "outputs": [
        {
          "internalType": "uint256",
          "name": "fee",
          "type": "uint256"
        },
        {
          "internalType": "uint256",
          "name": "worth1e18",
          "type": "uint256"
        },
        {
          "internalType": "uint256",
          "name": "worth",
          "type": "uint256"
        },
        {
          "internalType": "uint256",
          "name": "newPrice",
          "type": "uint256"
        }
      ],
      "stateMutability": "view",
      "type": "function"
    },
    {
      "inputs": [],
      "name": "f",
      "outputs": [
        {
          "internalType": "uint256",
          "name": "",
          "type": "uint256"
        }
      ],
      "stateMutability": "view",
      "type": "function"
    },
    {
      "inputs": [
        {
          "internalType": "bytes32",
          "name": "role",
          "type": "bytes32"
        }
      ],
      "name": "getRoleAdmin",
      "outputs": [
        {
          "internalType": "bytes32",
          "name": "",
          "type": "bytes32"
        }
      ],
      "stateMutability": "view",
      "type": "function"
    },
    {
      "inputs": [
        {
          "internalType": "bytes32",
          "name": "role",
          "type": "bytes32"
        },
        {
          "internalType": "uint256",
          "name": "index",
          "type": "uint256"
        }
      ],
      "name": "getRoleMember",
      "outputs": [
        {
          "internalType": "address",
          "name": "",
          "type": "address"
        }
      ],
      "stateMutability": "view",
      "type": "function"
    },
    {
      "inputs": [
        {
          "internalType": "bytes32",
          "name": "role",
          "type": "bytes32"
        }
      ],
      "name": "getRoleMemberCount",
      "outputs": [
        {
          "internalType": "uint256",
          "name": "",
          "type": "uint256"
        }
      ],
      "stateMutability": "view",
      "type": "function"
    },
    {
      "inputs": [
        {
          "internalType": "bytes32",
          "name": "role",
          "type": "bytes32"
        },
        {
          "internalType": "address",
          "name": "account",
          "type": "address"
        }
      ],
      "name": "grantRole",
      "outputs": [],
      "stateMutability": "nonpayable",
      "type": "function"
    },
    {
      "inputs": [
        {
          "internalType": "bytes32",
          "name": "role",
          "type": "bytes32"
        },
        {
          "internalType": "address",
          "name": "account",
          "type": "address"
        }
      ],
      "name": "hasRole",
      "outputs": [
        {
          "internalType": "bool",
          "name": "",
          "type": "bool"
        }
      ],
      "stateMutability": "view",
      "type": "function"
    },
    {
      "inputs": [],
      "name": "k",
      "outputs": [
        {
          "internalType": "uint256",
          "name": "",
          "type": "uint256"
        }
      ],
      "stateMutability": "view",
      "type": "function"
    },
    {
      "inputs": [],
      "name": "latestUpdateTimestamp",
      "outputs": [
        {
          "internalType": "uint256",
          "name": "",
          "type": "uint256"
        }
      ],
      "stateMutability": "view",
      "type": "function"
    },
    {
      "inputs": [],
      "name": "lowerAndAdjust",
      "outputs": [],
      "stateMutability": "nonpayable",
      "type": "function"
    },
    {
      "inputs": [],
      "name": "lowerInterval",
      "outputs": [
        {
          "internalType": "uint32",
          "name": "",
          "type": "uint32"
        }
      ],
      "stateMutability": "view",
      "type": "function"
    },
    {
      "inputs": [],
      "name": "lowerStep",
      "outputs": [
        {
          "internalType": "uint32",
          "name": "",
          "type": "uint32"
        }
      ],
      "stateMutability": "view",
      "type": "function"
    },
    {
      "inputs": [],
      "name": "maxTargetAdjusted",
      "outputs": [
        {
          "internalType": "uint32",
          "name": "",
          "type": "uint32"
        }
      ],
      "stateMutability": "view",
      "type": "function"
    },
    {
      "inputs": [],
      "name": "minTarget",
      "outputs": [
        {
          "internalType": "uint32",
          "name": "",
          "type": "uint32"
        }
      ],
      "stateMutability": "view",
      "type": "function"
    },
    {
      "inputs": [],
      "name": "p",
      "outputs": [
        {
          "internalType": "uint256",
          "name": "",
          "type": "uint256"
        }
      ],
      "stateMutability": "view",
      "type": "function"
    },
    {
      "inputs": [],
      "name": "pause",
      "outputs": [],
      "stateMutability": "nonpayable",
      "type": "function"
    },
    {
      "inputs": [],
      "name": "paused",
      "outputs": [
        {
          "internalType": "bool",
          "name": "",
          "type": "bool"
        }
      ],
      "stateMutability": "view",
      "type": "function"
    },
    {
      "inputs": [],
      "name": "pool",
      "outputs": [
        {
          "internalType": "contract IStakePool",
          "name": "",
          "type": "address"
        }
      ],
      "stateMutability": "view",
      "type": "function"
    },
    {
      "inputs": [],
      "name": "prLab",
      "outputs": [
        {
          "internalType": "contract IERC20BurnableMinter",
          "name": "",
          "type": "address"
        }
      ],
      "stateMutability": "view",
      "type": "function"
    },
    {
      "inputs": [],
      "name": "raiseStep",
      "outputs": [
        {
          "internalType": "uint32",
          "name": "",
          "type": "uint32"
        }
      ],
      "stateMutability": "view",
      "type": "function"
    },
    {
      "inputs": [
        {
          "internalType": "uint256",
          "name": "amount",
          "type": "uint256"
        },
        {
          "internalType": "address",
          "name": "token",
          "type": "address"
        },
        {
          "internalType": "uint256",
          "name": "desired",
          "type": "uint256"
        }
      ],
      "name": "realize",
      "outputs": [
        {
          "internalType": "uint256",
          "name": "",
          "type": "uint256"
        }
      ],
      "stateMutability": "nonpayable",
      "type": "function"
    },
    {
      "inputs": [
        {
          "internalType": "uint256",
          "name": "amount",
          "type": "uint256"
        },
        {
          "internalType": "address",
          "name": "token",
          "type": "address"
        },
        {
          "internalType": "uint256",
          "name": "desired",
          "type": "uint256"
        },
        {
          "internalType": "address",
          "name": "user",
          "type": "address"
        }
      ],
      "name": "realizeFor",
      "outputs": [
        {
          "internalType": "uint256",
          "name": "",
          "type": "uint256"
        }
      ],
      "stateMutability": "nonpayable",
      "type": "function"
    },
    {
      "inputs": [
        {
          "internalType": "bytes32",
          "name": "role",
          "type": "bytes32"
        },
        {
          "internalType": "address",
          "name": "account",
          "type": "address"
        }
      ],
      "name": "renounceRole",
      "outputs": [],
      "stateMutability": "nonpayable",
      "type": "function"
    },
    {
      "inputs": [
        {
          "internalType": "bytes32",
          "name": "role",
          "type": "bytes32"
        },
        {
          "internalType": "address",
          "name": "account",
          "type": "address"
        }
      ],
      "name": "revokeRole",
      "outputs": [],
      "stateMutability": "nonpayable",
      "type": "function"
    },
    {
      "inputs": [
        {
          "internalType": "uint256",
          "name": "amount",
          "type": "uint256"
        },
        {
          "internalType": "address",
          "name": "token",
          "type": "address"
        },
        {
          "internalType": "uint256",
          "name": "desired",
          "type": "uint256"
        }
      ],
      "name": "sell",
      "outputs": [
        {
          "internalType": "uint256",
          "name": "",
          "type": "uint256"
        },
        {
          "internalType": "uint256",
          "name": "",
          "type": "uint256"
        }
      ],
      "stateMutability": "nonpayable",
      "type": "function"
    },
    {
      "inputs": [],
      "name": "sellFee",
      "outputs": [
        {
          "internalType": "uint32",
          "name": "",
          "type": "uint32"
        }
      ],
      "stateMutability": "view",
      "type": "function"
    },
    {
      "inputs": [
        {
          "internalType": "uint256",
          "name": "amount",
          "type": "uint256"
        },
        {
          "internalType": "address",
          "name": "token",
          "type": "address"
        },
        {
          "internalType": "uint256",
          "name": "desired",
          "type": "uint256"
        },
        {
          "internalType": "address",
          "name": "user",
          "type": "address"
        }
      ],
      "name": "sellFor",
      "outputs": [
        {
          "internalType": "uint256",
          "name": "",
          "type": "uint256"
        },
        {
          "internalType": "uint256",
          "name": "",
          "type": "uint256"
        }
      ],
      "stateMutability": "nonpayable",
      "type": "function"
    },
    {
      "inputs": [
        {
          "internalType": "uint32",
          "name": "_minTarget",
          "type": "uint32"
        },
        {
          "internalType": "uint32",
          "name": "_maxTargetAdjusted",
          "type": "uint32"
        },
        {
          "internalType": "uint32",
          "name": "_raiseStep",
          "type": "uint32"
        },
        {
          "internalType": "uint32",
          "name": "_lowerStep",
          "type": "uint32"
        },
        {
          "internalType": "uint32",
          "name": "_lowerInterval",
          "type": "uint32"
        }
      ],
      "name": "setAdjustOptions",
      "outputs": [],
      "stateMutability": "nonpayable",
      "type": "function"
    },
    {
      "inputs": [
        {
          "internalType": "address",
          "name": "_dev",
          "type": "address"
        },
        {
          "internalType": "uint32",
          "name": "_buyFee",
          "type": "uint32"
        },
        {
          "internalType": "uint32",
          "name": "_sellFee",
          "type": "uint32"
        }
      ],
      "name": "setFeeOptions",
      "outputs": [],
      "stateMutability": "nonpayable",
      "type": "function"
    },
    {
      "inputs": [
        {
          "internalType": "uint256",
          "name": "_k",
          "type": "uint256"
        },
        {
          "internalType": "uint32",
          "name": "_target",
          "type": "uint32"
        },
        {
          "internalType": "uint32",
          "name": "_targetAdjusted",
          "type": "uint32"
        }
      ],
      "name": "setMarketOptions",
      "outputs": [],
      "stateMutability": "nonpayable",
      "type": "function"
    },
    {
      "inputs": [
        {
          "internalType": "uint256",
          "name": "index",
          "type": "uint256"
        }
      ],
      "name": "stablecoinsCanBuyAt",
      "outputs": [
        {
          "internalType": "address",
          "name": "",
          "type": "address"
        }
      ],
      "stateMutability": "view",
      "type": "function"
    },
    {
      "inputs": [
        {
          "internalType": "address",
          "name": "token",
          "type": "address"
        }
      ],
      "name": "stablecoinsCanBuyContains",
      "outputs": [
        {
          "internalType": "bool",
          "name": "",
          "type": "bool"
        }
      ],
      "stateMutability": "view",
      "type": "function"
    },
    {
      "inputs": [],
      "name": "stablecoinsCanBuyLength",
      "outputs": [
        {
          "internalType": "uint256",
          "name": "",
          "type": "uint256"
        }
      ],
      "stateMutability": "view",
      "type": "function"
    },
    {
      "inputs": [
        {
          "internalType": "uint256",
          "name": "index",
          "type": "uint256"
        }
      ],
      "name": "stablecoinsCanSellAt",
      "outputs": [
        {
          "internalType": "address",
          "name": "",
          "type": "address"
        }
      ],
      "stateMutability": "view",
      "type": "function"
    },
    {
      "inputs": [
        {
          "internalType": "address",
          "name": "token",
          "type": "address"
        }
      ],
      "name": "stablecoinsCanSellContains",
      "outputs": [
        {
          "internalType": "bool",
          "name": "",
          "type": "bool"
        }
      ],
      "stateMutability": "view",
      "type": "function"
    },
    {
      "inputs": [],
      "name": "stablecoinsCanSellLength",
      "outputs": [
        {
          "internalType": "uint256",
          "name": "",
          "type": "uint256"
        }
      ],
      "stateMutability": "view",
      "type": "function"
    },
    {
      "inputs": [
        {
          "internalType": "address",
          "name": "",
          "type": "address"
        }
      ],
      "name": "stablecoinsDecimals",
      "outputs": [
        {
          "internalType": "uint8",
          "name": "",
          "type": "uint8"
        }
      ],
      "stateMutability": "view",
      "type": "function"
    },
    {
      "inputs": [
        {
          "internalType": "address",
          "name": "_token",
          "type": "address"
        },
        {
          "internalType": "uint256",
          "name": "_w",
          "type": "uint256"
        },
        {
          "internalType": "uint256",
          "name": "_t",
          "type": "uint256"
        }
      ],
      "name": "startup",
      "outputs": [],
      "stateMutability": "nonpayable",
      "type": "function"
    },
    {
      "inputs": [
        {
          "internalType": "bytes4",
          "name": "interfaceId",
          "type": "bytes4"
        }
      ],
      "name": "supportsInterface",
      "outputs": [
        {
          "internalType": "bool",
          "name": "",
          "type": "bool"
        }
      ],
      "stateMutability": "view",
      "type": "function"
    },
    {
      "inputs": [],
      "name": "target",
      "outputs": [
        {
          "internalType": "uint32",
          "name": "",
          "type": "uint32"
        }
      ],
      "stateMutability": "view",
      "type": "function"
    },
    {
      "inputs": [],
      "name": "targetAdjusted",
      "outputs": [
        {
          "internalType": "uint32",
          "name": "",
          "type": "uint32"
        }
      ],
      "stateMutability": "view",
      "type": "function"
    },
    {
      "inputs": [],
      "name": "totalVolume",
      "outputs": [
        {
          "internalType": "uint256",
          "name": "",
          "type": "uint256"
        }
      ],
      "stateMutability": "view",
      "type": "function"
    },
    {
      "inputs": [],
      "name": "unpause",
      "outputs": [],
      "stateMutability": "nonpayable",
      "type": "function"
    },
    {
      "inputs": [],
      "name": "w",
      "outputs": [
        {
          "internalType": "uint256",
          "name": "",
          "type": "uint256"
        }
      ],
      "stateMutability": "view",
      "type": "function"
    }
  ],
  "bytecode": "0x608060405260006007553480156200001657600080fd5b5060405162004c2538038062004c258339810160408190526200003991620007d8565b6002805460ff19169055600480546001600160e01b0316600160e01b1781556005805463ffffffff19166127101790556040805163313ce56760e01b815290516001600160a01b038c169263313ce567928082019260209290918290030181865afa158015620000ad573d6000803e3d6000fd5b505050506040513d601f19601f82011682018060405250810190620000d391906200094b565b60ff166012146200012b5760405162461bcd60e51b815260206004820152601960248201527f4d61726b65743a20696e76616c6964204c616220746f6b656e0000000000000060448201526064015b60405180910390fd5b876001600160a01b031663313ce5676040518163ffffffff1660e01b8152600401602060405180830381865afa1580156200016a573d6000803e3d6000fd5b505050506040513d601f19601f820116820180604052508101906200019091906200094b565b60ff16601214620001e45760405162461bcd60e51b815260206004820152601b60248201527f4d61726b65743a20696e76616c69642070724c616220746f6b656e0000000000604482015260640162000122565b60008511801562000208575060045463ffffffff600160e01b909104811690851610155b80156200022057508363ffffffff168363ffffffff16115b801562000239575060055463ffffffff90811690841611155b620002875760405162461bcd60e51b815260206004820181905260248201527f4d61726b65743a20696e76616c696420636f6e7374727563746f722061726773604482015260640162000122565b600280546001600160a01b03808c1661010002610100600160a81b031990921691909117909155600380548a83166001600160a01b031990911617905560048054600988905563ffffffff868116600160c01b0263ffffffff60c01b19918916600160a01b026001600160c01b0319909316948c169490941791909117169190911790556200032660008051602062004c05833981519152336200061d565b6200034160008051602062004c05833981519152836200061d565b6200034e6000336200061d565b60005b81518110156200060d57600082828151811062000372576200037262000977565b602090810291909101015160405163095ea7b360e01b81526001600160a01b03868116600483015260001960248301529192509082169063095ea7b3906044016020604051808303816000875af1158015620003d2573d6000803e3d6000fd5b505050506040513d601f19601f82011682018060405250810190620003f891906200098d565b5060405163095ea7b360e01b81526001600160a01b038981166004830152600019602483015282169063095ea7b3906044016020604051808303816000875af11580156200044a573d6000803e3d6000fd5b505050506040513d601f19601f820116820180604052508101906200047091906200098d565b506000816001600160a01b031663313ce5676040518163ffffffff1660e01b8152600401602060405180830381865afa158015620004b2573d6000803e3d6000fd5b505050506040513d601f19601f82011682018060405250810190620004d891906200094b565b905060008160ff16116200052f5760405162461bcd60e51b815260206004820152601560248201527f4d61726b65743a20696e76616c696420746f6b656e0000000000000000000000604482015260640162000122565b6200054a82600e6200062d60201b6200299f1790919060201c565b50620005668260106200062d60201b6200299f1790919060201c565b506001600160a01b038216600081815260126020908152604091829020805460ff191660ff8616179055815192835260019083018190529082015260008051602062004be58339815191529060600160405180910390a1604080516001600160a01b038416815260006020820152600181830152905160008051602062004be58339815191529181900360600190a1505080806200060490620009b1565b91505062000351565b50505050505050505050620009db565b6200062982826200064d565b5050565b600062000644836001600160a01b03841662000690565b90505b92915050565b620006648282620006e260201b620029b41760201c565b60008281526001602090815260409091206200068b9183906200299f6200062d821b17901c565b505050565b6000818152600183016020526040812054620006d95750815460018181018455600084815260208082209093018490558454848252828601909352604090209190915562000647565b50600062000647565b6000828152602081815260408083206001600160a01b038516845290915290205460ff1662000629576000828152602081815260408083206001600160a01b03851684529091529020805460ff191660011790556200073e3390565b6001600160a01b0316816001600160a01b0316837f2f8788117e7eff1d82e926ec794901d17c78024a50270940304540a733656f0d60405160405180910390a45050565b6001600160a01b03811681146200079857600080fd5b50565b8051620007a88162000782565b919050565b805163ffffffff81168114620007a857600080fd5b634e487b7160e01b600052604160045260246000fd5b60008060008060008060008060006101208a8c031215620007f857600080fd5b8951620008058162000782565b60208b0151909950620008188162000782565b60408b01519098506200082b8162000782565b60608b01519097506200083e8162000782565b60808b015190965094506200085660a08b01620007ad565b93506200086660c08b01620007ad565b925060e08a0151620008788162000782565b6101008b01519092506001600160401b03808211156200089757600080fd5b818c0191508c601f830112620008ac57600080fd5b815181811115620008c157620008c1620007c2565b8060051b604051601f19603f83011681018181108582111715620008e957620008e9620007c2565b6040529182526020808301935084820101918f8311156200090957600080fd5b6020850194505b82851015620009365762000924856200079b565b84526020948501949093019262000910565b80955050505050509295985092959850929598565b6000602082840312156200095e57600080fd5b815160ff811681146200097057600080fd5b9392505050565b634e487b7160e01b600052603260045260246000fd5b600060208284031215620009a057600080fd5b815180151581146200097057600080fd5b6000600019821415620009d457634e487b7160e01b600052601160045260246000fd5b5060010190565b6141fa80620009eb6000396000f3fe608060405234801561001057600080fd5b506004361061032f5760003560e01c80637558f708116101b4578063b4f40c61116100fa578063e3b3f98f1161009d578063e3b3f98f146107bb578063e702ccda146107c3578063e7d7ebd7146107d6578063e9c3d3e9146107e9578063ec87621c146107fc578063f3ee570914610811578063fe8a382114610828578063ffcdd26a1461083b57600080fd5b8063b4f40c611461072f578063c3da42b814610738578063c486752e14610741578063c7da787b14610754578063ca15c87314610767578063d4b839921461077a578063d547741f14610791578063d56c73f1146107a457600080fd5b806391d148541161016257806391d1485414610695578063970c195d146106a85780639ae8886a146106b05780639c66d9a9146106b95780639d880530146106cc578063a217fddf14610701578063a59ac6dd14610709578063ac2f9c961461071c57600080fd5b80637558f7081461060457806375e257871461060c5780637cbb1b1e1461061f5780638456cb59146106545780638b9385251461065c5780639010d07c1461066f57806391cca3db1461068257600080fd5b80633723e81b116102795780635c975abb116102275780635c975abb146105655780635e1ef30d146105705780635f2ac357146105785780635f81a57c1461058b57806362df9ea21461059457806367cdf6c9146105c757806374442a95146105da57806374c5dee4146105f157600080fd5b80633723e81b146104bd5780633c422a91146104e55780633c9720ba146105225780633f4ba83a1461052a57806342966c6814610532578063470624021461054557806353d96f2c1461055c57600080fd5b8063260840c9116102e1578063260840c91461041557806326121ff014610441578063291eae7f1461044a5780632b14ca561461045d5780632ef42247146104745780632f2ff15d1461048457806334bb6b7c1461049757806336568abe146104aa57600080fd5b806301ffc9a714610334578063059fc3c61461035c5780630ac1ab9f1461039157806316f0115b146103c157806319662f12146103d4578063205c9cc7146103e9578063248a9ca3146103f2575b600080fd5b61034761034236600461394d565b610852565b60405190151581526020015b60405180910390f35b6103837f6afe9cfb47664136b26b50db67b3566cb1d289a2bee71ac01b59c95757fb24fe81565b604051908152602001610353565b6002546103a99061010090046001600160a01b031681565b6040516001600160a01b039091168152602001610353565b6004546103a9906001600160a01b031681565b6103e76103e23660046139a2565b61087d565b005b610383600d5481565b6103836104003660046139e5565b60009081526020819052604090206001015490565b60045461042c90600160e01b900463ffffffff1681565b60405163ffffffff9091168152602001610353565b610383600b5481565b6103a96104583660046139e5565b610a13565b60085461042c90600160c01b900463ffffffff1681565b60055461042c9063ffffffff1681565b6103e76104923660046139fe565b610a20565b6103e76104a5366004613a2a565b610a4a565b6103e76104b83660046139fe565b610cd5565b6104d06104cb366004613a8f565b610d53565b60408051928352602083019190915201610353565b6104f86104f3366004613ad5565b61108e565b6040805195151586526020860194909452928401919091526060830152608082015260a001610353565b6103836111f8565b6103e7611209565b6103e76105403660046139e5565b61122c565b60085461042c90600160a01b900463ffffffff1681565b61038360065481565b60025460ff16610347565b6104d0611260565b6103a96105863660046139e5565b61130c565b61038360075481565b6105a76105a2366004613b10565b611319565b604080519485526020850193909352918301526060820152608001610353565b6104d06105d5366004613b3a565b611494565b60055461042c90600160601b900463ffffffff1681565b6103e76105ff3660046139fe565b6114b7565b6103e7611924565b6103e761061a366004613b6f565b6119cf565b61063261062d366004613ba2565b611c96565b6040805194151585526020850193909352918301526060820152608001610353565b6103e7611d70565b6104d061066a366004613bd4565b611d90565b6103a961067d366004613c0f565b612105565b6008546103a9906001600160a01b031681565b6103476106a33660046139fe565b612124565b61038361214d565b610383600c5481565b6104d06106c73660046139fe565b612159565b6106ef6106da366004613c31565b60126020526000908152604090205460ff1681565b60405160ff9091168152602001610353565b610383600081565b6104d0610717366004613b6f565b61221e565b61038361072a366004613b3a565b612235565b61038360095481565b610383600a5481565b61038361074f366004613a8f565b612253565b6105a76107623660046139fe565b6124d1565b6103836107753660046139e5565b61278f565b60045461042c90600160a01b900463ffffffff1681565b6103e761079f3660046139fe565b6127a6565b60045461042c90600160c01b900463ffffffff1681565b6104f86127cb565b6103476107d1366004613c31565b612834565b6003546103a9906001600160a01b031681565b6103476107f7366004613c31565b612841565b6103836000805160206141a583398151915281565b60055461042c90600160201b900463ffffffff1681565b6103e7610836366004613c4c565b61284e565b60055461042c90600160401b900463ffffffff1681565b60006001600160e01b03198216635a05180f60e01b1480610877575061087782612a38565b92915050565b6000805160206141a583398151915261089581612a6d565b6001600160a01b0384166108eb5760405162461bcd60e51b81526020600482015260186024820152774d61726b65743a207a65726f20646576206164647265737360401b60448201526064015b60405180910390fd5b6127108363ffffffff16111561093c5760405162461bcd60e51b81526020600482015260166024820152754d61726b65743a20696e76616c69642062757946656560501b60448201526064016108e2565b6127108263ffffffff16111561098e5760405162461bcd60e51b81526020600482015260176024820152764d61726b65743a20696e76616c69642073656c6c46656560481b60448201526064016108e2565b6008805463ffffffff848116600160c01b0263ffffffff60c01b19918716600160a01b026001600160c01b03199093166001600160a01b0389161792909217161790556040517f37e4c31a1b02ae6e145f1b31e0daf91e98188e546bf6ef5be16208040990279e90610a0590869086908690613c71565b60405180910390a150505050565b6000610877601083612a77565b600082815260208190526040902060010154610a3b81612a6d565b610a458383612a83565b505050565b6000805160206141a5833981519152610a6281612a6d565b60008663ffffffff16118015610a8b575060045463ffffffff600160a01b909104811690871611155b610ad35760405162461bcd60e51b815260206004820152601960248201527813585c9ad95d0e881a5b9d985b1a59081b5a5b95185c99d95d603a1b60448201526064016108e2565b6127108563ffffffff1611158015610afe575060045463ffffffff600160c01b909104811690861610155b610b545760405162461bcd60e51b815260206004820152602160248201527f4d61726b65743a20696e76616c6964206d617854617267657441646a757374656044820152601960fa1b60648201526084016108e2565b6127108463ffffffff161115610bac5760405162461bcd60e51b815260206004820152601e60248201527f4d61726b65743a2072616973655374657020697320746f6f206c61726765000060448201526064016108e2565b6127108363ffffffff161115610c045760405162461bcd60e51b815260206004820152601e60248201527f4d61726b65743a206c6f7765725374657020697320746f6f206c61726765000060448201526064016108e2565b600480546001600160e01b0316600160e01b63ffffffff898116918202929092179092556005805488831667ffffffffffffffff199091168117600160201b8985169081029190911767ffffffffffffffff60401b1916600160401b89861690810263ffffffff60601b191691909117600160601b9589169586021790935560408051958652602086019290925290840152606083015260808201527fbac8fa563440d32c0c8d45e10ac67a28e47c4826d5832ea69f35e2f814b026be9060a00160405180910390a1505050505050565b6001600160a01b0381163314610d455760405162461bcd60e51b815260206004820152602f60248201527f416363657373436f6e74726f6c3a2063616e206f6e6c792072656e6f756e636560448201526e103937b632b9903337b91039b2b63360891b60648201526084016108e2565b610d4f8282612aa5565b5050565b600080610d5e612ac7565b600080600080610d6e8a8a6124d1565b9350935093509350600082118015610d865750600081115b610da25760405162461bcd60e51b81526004016108e290613c98565b87821015610e035760405162461bcd60e51b815260206004820152602860248201527f4d61726b65743a20776f727468206973206c657373207468616e2064657369726044820152670cac840eedee4e8d60c31b60648201526084016108e2565b600480546040805163630b5ba160e01b815290516001600160a01b039092169263630b5ba192828201926000929082900301818387803b158015610e4657600080fd5b505af1158015610e5a573d6000803e3d6000fd5b505060025461010090046001600160a01b031691506379cc6790905033610e81878e613ce5565b6040518363ffffffff1660e01b8152600401610e9e929190613cfc565b600060405180830381600087803b158015610eb857600080fd5b505af1158015610ecc573d6000803e3d6000fd5b50506002546008546040516323b872dd60e01b81526001600160a01b03610100909304831694506323b872dd9350610f0c92339216908990600401613d15565b6020604051808303816000875af1158015610f2b573d6000803e3d6000fd5b505050506040513d601f19601f82011682018060405250810190610f4f9190613d39565b50610f646001600160a01b038a163384612b0d565b6001600160a01b03808a169088167f01fbb57444511e3de5b26ac09ad6bec45c3f9a1e59dd4a0f2b13a240d18476ce610f9d878e613ce5565b6040805191825260208201879052810188905260600160405180910390a380600a8190555082600d6000828254610fd49190613ce5565b925050819055508260076000828254610fed9190613d5b565b9091555050600b5481141561107757600260019054906101000a90046001600160a01b03166001600160a01b03166318160ddd6040518163ffffffff1660e01b8152600401602060405180830381865afa15801561104f573d6000803e3d6000fd5b505050506040513d601f19601f820116820180604052508101906110739190613d73565b600c555b61107f611924565b50989197509095505050505050565b600080808080806110a187612710613ce5565b8a886110ae8e6002613d8c565b6110b89190613d8c565b6110c29190613d8c565b6110cc9190613dc1565b905060026111028a6110df846004613d8c565b6110e99190613d8c565b6110f38480613d8c565b6110fd9190613d5b565b612b63565b8261110e8c6002613d8c565b6111189190613d5b565b6111229190613d5b565b61112c9190613dc1565b9450888511156111ea576111408986613ce5565b90508961114d8c82613d8c565b6111579083613d5b565b6111619190613dc1565b935061116e8a6002613d8c565b61118090670de0b6b3a7640000613d8c565b8a8661118d8e6002613d8c565b6111979190613d8c565b6111a19190613d8c565b6111ab8380613d8c565b6111b59190613d5b565b6111bf9190613dc1565b925060008b1180156111d057508a84115b156111ea576111e18a898588611c96565b50919750909250505b509550955095509550959050565b6000611204600e612bd3565b905090565b6000805160206141a583398151915261122181612a6d565b611229612bdd565b50565b6000600b541161124e5760405162461bcd60e51b81526004016108e290613dd5565b611256612ac7565b61122981336114b7565b6000806000600b54116112855760405162461bcd60e51b81526004016108e290613dd5565b611304600260019054906101000a90046001600160a01b03166001600160a01b03166318160ddd6040518163ffffffff1660e01b8152600401602060405180830381865afa1580156112db573d6000803e3d6000fd5b505050506040513d601f19601f820116820180604052508101906112ff9190613d73565b612c2f565b915091509091565b6000610877600e83612a77565b60008080808561132a600e82612c9c565b6113465760405162461bcd60e51b81526004016108e290613e05565b6000600b54116113685760405162461bcd60e51b81526004016108e290613dd5565b600a546009546001600160a01b038916600090815260126020819052604090912054611399918a9160ff1690612cbe565b945060006113e8826113ac886002613d8c565b6113b69190613d8c565b6113c890670de0b6b3a7640000613d8c565b83806113d48780613d8c565b6113de9190613d8c565b6110f39190613d8c565b905060006113f68385613d8c565b90508082111561145057600061140c8284613ce5565b90506000848261141c8289613d8c565b6114269190613d5b565b6114309190613dc1565b905085811180156114415750600082115b1561144d57819a508097505b50505b6008546127109061146e90600160a01b900463ffffffff168b613d8c565b6114789190613dc1565b9750611484888a613ce5565b9850505050505092959194509250565b60008061149f612ac7565b6114ab85858533610d53565b91509150935093915050565b6000600b54116114d95760405162461bcd60e51b81526004016108e290613dd5565b6114e1612ac7565b6000821161152a5760405162461bcd60e51b81526020600482015260166024820152754d61726b65743a20616d6f756e74206973207a65726f60501b60448201526064016108e2565b600480546040805163630b5ba160e01b815290516001600160a01b039092169263630b5ba192828201926000929082900301818387803b15801561156d57600080fd5b505af1158015611581573d6000803e3d6000fd5b505060025461010090046001600160a01b031691506379cc6790905033846040518363ffffffff1660e01b81526004016115bc929190613cfc565b600060405180830381600087803b1580156115d657600080fd5b505af11580156115ea573d6000803e3d6000fd5b505050506000600260019054906101000a90046001600160a01b03166001600160a01b03166318160ddd6040518163ffffffff1660e01b8152600401602060405180830381865afa158015611643573d6000803e3d6000fd5b505050506040513d601f19601f820116820180604052508101906116679190613d73565b9050600081116116b95760405162461bcd60e51b815260206004820152601a60248201527f4d61726b65743a2063616e2774206275726e20616c6c206c616200000000000060448201526064016108e2565b600b54600954600d54600061171a83866116d4876002613d8c565b6116de9190613d8c565b6116e89190613d8c565b846116f4856002613d8c565b6116fe9190613d8c565b61171090670de0b6b3a7640000613d8c565b6110fd9190613ce5565b90506000811161173c5760405162461bcd60e51b81526004016108e290613e38565b8481101561179f57600083826117528288613d8c565b61175c9190613d5b565b6117669190613dc1565b90508481116117875760405162461bcd60e51b81526004016108e290613e38565b600a8190556117968287613ce5565b600c5550611881565b826117ab866002613d8c565b6117b59190613d8c565b6117bf8680613d8c565b846117cb856002613d8c565b6117d59190613d8c565b6117e790670de0b6b3a7640000613d8c565b6117f19190613ce5565b6117fb9190613dc1565b93506000838661180b8288613d8c565b6118159190613d5b565b61181f9190613dc1565b9050600b548511801561183157508481115b6118735760405162461bcd60e51b815260206004820152601360248201527213585c9ad95d0e88189d5c9b8819985a5b1959606a1b60448201526064016108e2565b600a55600b8490556000600c555b856001600160a01b03167fcc16f5dbb4873280815c1ee09dbd06736cffcc184412cf7a71a0fdb75d397ca5886040516118bc91815260200190565b60405180910390a26000806118d087612c2f565b60045491935091506118ef90600160c01b900463ffffffff1682613d8c565b6118fb83612710613d8c565b11156119105761190b8789612d28565b611919565b61191987612f49565b505050505050505050565b6000600b54116119465760405162461bcd60e51b81526004016108e290613dd5565b61194e612ac7565b6119cd600260019054906101000a90046001600160a01b03166001600160a01b03166318160ddd6040518163ffffffff1660e01b8152600401602060405180830381865afa1580156119a4573d6000803e3d6000fd5b505050506040513d601f19601f820116820180604052508101906119c89190613d73565b612f49565b565b7f6afe9cfb47664136b26b50db67b3566cb1d289a2bee71ac01b59c95757fb24fe6119f981612a6d565b83611a05600e82612c9c565b611a215760405162461bcd60e51b81526004016108e290613e05565b600554600160201b900463ffffffff16611a785760405162461bcd60e51b81526020600482015260186024820152774d61726b65743a2073657441646a7573744f7074696f6e7360401b60448201526064016108e2565b6008546001600160a01b0316611ac85760405162461bcd60e51b81526020600482015260156024820152744d61726b65743a207365744665654f7074696f6e7360581b60448201526064016108e2565b600b5415611ae85760405162461bcd60e51b81526004016108e290613e6f565b6001600160a01b0385166000908152601260208190526040822054611b1291879160ff1690612cbe565b9050600081118015611b245750600084115b8015611ba45750600260019054906101000a90046001600160a01b03166001600160a01b03166318160ddd6040518163ffffffff1660e01b8152600401602060405180830381865afa158015611b7e573d6000803e3d6000fd5b505050506040513d601f19601f82011682018060405250810190611ba29190613d73565b155b611bea5760405162461bcd60e51b815260206004820152601760248201527604d61726b65743a20696e76616c6964207374617274757604c1b60448201526064016108e2565b611bff6001600160a01b038716333088613175565b60025461010090046001600160a01b03166340c10f1933866040518363ffffffff1660e01b8152600401611c34929190613cfc565b600060405180830381600087803b158015611c4e57600080fd5b505af1158015611c62573d6000803e3d6000fd5b5050505080600d819055508060076000828254611c7f9190613d5b565b90915550611c8e905084613196565b505050505050565b60008080808487611cad88655af3107a4000613d8c565b611cb79190613d8c565b611cc988670de0b6b3a7640000613d8c565b611cd39190613ce5565b611cdd9190613dc1565b91506000611d158988611cf18b6002613d8c565b611cfb9190613d8c565b611d059190613d8c565b6110fd90655af3107a4000613d8c565b9050808610611d6457611d288187613ce5565b915088611d358482613d8c565b611d3f9083613d5b565b611d499190613dc1565b9350600083118015611d5a57508284115b15611d6457600194505b50945094509450949050565b6000805160206141a5833981519152611d8881612a6d565b61122961326f565b600080611d9b612ac7565b600080600080611dab8a8a611319565b9350935093509350600082118015611dc35750600084115b8015611dcf5750600081115b611deb5760405162461bcd60e51b81526004016108e290613c98565b87841015611e535760405162461bcd60e51b815260206004820152602f60248201527f4d61726b65743a206d696e7420616d6f756e74206973206c657373207468616e60448201526e0819195cda5c995908185b5bdd5b9d608a1b60648201526084016108e2565b611e686001600160a01b038b1633308c613175565b600480546040805163630b5ba160e01b815290516001600160a01b039092169263630b5ba192828201926000929082900301818387803b158015611eab57600080fd5b505af1158015611ebf573d6000803e3d6000fd5b505060025461010090046001600160a01b031691506340c10f19905033866040518363ffffffff1660e01b8152600401611efa929190613cfc565b600060405180830381600087803b158015611f1457600080fd5b505af1158015611f28573d6000803e3d6000fd5b50506002546008546040516340c10f1960e01b81526101009092046001600160a01b0390811694506340c10f199350611f68929116908790600401613cfc565b600060405180830381600087803b158015611f8257600080fd5b505af1158015611f96573d6000803e3d6000fd5b5050604080518c8152602081018890529081018690526001600160a01b03808e1693508a1691507ef93dbdb72854b6b6fb35433086556f2635fc83c37080c667496fecfa650fb49060600160405180910390a380600a8190555081600760008282546120029190613d5b565b9250508190555081600d600082825461201b9190613d5b565b925050819055506000600260019054906101000a90046001600160a01b03166001600160a01b03166318160ddd6040518163ffffffff1660e01b8152600401602060405180830381865afa158015612077573d6000803e3d6000fd5b505050506040513d601f19601f8201168201806040525081019061209b9190613d73565b90506000806120a983612c2f565b60045491935091506120c890600160c01b900463ffffffff1682613d8c565b6120d483612710613d8c565b11156120e9576120e4838b612d28565b6120f2565b6120f283612f49565b50949b939a509298505050505050505050565b600082815260016020526040812061211d9083612a77565b9392505050565b6000918252602082815260408084206001600160a01b0393909316845291905290205460ff1690565b60006112046010612bd3565b60008082612168600e82612c9c565b6121845760405162461bcd60e51b81526004016108e290613e05565b6000600b54116121a65760405162461bcd60e51b81526004016108e290613dd5565b670de0b6b3a764000085600b546121bd9190613d8c565b6121c79190613dc1565b6001600160a01b03851660009081526012602081905260409091205491945060ff909116906121f8908590836132ac565b925060128160ff1610156122155761221283826012612cbe565b93505b50509250929050565b600080612229612ac7565b6114ab85858533611d90565b600061223f612ac7565b61224b84848433612253565b949350505050565b600061225d612ac7565b60008061226a8787612159565b915091506000811161228e5760405162461bcd60e51b81526004016108e290613c98565b848111156122f25760405162461bcd60e51b815260206004820152602b60248201527f4d61726b65743a20776f7274682069732067726561746572207468616e20646560448201526a0e6d2e4cac840eedee4e8d60ab1b60648201526084016108e2565b6123076001600160a01b038716333084613175565b6003546001600160a01b03166379cc679033896040518363ffffffff1660e01b8152600401612337929190613cfc565b600060405180830381600087803b15801561235157600080fd5b505af1158015612365573d6000803e3d6000fd5b5050600480546040805163630b5ba160e01b815290516001600160a01b03909216945063630b5ba19350808301926000929182900301818387803b1580156123ac57600080fd5b505af11580156123c0573d6000803e3d6000fd5b505060025461010090046001600160a01b031691506340c10f19905033896040518363ffffffff1660e01b81526004016123fb929190613cfc565b600060405180830381600087803b15801561241557600080fd5b505af1158015612429573d6000803e3d6000fd5b505060408051848152602081018b90526001600160a01b03808b169450881692507f18c0b000fa0bbc09023cc2e469b7c84958d49cb8c996d5b533aeae38f3ed2a69910160405180910390a381600d60008282546124879190613d5b565b9250508190555081600760008282546124a09190613d5b565b9250508190555086600c60008282546124b99190613d5b565b909155506124c79050611924565b9695505050505050565b6000808080846124e2601082612c9c565b61252e5760405162461bcd60e51b815260206004820152601a60248201527f4d61726b65743a20696e76616c69642073656c6c20746f6b656e00000000000060448201526064016108e2565b6000600b54116125505760405162461bcd60e51b81526004016108e290613dd5565b600a54600b54600954600254604080516318160ddd60e01b8152905160009261010090046001600160a01b0316916318160ddd9160048083019260209291908290030181865afa1580156125a8573d6000803e3d6000fd5b505050506040513d601f19601f820116820180604052508101906125cc9190613d73565b600854909150612710906125ed90600160c01b900463ffffffff168d613d8c565b6125f79190613dc1565b9850612603898c613ce5565b9a50600c54811115612702576000600c548261261f9190613ce5565b90508b8111612677576000671bc16d674ec800008261263e8888613d5b565b6126489190613d8c565b6126529190613dc1565b9050849750808a6126639190613d5b565b995061266f828e613ce5565b9c5050612700565b6000838d6126858289613d8c565b61268f9190613ce5565b6126999190613dc1565b90506000671bc16d674ec800008e6126b18985613d5b565b6126bb9190613d8c565b6126c59190613dc1565b905086821080156126d65750858210155b80156126e25750600081115b156126f957819850808b6126f69190613d5b565b9a505b60009d5050505b505b8a1561273757829550670de0b6b3a7640000838c6127209190613d8c565b61272a9190613dc1565b6127349089613d5b565b97505b6001600160a01b038a1660009081526012602081905260409091205460ff1690612763908a9083612cbe565b975060128160ff1610156127805761277d88826012612cbe565b98505b50505050505092959194509250565b600081815260016020526040812061087790612bd3565b6000828152602081905260409020600101546127c181612a6d565b610a458383612aa5565b600080600080600080600b54116127f45760405162461bcd60e51b81526004016108e290613dd5565b600b54600954600c546004546128239392919063ffffffff600160a01b8204811691600160c01b90041661108e565b945094509450945094509091929394565b6000610877601083612c9c565b6000610877600e83612c9c565b6000805160206141a583398151915261286681612a6d565b600b54156128865760405162461bcd60e51b81526004016108e290613e6f565b600084116128ce5760405162461bcd60e51b81526020600482015260156024820152744d61726b65743a20696e76616c696420736c6f706560581b60448201526064016108e2565b60045463ffffffff600160e01b9091048116908416108015906128fc57508263ffffffff168263ffffffff16115b8015612914575060055463ffffffff90811690831611155b6129585760405162461bcd60e51b81526020600482015260156024820152744d61726b65743a20696e76616c696420726174696f60581b60448201526064016108e2565b506009929092556004805467ffffffffffffffff60a01b1916600160a01b63ffffffff9384160263ffffffff60c01b191617600160c01b9290931691909102919091179055565b600061211d836001600160a01b038416613325565b6129be8282612124565b610d4f576000828152602081815260408083206001600160a01b03851684529091529020805460ff191660011790556129f43390565b6001600160a01b0316816001600160a01b0316837f2f8788117e7eff1d82e926ec794901d17c78024a50270940304540a733656f0d60405160405180910390a45050565b60006001600160e01b03198216637965db0b60e01b148061087757506301ffc9a760e01b6001600160e01b0319831614610877565b6112298133613374565b600061211d83836133cd565b612a8d82826129b4565b6000828152600160205260409020610a45908261299f565b612aaf82826133f7565b6000828152600160205260409020610a45908261345c565b60025460ff16156119cd5760405162461bcd60e51b815260206004820152601060248201526f14185d5cd8589b194e881c185d5cd95960821b60448201526064016108e2565b610a458363a9059cbb60e01b8484604051602401612b2c929190613cfc565b60408051601f198184030181529190526020810180516001600160e01b03166001600160e01b031990931692909217909152613471565b60006003821115612bc45750806000612b7d600283613dc1565b612b88906001613d5b565b90505b81811015612bbe57905080600281612ba38186613dc1565b612bad9190613d5b565b612bb79190613dc1565b9050612b8b565b50919050565b8115612bce575060015b919050565b6000610877825490565b612be5613543565b6002805460ff191690557f5db9ee0a495bf2e6ff9c91a7834c1ba4fdd244a5e8aa4e537bd38aeae4b073aa335b6040516001600160a01b03909116815260200160405180910390a1565b600080600c54831115612c94576000600c5484612c4c9190613ce5565b9050612c588180613d8c565b92508260095485600b546002612c6e9190613d8c565b612c789190613d8c565b612c829190613d8c565b612c8c9190613d5b565b915050915091565b506001915091565b6001600160a01b0381166000908152600183016020526040812054151561211d565b60008160ff168360ff161415612cd557508261211d565b8160ff168360ff161015612d0957612ced8383613e9b565b612cf890600a613fa2565b612d029085613d8c565b905061211d565b612d138284613e9b565b612d1e90600a613fa2565b61224b9085613dc1565b42600681905550600080600080612d5d600954600460149054906101000a900463ffffffff1663ffffffff16600d5489611c96565b9350935093509350838015612d745750600b548210155b15611c8e57600a839055600b829055600c81905560408051848152602081018490529081018290527f031beffcb4b4d3d33cf44d7a9ff0a471fb95ad223f3b4ac6767ef7e8f9a0981e9060600160405180910390a16001600160a01b03851615801590612df7575060055460045463ffffffff918216600160c01b909104909116105b15611c8e5760055460045463ffffffff600160201b8304811692811691612e27918491600160c01b900416613fb1565b63ffffffff161115612e5657600454600554612e539163ffffffff600160c01b90910481169116613fd9565b90505b63ffffffff811615612f405780600460148282829054906101000a900463ffffffff16612e839190613fb1565b92506101000a81548163ffffffff021916908363ffffffff16021790555080600460188282829054906101000a900463ffffffff16612ec29190613fb1565b92506101000a81548163ffffffff021916908363ffffffff1602179055507f11df61431069ecb6bffb62f185491e4adc966b75b0648630ea30f60cfff8a9e586600460149054906101000a900463ffffffff16600460189054906101000a900463ffffffff16604051612f3793929190613c71565b60405180910390a15b50505050505050565b60065442118015612f685750600554600160601b900463ffffffff1615155b1561122957600554600654600091600160601b900463ffffffff1690612f8e9042613ce5565b600554612fa89190600160401b900463ffffffff16613ffe565b612fb2919061402a565b905063ffffffff811615610d4f5742600655600454600160a01b810463ffffffff908116600160e01b909204161415612fe9575050565b60045463ffffffff808316600160a01b909204161080613031575060045463ffffffff600160e01b8204811691613029918491600160a01b900416613fd9565b63ffffffff16105b1561305c576004546130599063ffffffff600160e01b8204811691600160a01b900416613fd9565b90505b80600460148282829054906101000a900463ffffffff1661307d9190613fd9565b92506101000a81548163ffffffff021916908363ffffffff16021790555080600460188282829054906101000a900463ffffffff166130bc9190613fd9565b82546101009290920a63ffffffff81810219909316918316021790915560045460408051600160a01b830484168152600160c01b90920490921660208201527fcb23a4ec68710aad47873f6b056baa8b2002c146d2c86c4d7803f6ce74a2383a92500160405180910390a160008061313384612c2f565b600454919350915061315290600160c01b900463ffffffff1682613d8c565b61315e83612710613d8c565b111561316f5761316f846000612d28565b50505050565b61316f846323b872dd60e01b858585604051602401612b2c93929190613d15565b426006819055506000806000806131cb600954600460149054906101000a900463ffffffff1663ffffffff16600d5488611c96565b9350935093509350836132185760405162461bcd60e51b815260206004820152601560248201527413585c9ad95d0e8818591a9d5cdd0819985a5b1959605a1b60448201526064016108e2565b600a839055600b829055600c81905560408051848152602081018490529081018290527f031beffcb4b4d3d33cf44d7a9ff0a471fb95ad223f3b4ac6767ef7e8f9a0981e9060600160405180910390a15050505050565b613277612ac7565b6002805460ff191660011790557f62e78cea01bee320cd4e420270b5ea74000d11b0c9f74754ebdbfc544b05a258612c123390565b60008160ff168360ff1614156132c357508261211d565b8160ff168360ff1610156132db57612ced8383613e9b565b60006132e78385613e9b565b6132f290600a613fa2565b90506132fe8186613dc1565b915061330a818661404d565b1561331d5761331a600183613d5b565b91505b509392505050565b600081815260018301602052604081205461336c57508154600181810184556000848152602080822090930184905584548482528286019093526040902091909155610877565b506000610877565b61337e8282612124565b610d4f5761338b8161358c565b61339683602061359e565b6040516020016133a792919061408d565b60408051601f198184030181529082905262461bcd60e51b82526108e2916004016140fc565b60008260000182815481106133e4576133e461412f565b9060005260206000200154905092915050565b6134018282612124565b15610d4f576000828152602081815260408083206001600160a01b0385168085529252808320805460ff1916905551339285917ff6391f5c32d9c69d2a47ea670b442974b53935d1edc7fd64eb21e047a839171b9190a45050565b600061211d836001600160a01b03841661373a565b60006134c6826040518060400160405280602081526020017f5361666545524332303a206c6f772d6c6576656c2063616c6c206661696c6564815250856001600160a01b031661382d9092919063ffffffff16565b805190915015610a4557808060200190518101906134e49190613d39565b610a455760405162461bcd60e51b815260206004820152602a60248201527f5361666545524332303a204552433230206f7065726174696f6e20646964206e6044820152691bdd081cdd58d8d9595960b21b60648201526084016108e2565b60025460ff166119cd5760405162461bcd60e51b815260206004820152601460248201527314185d5cd8589b194e881b9bdd081c185d5cd95960621b60448201526064016108e2565b60606108776001600160a01b03831660145b606060006135ad836002613d8c565b6135b8906002613d5b565b67ffffffffffffffff8111156135d0576135d0614145565b6040519080825280601f01601f1916602001820160405280156135fa576020820181803683370190505b509050600360fc1b816000815181106136155761361561412f565b60200101906001600160f81b031916908160001a905350600f60fb1b816001815181106136445761364461412f565b60200101906001600160f81b031916908160001a9053506000613668846002613d8c565b613673906001613d5b565b90505b60018111156136eb576f181899199a1a9b1b9c1cb0b131b232b360811b85600f16601081106136a7576136a761412f565b1a60f81b8282815181106136bd576136bd61412f565b60200101906001600160f81b031916908160001a90535060049490941c936136e48161415b565b9050613676565b50831561211d5760405162461bcd60e51b815260206004820181905260248201527f537472696e67733a20686578206c656e67746820696e73756666696369656e7460448201526064016108e2565b6000818152600183016020526040812054801561382357600061375e600183613ce5565b855490915060009061377290600190613ce5565b90508181146137d75760008660000182815481106137925761379261412f565b90600052602060002001549050808760000184815481106137b5576137b561412f565b6000918252602080832090910192909255918252600188019052604090208390555b85548690806137e8576137e8614172565b600190038181906000526020600020016000905590558560010160008681526020019081526020016000206000905560019350505050610877565b6000915050610877565b606061224b848460008585600080866001600160a01b031685876040516138549190614188565b60006040518083038185875af1925050503d8060008114613891576040519150601f19603f3d011682016040523d82523d6000602084013e613896565b606091505b50915091506138a7878383876138b2565b979650505050505050565b6060831561391e578251613917576001600160a01b0385163b6139175760405162461bcd60e51b815260206004820152601d60248201527f416464726573733a2063616c6c20746f206e6f6e2d636f6e747261637400000060448201526064016108e2565b508161224b565b61224b83838151156139335781518083602001fd5b8060405162461bcd60e51b81526004016108e291906140fc565b60006020828403121561395f57600080fd5b81356001600160e01b03198116811461211d57600080fd5b80356001600160a01b0381168114612bce57600080fd5b803563ffffffff81168114612bce57600080fd5b6000806000606084860312156139b757600080fd5b6139c084613977565b92506139ce6020850161398e565b91506139dc6040850161398e565b90509250925092565b6000602082840312156139f757600080fd5b5035919050565b60008060408385031215613a1157600080fd5b82359150613a2160208401613977565b90509250929050565b600080600080600060a08688031215613a4257600080fd5b613a4b8661398e565b9450613a596020870161398e565b9350613a676040870161398e565b9250613a756060870161398e565b9150613a836080870161398e565b90509295509295909350565b60008060008060808587031215613aa557600080fd5b84359350613ab560208601613977565b925060408501359150613aca60608601613977565b905092959194509250565b600080600080600060a08688031215613aed57600080fd5b505083359560208501359550604085013594606081013594506080013592509050565b60008060408385031215613b2357600080fd5b613b2c83613977565b946020939093013593505050565b600080600060608486031215613b4f57600080fd5b83359250613b5f60208501613977565b9150604084013590509250925092565b600080600060608486031215613b8457600080fd5b613b8d84613977565b95602085013595506040909401359392505050565b60008060008060808587031215613bb857600080fd5b5050823594602084013594506040840135936060013592509050565b60008060008060808587031215613bea57600080fd5b613bf385613977565b93506020850135925060408501359150613aca60608601613977565b60008060408385031215613c2257600080fd5b50508035926020909101359150565b600060208284031215613c4357600080fd5b61211d82613977565b600080600060608486031215613c6157600080fd5b833592506139ce6020850161398e565b6001600160a01b0393909316835263ffffffff918216602084015216604082015260600190565b6020808252601b908201527f4d61726b65743a207573656c657373207472616e73616374696f6e0000000000604082015260600190565b634e487b7160e01b600052601160045260246000fd5b600082821015613cf757613cf7613ccf565b500390565b6001600160a01b03929092168252602082015260400190565b6001600160a01b039384168152919092166020820152604081019190915260600190565b600060208284031215613d4b57600080fd5b8151801515811461211d57600080fd5b60008219821115613d6e57613d6e613ccf565b500190565b600060208284031215613d8557600080fd5b5051919050565b6000816000190483118215151615613da657613da6613ccf565b500290565b634e487b7160e01b600052601260045260246000fd5b600082613dd057613dd0613dab565b500490565b60208082526016908201527513585c9ad95d0e881a5cc81b9bdd081cdd185c9d195960521b604082015260600190565b60208082526019908201527826b0b935b2ba1d1034b73b30b634b210313abc903a37b5b2b760391b604082015260600190565b6020808252601b908201527f4d61726b65743a20616d6f756e7420697320746f6f20736d616c6c0000000000604082015260600190565b60208082526012908201527113585c9ad95d0e881a5cc81cdd185c9d195960721b604082015260600190565b600060ff821660ff841680821015613eb557613eb5613ccf565b90039392505050565b600181815b80851115613ef9578160001904821115613edf57613edf613ccf565b80851615613eec57918102915b93841c9390800290613ec3565b509250929050565b600082613f1057506001610877565b81613f1d57506000610877565b8160018114613f335760028114613f3d57613f59565b6001915050610877565b60ff841115613f4e57613f4e613ccf565b50506001821b610877565b5060208310610133831016604e8410600b8410161715613f7c575081810a610877565b613f868383613ebe565b8060001904821115613f9a57613f9a613ccf565b029392505050565b600061211d60ff841683613f01565b600063ffffffff808316818516808303821115613fd057613fd0613ccf565b01949350505050565b600063ffffffff83811690831681811015613ff657613ff6613ccf565b039392505050565b600063ffffffff8083168185168183048111821515161561402157614021613ccf565b02949350505050565b600063ffffffff8084168061404157614041613dab565b92169190910492915050565b60008261405c5761405c613dab565b500690565b60005b8381101561407c578181015183820152602001614064565b8381111561316f5750506000910152565b76020b1b1b2b9b9a1b7b73a3937b61d1030b1b1b7bab73a1604d1b8152600083516140bf816017850160208801614061565b7001034b99036b4b9b9b4b733903937b6329607d1b60179184019182015283516140f0816028840160208801614061565b01602801949350505050565b602081526000825180602084015261411b816040850160208701614061565b601f01601f19169190910160400192915050565b634e487b7160e01b600052603260045260246000fd5b634e487b7160e01b600052604160045260246000fd5b60008161416a5761416a613ccf565b506000190190565b634e487b7160e01b600052603160045260246000fd5b6000825161419a818460208701614061565b919091019291505056fe241ecf16d79d0f8dbfb92cbc07fe17840425976cf0667f022fe9877caa831b08a2646970667358221220605fbf42981826b62764ed27633409e233c58fb3960d75c9a332a72df55b499b64736f6c634300080c003308c19ac4d8fff6d0c1eee587e93f5b408ed1f76080321538c5f7195ea08a6b5b241ecf16d79d0f8dbfb92cbc07fe17840425976cf0667f022fe9877caa831b08",
  "linkReferences": {},
  "deployedLinkReferences": {}
}