{
  "_format": "hh-sol-artifact-1",
  "contractName": "Bank",
  "sourceName": "contracts/Bank.sol",
  "abi": [
    {
      "inputs": [
        {
          "internalType": "contract IERC20BurnableMinter",
          "name": "_DSD",
          "type": "address"
        },
        {
          "internalType": "contract IERC20BurnableMinter",
          "name": "_USDC",
          "type": "address"
        },
        {
          "internalType": "contract IStakePool",
          "name": "_pool",
          "type": "address"
        }
      ],
      "stateMutability": "nonpayable",
      "type": "constructor"
    },
    {
      "anonymous": false,
      "inputs": [
        {
          "indexed": false,
          "internalType": "address",
          "name": "user",
          "type": "address"
        },
        {
          "indexed": false,
          "internalType": "uint256",
          "name": "amount",
          "type": "uint256"
        },
        {
          "indexed": false,
          "internalType": "uint256",
          "name": "fee",
          "type": "uint256"
        }
      ],
      "name": "Borrow",
      "type": "event"
    },
    {
      "anonymous": false,
      "inputs": [
        {
          "indexed": false,
          "internalType": "address",
          "name": "dev",
          "type": "address"
        },
        {
          "indexed": false,
          "internalType": "uint32",
          "name": "borrowFee",
          "type": "uint32"
        }
      ],
      "name": "OptionsChanged",
      "type": "event"
    },
    {
      "anonymous": false,
      "inputs": [
        {
          "indexed": true,
          "internalType": "address",
          "name": "previousOwner",
          "type": "address"
        },
        {
          "indexed": true,
          "internalType": "address",
          "name": "newOwner",
          "type": "address"
        }
      ],
      "name": "OwnershipTransferred",
      "type": "event"
    },
    {
      "anonymous": false,
      "inputs": [
        {
          "indexed": false,
          "internalType": "address",
          "name": "account",
          "type": "address"
        }
      ],
      "name": "Paused",
      "type": "event"
    },
    {
      "anonymous": false,
      "inputs": [
        {
          "indexed": false,
          "internalType": "address",
          "name": "user",
          "type": "address"
        },
        {
          "indexed": false,
          "internalType": "uint256",
          "name": "amount",
          "type": "uint256"
        }
      ],
      "name": "Repay",
      "type": "event"
    },
    {
      "anonymous": false,
      "inputs": [
        {
          "indexed": false,
          "internalType": "address",
          "name": "user",
          "type": "address"
        },
        {
          "indexed": false,
          "internalType": "uint256",
          "name": "amount",
          "type": "uint256"
        }
      ],
      "name": "RepayWithUsdc",
      "type": "event"
    },
    {
      "anonymous": false,
      "inputs": [
        {
          "indexed": false,
          "internalType": "address",
          "name": "account",
          "type": "address"
        }
      ],
      "name": "Unpaused",
      "type": "event"
    },
    {
      "inputs": [],
      "name": "DSD",
      "outputs": [
        {
          "internalType": "contract IERC20BurnableMinter",
          "name": "",
          "type": "address"
        }
      ],
      "stateMutability": "view",
      "type": "function"
    },
    {
      "inputs": [],
      "name": "USDC",
      "outputs": [
        {
          "internalType": "contract IERC20BurnableMinter",
          "name": "",
          "type": "address"
        }
      ],
      "stateMutability": "view",
      "type": "function"
    },
    {
      "inputs": [
        {
          "internalType": "address",
          "name": "user",
          "type": "address"
        }
      ],
      "name": "available",
      "outputs": [
        {
          "internalType": "uint256",
          "name": "",
          "type": "uint256"
        }
      ],
      "stateMutability": "view",
      "type": "function"
    },
    {
      "inputs": [
        {
          "internalType": "uint256",
          "name": "amount",
          "type": "uint256"
        }
      ],
      "name": "borrow",
      "outputs": [
        {
          "internalType": "uint256",
          "name": "borrowed",
          "type": "uint256"
        },
        {
          "internalType": "uint256",
          "name": "fee",
          "type": "uint256"
        }
      ],
      "stateMutability": "nonpayable",
      "type": "function"
    },
    {
      "inputs": [],
      "name": "borrowFee",
      "outputs": [
        {
          "internalType": "uint32",
          "name": "",
          "type": "uint32"
        }
      ],
      "stateMutability": "view",
      "type": "function"
    },
    {
      "inputs": [
        {
          "internalType": "address",
          "name": "user",
          "type": "address"
        },
        {
          "internalType": "uint256",
          "name": "amount",
          "type": "uint256"
        }
      ],
      "name": "borrowFrom",
      "outputs": [
        {
          "internalType": "uint256",
          "name": "borrowed",
          "type": "uint256"
        },
        {
          "internalType": "uint256",
          "name": "fee",
          "type": "uint256"
        }
      ],
      "stateMutability": "nonpayable",
      "type": "function"
    },
    {
      "inputs": [
        {
          "internalType": "address",
          "name": "",
          "type": "address"
        }
      ],
      "name": "debt",
      "outputs": [
        {
          "internalType": "uint256",
          "name": "",
          "type": "uint256"
        }
      ],
      "stateMutability": "view",
      "type": "function"
    },
    {
      "inputs": [],
      "name": "dev",
      "outputs": [
        {
          "internalType": "address",
          "name": "",
          "type": "address"
        }
      ],
      "stateMutability": "view",
      "type": "function"
    },
    {
      "inputs": [],
      "name": "helper",
      "outputs": [
        {
          "internalType": "address",
          "name": "",
          "type": "address"
        }
      ],
      "stateMutability": "view",
      "type": "function"
    },
    {
      "inputs": [],
      "name": "market",
      "outputs": [
        {
          "internalType": "contract IMarket",
          "name": "",
          "type": "address"
        }
      ],
      "stateMutability": "view",
      "type": "function"
    },
    {
      "inputs": [],
      "name": "owner",
      "outputs": [
        {
          "internalType": "address",
          "name": "",
          "type": "address"
        }
      ],
      "stateMutability": "view",
      "type": "function"
    },
    {
      "inputs": [],
      "name": "pause",
      "outputs": [],
      "stateMutability": "nonpayable",
      "type": "function"
    },
    {
      "inputs": [],
      "name": "paused",
      "outputs": [
        {
          "internalType": "bool",
          "name": "",
          "type": "bool"
        }
      ],
      "stateMutability": "view",
      "type": "function"
    },
    {
      "inputs": [],
      "name": "pool",
      "outputs": [
        {
          "internalType": "contract IStakePool",
          "name": "",
          "type": "address"
        }
      ],
      "stateMutability": "view",
      "type": "function"
    },
    {
      "inputs": [],
      "name": "renounceOwnership",
      "outputs": [],
      "stateMutability": "nonpayable",
      "type": "function"
    },
    {
      "inputs": [
        {
          "internalType": "uint256",
          "name": "amount",
          "type": "uint256"
        }
      ],
      "name": "repay",
      "outputs": [],
      "stateMutability": "nonpayable",
      "type": "function"
    },
    {
      "inputs": [
        {
          "internalType": "uint256",
          "name": "amount",
          "type": "uint256"
        }
      ],
      "name": "repayWithUsdc",
      "outputs": [],
      "stateMutability": "nonpayable",
      "type": "function"
    },
    {
      "inputs": [
        {
          "internalType": "contract IMarket",
          "name": "_market",
          "type": "address"
        },
        {
          "internalType": "address",
          "name": "_helper",
          "type": "address"
        }
      ],
      "name": "setMarketAndHelper",
      "outputs": [],
      "stateMutability": "nonpayable",
      "type": "function"
    },
    {
      "inputs": [
        {
          "internalType": "address",
          "name": "_dev",
          "type": "address"
        },
        {
          "internalType": "uint32",
          "name": "_borrowFee",
          "type": "uint32"
        }
      ],
      "name": "setOptions",
      "outputs": [],
      "stateMutability": "nonpayable",
      "type": "function"
    },
    {
      "inputs": [
        {
          "internalType": "address",
          "name": "newOwner",
          "type": "address"
        }
      ],
      "name": "transferOwnership",
      "outputs": [],
      "stateMutability": "nonpayable",
      "type": "function"
    },
    {
      "inputs": [],
      "name": "unpause",
      "outputs": [],
      "stateMutability": "nonpayable",
      "type": "function"
    },
    {
      "inputs": [
        {
          "internalType": "address",
          "name": "user",
          "type": "address"
        }
      ],
      "name": "withdrawable",
      "outputs": [
        {
          "internalType": "uint256",
          "name": "",
          "type": "uint256"
        }
      ],
      "stateMutability": "view",
      "type": "function"
    },
    {
      "inputs": [
        {
          "internalType": "address",
          "name": "user",
          "type": "address"
        },
        {
          "internalType": "uint256",
          "name": "amountLab",
          "type": "uint256"
        }
      ],
      "name": "withdrawable",
      "outputs": [
        {
          "internalType": "uint256",
          "name": "",
          "type": "uint256"
        }
      ],
      "stateMutability": "view",
      "type": "function"
    }
  ],
  "bytecode": "0x60c06040526000805460ff60a81b191690553480156200001e57600080fd5b5060405162001762380380620017628339810160408190526200004191620000f1565b6200004c3362000088565b6000805460ff60a01b191690556001600160a01b0392831660805290821660a052600280546001600160a01b0319169190921617905562000145565b600080546001600160a01b038381166001600160a01b0319831681178455604051919092169283917f8be0079c531659141344cd1fd0a4f28419497f9722a3daafe3b4186f6b6457e09190a35050565b6001600160a01b0381168114620000ee57600080fd5b50565b6000806000606084860312156200010757600080fd5b83516200011481620000d8565b60208501519093506200012781620000d8565b60408501519092506200013a81620000d8565b809150509250925092565b60805160a0516115cd620001956000396000818161026e01526108270152600081816101570152818161055101528181610715015281816108e3015281816110e0015261116901526115cd6000f3fe608060405234801561001057600080fd5b506004361061014d5760003560e01c80638456cb59116100c3578063ade970ef1161007c578063ade970ef146102e7578063c5ebeaec146102fa578063ce513b6f1461030d578063e626648a14610320578063e6e8413f1461034c578063f2fde38b1461035f57600080fd5b80638456cb591461026157806389a30271146102695780638da5cb5b1461029057806391cca3db146102a15780639a6ca7f4146102b45780639b6c56ec146102c757600080fd5b80634196aaaf116101155780634196aaaf146101e05780635c975abb146102085780635ce7929a1461022057806363b0e66a14610233578063715018a61461024657806380f556051461024e57600080fd5b806302e2df9b1461015257806310098ad51461018f57806316f0115b146101b0578063371fd8e6146101c35780633f4ba83a146101d8575b600080fd5b6101797f000000000000000000000000000000000000000000000000000000000000000081565b6040516101869190611326565b60405180910390f35b6101a261019d36600461134f565b610372565b604051908152602001610186565b600254610179906001600160a01b031681565b6101d66101d1366004611373565b6104e1565b005b6101d6610627565b6101f36101ee36600461138c565b610639565b60408051928352602083019190915201610186565b6102106106b2565b6040519015158152602001610186565b6101d661022e366004611373565b6106c2565b600354610179906001600160a01b031681565b6101d66109b6565b600154610179906001600160a01b031681565b6101d66109c8565b6101797f000000000000000000000000000000000000000000000000000000000000000081565b6000546001600160a01b0316610179565b600554610179906001600160a01b031681565b6101d66102c23660046113b8565b6109d8565b6101a26102d536600461134f565b60046020526000908152604090205481565b6101d66102f53660046113f1565b610a38565b6101f3610308366004611373565b610b4a565b6101a261031b36600461134f565b610b68565b60055461033790600160a01b900463ffffffff1681565b60405163ffffffff9091168152602001610186565b6101a261035a36600461138c565b610cb0565b6101d661036d36600461134f565b610d9d565b6001600160a01b0380821660009081526004602081905260408083205460025491516393f1a40b60e01b815293949093859392909116916393f1a40b916103bd918591899101611428565b6040805180830381865afa1580156103d9573d6000803e3d6000fd5b505050506040513d601f19601f820116820180604052508101906103fd919061143f565b5090506000600160009054906101000a90046001600160a01b03166001600160a01b03166326121ff06040518163ffffffff1660e01b8152600401602060405180830381865afa158015610455573d6000803e3d6000fd5b505050506040513d601f19601f820116820180604052508101906104799190611463565b905061048d83670de0b6b3a7640000611492565b6104978284611492565b116104a757506000949350505050565b670de0b6b3a76400006104ba8482611492565b6104c48385611492565b6104ce91906114b1565b6104d891906114c8565b95945050505050565b6104e9610e16565b600081116105125760405162461bcd60e51b8152600401610509906114ea565b60405180910390fd5b33600090815260046020526040902054818110156105425760405162461bcd60e51b815260040161050990611518565b60405163079cc67960e41b81527f00000000000000000000000000000000000000000000000000000000000000006001600160a01b0316906379cc6790906105909033908690600401611544565b600060405180830381600087803b1580156105aa57600080fd5b505af11580156105be573d6000803e3d6000fd5b50505050818103600460006105d03390565b6001600160a01b031681526020810191909152604001600020557f5c16de4f8b59bd9caf0f49a545f25819a895ed223294290b408242e72a594231338360405161061b929190611544565b60405180910390a15050565b61062f610e5e565b610637610eb8565b565b60035460009081906001600160a01b0316336001600160a01b0316146106955760405162461bcd60e51b81526020600482015260116024820152702130b7359d1037b7363c903432b63832b960791b6044820152606401610509565b61069d610e16565b6106a78484610f07565b915091509250929050565b600054600160a01b900460ff1690565b6106ca610e16565b600081116106ea5760405162461bcd60e51b8152600401610509906114ea565b60006106fb8264e8d4a51000611492565b6040516370a0823160e01b81529091506001600160a01b037f000000000000000000000000000000000000000000000000000000000000000016906370a082319061074a903390600401611326565b602060405180830381865afa158015610767573d6000803e3d6000fd5b505050506040513d601f19601f8201168201806040525081019061078b9190611463565b336000908152600460205260409020546107a591906114b1565b8111156107ed5760405162461bcd60e51b8152602060048201526016602482015275021b0b713ba103932b830bc903bb4ba34102ab9b231960551b6044820152606401610509565b336000908152600460205260409020548181101561081d5760405162461bcd60e51b815260040161050990611518565b6001600160a01b037f0000000000000000000000000000000000000000000000000000000000000000166323b872dd3360015460405160e084901b6001600160e01b03191681526001600160a01b03928316600482015291166024820152604481018690526064016020604051808303816000875af11580156108a4573d6000803e3d6000fd5b505050506040513d601f19601f820116820180604052508101906108c8919061155d565b5060015460405163079cc67960e41b81526001600160a01b037f00000000000000000000000000000000000000000000000000000000000000008116926379cc67909261091e9291909116908690600401611544565b600060405180830381600087803b15801561093857600080fd5b505af115801561094c573d6000803e3d6000fd5b505050508181036004600061095e3390565b6001600160a01b031681526020810191909152604001600020557fe0a3c912031ec8f8f900afba31322c3a1f5abe28de54b9bfe078078529ccb4bf33846040516109a9929190611544565b60405180910390a1505050565b6109be610e5e565b6106376000611248565b6109d0610e5e565b610637611298565b6109e0610e5e565b600054600160a81b900460ff16156109f757600080fd5b600180546001600160a01b039384166001600160a01b031991821617909155600380549290931691161790556000805460ff60a81b1916600160a81b179055565b610a40610e5e565b6001600160a01b038216610a8f5760405162461bcd60e51b815260206004820152601660248201527542616e6b3a207a65726f20646576206164647265737360501b6044820152606401610509565b6127108163ffffffff161115610ae15760405162461bcd60e51b815260206004820152601760248201527642616e6b3a20696e76616c696420626f72726f7746656560481b6044820152606401610509565b600580546001600160a01b0384166001600160c01b03199091168117600160a01b63ffffffff8516908102919091179092556040805191825260208201929092527fc24191bc405c3c06614c5b0bf87b24ec1dc89f97cbdc7e6928e3c25db03bbf93910161061b565b600080610b55610e16565b610b5f3384610f07565b91509150915091565b6001600160a01b0380821660009081526004602081905260408083205460025491516393f1a40b60e01b815293949093859392909116916393f1a40b91610bb3918591899101611428565b6040805180830381865afa158015610bcf573d6000803e3d6000fd5b505050506040513d601f19601f82011682018060405250810190610bf3919061143f565b5090506000600160009054906101000a90046001600160a01b03166001600160a01b03166326121ff06040518163ffffffff1660e01b8152600401602060405180830381865afa158015610c4b573d6000803e3d6000fd5b505050506040513d601f19601f82011682018060405250810190610c6f9190611463565b9050610c8383670de0b6b3a7640000611492565b610c8d8284611492565b11610c9d57506000949350505050565b806104ba84670de0b6b3a7640000611492565b6001600160a01b03808316600090815260046020818152604080842054600154825163026121ff60e41b8152925195969195879591909216936326121ff093808301939192908290030181865afa158015610d0f573d6000803e3d6000fd5b505050506040513d601f19601f82011682018060405250810190610d339190611463565b9050610d4782670de0b6b3a7640000611492565b610d518286611492565b11610d6157600092505050610d97565b80610d7483670de0b6b3a7640000611492565b610d7e8387611492565b610d8891906114b1565b610d9291906114c8565b925050505b92915050565b610da5610e5e565b6001600160a01b038116610e0a5760405162461bcd60e51b815260206004820152602660248201527f4f776e61626c653a206e6577206f776e657220697320746865207a65726f206160448201526564647265737360d01b6064820152608401610509565b610e1381611248565b50565b610e1e6106b2565b156106375760405162461bcd60e51b815260206004820152601060248201526f14185d5cd8589b194e881c185d5cd95960821b6044820152606401610509565b6000546001600160a01b031633146106375760405162461bcd60e51b815260206004820181905260248201527f4f776e61626c653a2063616c6c6572206973206e6f7420746865206f776e65726044820152606401610509565b610ec06112db565b6000805460ff60a01b191690557f5db9ee0a495bf2e6ff9c91a7834c1ba4fdd244a5e8aa4e537bd38aeae4b073aa335b604051610efd9190611326565b60405180910390a1565b60008060008311610f2a5760405162461bcd60e51b8152600401610509906114ea565b6001600160a01b0380851660009081526004602081905260408083205460025491516393f1a40b60e01b8152909491909116916393f1a40b91610f719185918b9101611428565b6040805180830381865afa158015610f8d573d6000803e3d6000fd5b505050506040513d601f19601f82011682018060405250810190610fb1919061143f565b509050670de0b6b3a7640000600160009054906101000a90046001600160a01b03166001600160a01b03166326121ff06040518163ffffffff1660e01b8152600401602060405180830381865afa158015611010573d6000803e3d6000fd5b505050506040513d601f19601f820116820180604052508101906110349190611463565b61103e9083611492565b61104891906114c8565b611052868461157f565b111561109a5760405162461bcd60e51b815260206004820152601760248201527642616e6b3a206578636565647320617661696c61626c6560481b6044820152606401610509565b600554612710906110b890600160a01b900463ffffffff1687611492565b6110c291906114c8565b92506110ce83866114b1565b6040516340c10f1960e01b81529094507f00000000000000000000000000000000000000000000000000000000000000006001600160a01b0316906340c10f199061111f9033908890600401611544565b600060405180830381600087803b15801561113957600080fd5b505af115801561114d573d6000803e3d6000fd5b50506005546040516340c10f1960e01b81526001600160a01b037f0000000000000000000000000000000000000000000000000000000000000000811694506340c10f1993506111a39216908790600401611544565b600060405180830381600087803b1580156111bd57600080fd5b505af11580156111d1573d6000803e3d6000fd5b5050505084826111e1919061157f565b6001600160a01b0387166000818152600460209081526040918290209390935580519182529181018690529081018490527fe1979fe4c35e0cef342fef5668e2c8e7a7e9f5d5d1ca8fee0ac6c427fa4153af9060600160405180910390a150509250929050565b600080546001600160a01b038381166001600160a01b0319831681178455604051919092169283917f8be0079c531659141344cd1fd0a4f28419497f9722a3daafe3b4186f6b6457e09190a35050565b6112a0610e16565b6000805460ff60a01b1916600160a01b1790557f62e78cea01bee320cd4e420270b5ea74000d11b0c9f74754ebdbfc544b05a258610ef03390565b6112e36106b2565b6106375760405162461bcd60e51b815260206004820152601460248201527314185d5cd8589b194e881b9bdd081c185d5cd95960621b6044820152606401610509565b6001600160a01b0391909116815260200190565b6001600160a01b0381168114610e1357600080fd5b60006020828403121561136157600080fd5b813561136c8161133a565b9392505050565b60006020828403121561138557600080fd5b5035919050565b6000806040838503121561139f57600080fd5b82356113aa8161133a565b946020939093013593505050565b600080604083850312156113cb57600080fd5b82356113d68161133a565b915060208301356113e68161133a565b809150509250929050565b6000806040838503121561140457600080fd5b823561140f8161133a565b9150602083013563ffffffff811681146113e657600080fd5b9182526001600160a01b0316602082015260400190565b6000806040838503121561145257600080fd5b505080516020909101519092909150565b60006020828403121561147557600080fd5b5051919050565b634e487b7160e01b600052601160045260246000fd5b60008160001904831182151516156114ac576114ac61147c565b500290565b6000828210156114c3576114c361147c565b500390565b6000826114e557634e487b7160e01b600052601260045260246000fd5b500490565b60208082526014908201527342616e6b3a20616d6f756e74206973207a65726f60601b604082015260600190565b60208082526012908201527110985b9ace88195e18d959591cc81919589d60721b604082015260600190565b6001600160a01b03929092168252602082015260400190565b60006020828403121561156f57600080fd5b8151801515811461136c57600080fd5b600082198211156115925761159261147c565b50019056fea264697066735822122036733acbba4ac605a4ae96f735c58639b2e5aa2cd8f7828053f5a8e00320f3c364736f6c634300080c0033",
  "linkReferences": {},
  "deployedLinkReferences": {}
}