{
  "_format": "hh-sol-artifact-1",
  "contractName": "teamContract",
  "sourceName": "contracts/Wallet.sol",
  "abi": [
    {
      "inputs": [
        {
          "internalType": "address[]",
          "name": "_team",
          "type": "address[]"
        },
        {
          "internalType": "uint256[]",
          "name": "_teamShares",
          "type": "uint256[]"
        },
        {
          "internalType": "contract IERC20",
          "name": "_dsd",
          "type": "address"
        },
        {
          "internalType": "contract IERC20",
          "name": "_labs",
          "type": "address"
        },
        {
          "internalType": "contract IERC20",
          "name": "_prLabs",
          "type": "address"
        },
        {
          "internalType": "contract IERC20",
          "name": "_usdc",
          "type": "address"
        }
      ],
      "stateMutability": "nonpayable",
      "type": "constructor"
    },
    {
      "anonymous": false,
      "inputs": [
        {
          "indexed": true,
          "internalType": "contract IERC20",
          "name": "token",
          "type": "address"
        },
        {
          "indexed": false,
          "internalType": "address",
          "name": "to",
          "type": "address"
        },
        {
          "indexed": false,
          "internalType": "uint256",
          "name": "amount",
          "type": "uint256"
        }
      ],
      "name": "ERC20PaymentReleased",
      "type": "event"
    },
    {
      "anonymous": false,
      "inputs": [
        {
          "indexed": false,
          "internalType": "address",
          "name": "account",
          "type": "address"
        },
        {
          "indexed": false,
          "internalType": "uint256",
          "name": "shares",
          "type": "uint256"
        }
      ],
      "name": "PayeeAdded",
      "type": "event"
    },
    {
      "anonymous": false,
      "inputs": [
        {
          "indexed": false,
          "internalType": "address",
          "name": "from",
          "type": "address"
        },
        {
          "indexed": false,
          "internalType": "uint256",
          "name": "amount",
          "type": "uint256"
        }
      ],
      "name": "PaymentReceived",
      "type": "event"
    },
    {
      "anonymous": false,
      "inputs": [
        {
          "indexed": false,
          "internalType": "address",
          "name": "to",
          "type": "address"
        },
        {
          "indexed": false,
          "internalType": "uint256",
          "name": "amount",
          "type": "uint256"
        }
      ],
      "name": "PaymentReleased",
      "type": "event"
    },
    {
      "inputs": [],
      "name": "buy",
      "outputs": [],
      "stateMutability": "nonpayable",
      "type": "function"
    },
    {
      "inputs": [],
      "name": "dsd",
      "outputs": [
        {
          "internalType": "contract IERC20",
          "name": "",
          "type": "address"
        }
      ],
      "stateMutability": "view",
      "type": "function"
    },
    {
      "inputs": [],
      "name": "labs",
      "outputs": [
        {
          "internalType": "contract IERC20",
          "name": "",
          "type": "address"
        }
      ],
      "stateMutability": "view",
      "type": "function"
    },
    {
      "inputs": [],
      "name": "market",
      "outputs": [
        {
          "internalType": "address",
          "name": "",
          "type": "address"
        }
      ],
      "stateMutability": "view",
      "type": "function"
    },
    {
      "inputs": [
        {
          "internalType": "uint256",
          "name": "index",
          "type": "uint256"
        }
      ],
      "name": "payee",
      "outputs": [
        {
          "internalType": "address",
          "name": "",
          "type": "address"
        }
      ],
      "stateMutability": "view",
      "type": "function"
    },
    {
      "inputs": [],
      "name": "prLabs",
      "outputs": [
        {
          "internalType": "contract IERC20",
          "name": "",
          "type": "address"
        }
      ],
      "stateMutability": "view",
      "type": "function"
    },
    {
      "inputs": [],
      "name": "realize",
      "outputs": [],
      "stateMutability": "nonpayable",
      "type": "function"
    },
    {
      "inputs": [
        {
          "internalType": "address",
          "name": "account",
          "type": "address"
        }
      ],
      "name": "releasable",
      "outputs": [
        {
          "internalType": "uint256",
          "name": "",
          "type": "uint256"
        }
      ],
      "stateMutability": "view",
      "type": "function"
    },
    {
      "inputs": [
        {
          "internalType": "contract IERC20",
          "name": "token",
          "type": "address"
        },
        {
          "internalType": "address",
          "name": "account",
          "type": "address"
        }
      ],
      "name": "releasable",
      "outputs": [
        {
          "internalType": "uint256",
          "name": "",
          "type": "uint256"
        }
      ],
      "stateMutability": "view",
      "type": "function"
    },
    {
      "inputs": [
        {
          "internalType": "address payable",
          "name": "account",
          "type": "address"
        }
      ],
      "name": "release",
      "outputs": [],
      "stateMutability": "nonpayable",
      "type": "function"
    },
    {
      "inputs": [
        {
          "internalType": "contract IERC20",
          "name": "token",
          "type": "address"
        },
        {
          "internalType": "address",
          "name": "account",
          "type": "address"
        }
      ],
      "name": "release",
      "outputs": [],
      "stateMutability": "nonpayable",
      "type": "function"
    },
    {
      "inputs": [
        {
          "internalType": "contract IERC20",
          "name": "_token",
          "type": "address"
        }
      ],
      "name": "releaseAllErc20",
      "outputs": [],
      "stateMutability": "nonpayable",
      "type": "function"
    },
    {
      "inputs": [],
      "name": "releaseAllEth",
      "outputs": [],
      "stateMutability": "nonpayable",
      "type": "function"
    },
    {
      "inputs": [],
      "name": "releaseAllUsdc",
      "outputs": [],
      "stateMutability": "nonpayable",
      "type": "function"
    },
    {
      "inputs": [
        {
          "internalType": "contract IERC20",
          "name": "token",
          "type": "address"
        },
        {
          "internalType": "address",
          "name": "account",
          "type": "address"
        }
      ],
      "name": "released",
      "outputs": [
        {
          "internalType": "uint256",
          "name": "",
          "type": "uint256"
        }
      ],
      "stateMutability": "view",
      "type": "function"
    },
    {
      "inputs": [
        {
          "internalType": "address",
          "name": "account",
          "type": "address"
        }
      ],
      "name": "released",
      "outputs": [
        {
          "internalType": "uint256",
          "name": "",
          "type": "uint256"
        }
      ],
      "stateMutability": "view",
      "type": "function"
    },
    {
      "inputs": [],
      "name": "sell",
      "outputs": [],
      "stateMutability": "nonpayable",
      "type": "function"
    },
    {
      "inputs": [
        {
          "internalType": "address",
          "name": "_market",
          "type": "address"
        }
      ],
      "name": "setMarket",
      "outputs": [],
      "stateMutability": "nonpayable",
      "type": "function"
    },
    {
      "inputs": [
        {
          "internalType": "address",
          "name": "account",
          "type": "address"
        }
      ],
      "name": "shares",
      "outputs": [
        {
          "internalType": "uint256",
          "name": "",
          "type": "uint256"
        }
      ],
      "stateMutability": "view",
      "type": "function"
    },
    {
      "inputs": [
        {
          "internalType": "contract IERC20",
          "name": "token",
          "type": "address"
        }
      ],
      "name": "totalReleased",
      "outputs": [
        {
          "internalType": "uint256",
          "name": "",
          "type": "uint256"
        }
      ],
      "stateMutability": "view",
      "type": "function"
    },
    {
      "inputs": [],
      "name": "totalReleased",
      "outputs": [
        {
          "internalType": "uint256",
          "name": "",
          "type": "uint256"
        }
      ],
      "stateMutability": "view",
      "type": "function"
    },
    {
      "inputs": [],
      "name": "totalShares",
      "outputs": [
        {
          "internalType": "uint256",
          "name": "",
          "type": "uint256"
        }
      ],
      "stateMutability": "view",
      "type": "function"
    },
    {
      "inputs": [],
      "name": "usdc",
      "outputs": [
        {
          "internalType": "contract IERC20",
          "name": "",
          "type": "address"
        }
      ],
      "stateMutability": "view",
      "type": "function"
    },
    {
      "stateMutability": "payable",
      "type": "receive"
    }
  ],
  "bytecode": "0x60a06040523480156200001157600080fd5b5060405162001c8438038062001c8483398101604081905262000034916200052f565b85858051825114620000a85760405162461bcd60e51b815260206004820152603260248201527f5061796d656e7453706c69747465723a2070617965657320616e6420736861726044820152710cae640d8cadccee8d040dad2e6dac2e8c6d60731b60648201526084015b60405180910390fd5b6000825111620000fb5760405162461bcd60e51b815260206004820152601a60248201527f5061796d656e7453706c69747465723a206e6f2070617965657300000000000060448201526064016200009f565b60005b82518110156200016757620001528382815181106200012157620001216200064a565b60200260200101518383815181106200013e576200013e6200064a565b60200260200101516200023660201b60201c565b806200015e8162000676565b915050620000fe565b505086516080525060005b8651811015620001de576001600c60008984815181106200019757620001976200064a565b6020908102919091018101516001600160a01b03168252810191909152604001600020805460ff191691151591909117905580620001d58162000676565b91505062000172565b50600780546001600160a01b039586166001600160a01b03199182161790915560088054948616948216949094179093556009805492851692841692909217909155600a805491909316911617905550620006af9050565b6001600160a01b038216620002a35760405162461bcd60e51b815260206004820152602c60248201527f5061796d656e7453706c69747465723a206163636f756e74206973207468652060448201526b7a65726f206164647265737360a01b60648201526084016200009f565b60008111620002f55760405162461bcd60e51b815260206004820152601d60248201527f5061796d656e7453706c69747465723a2073686172657320617265203000000060448201526064016200009f565b6001600160a01b03821660009081526002602052604090205415620003715760405162461bcd60e51b815260206004820152602b60248201527f5061796d656e7453706c69747465723a206163636f756e7420616c726561647960448201526a206861732073686172657360a81b60648201526084016200009f565b60048054600181019091557f8a35acfbc15ff81a39ae7d344fd709f28e8600b4aa8c65c6b64bfe7fe36bd19b0180546001600160a01b0319166001600160a01b038416908117909155600090815260026020526040812082905554620003d990829062000694565b600055604080516001600160a01b0384168152602081018390527f40c340f65e17194d14ddddb073d3c9f888e3cb52b5aae0c6c7706b4fbc905fac910160405180910390a15050565b634e487b7160e01b600052604160045260246000fd5b604051601f8201601f191681016001600160401b038111828210171562000463576200046362000422565b604052919050565b60006001600160401b0382111562000487576200048762000422565b5060051b60200190565b6001600160a01b0381168114620004a757600080fd5b50565b600082601f830112620004bc57600080fd5b81516020620004d5620004cf836200046b565b62000438565b82815260059290921b84018101918181019086841115620004f557600080fd5b8286015b84811015620005125780518352918301918301620004f9565b509695505050505050565b80516200052a8162000491565b919050565b60008060008060008060c087890312156200054957600080fd5b86516001600160401b03808211156200056157600080fd5b818901915089601f8301126200057657600080fd5b8151602062000589620004cf836200046b565b82815260059290921b8401810191818101908d841115620005a957600080fd5b948201945b83861015620005d4578551620005c48162000491565b82529482019490820190620005ae565b918c0151919a50909350505080821115620005ee57600080fd5b50620005fd89828a01620004aa565b9550506200060e604088016200051d565b93506200061e606088016200051d565b92506200062e608088016200051d565b91506200063e60a088016200051d565b90509295509295509295565b634e487b7160e01b600052603260045260246000fd5b634e487b7160e01b600052601160045260246000fd5b60006000198214156200068d576200068d62000660565b5060010190565b60008219821115620006aa57620006aa62000660565b500190565b6080516115b2620006d2600039600081816104ba0152610ad201526115b26000f3fe6080604052600436106101445760003560e01c806383293b0e116100b6578063ada987521161006f578063ada987521461039c578063c45ac050146103bc578063ce7c2ac2146103dc578063d79779b214610412578063e33b7de314610448578063ee3ad5ca1461045d57600080fd5b806383293b0e146102e75780638b83209b146102fc5780638bc600d01461031c5780639852595c14610331578063a3f8eace14610367578063a6f2ae3a1461038757600080fd5b8063406072a911610108578063406072a91461023e578063406d880c1461025e578063457100741461027357806348b75044146102885780636dcea85f146102a757806380f55605146102c757600080fd5b80631916558714610189578063307c17e3146101a957806333b2cee0146101c95780633a98ef39146101ff5780633e413bee1461021e57600080fd5b36610184577f6ef95f06320e7a25a04a175ca677b7052bdd97131872c2192525a629f51be770333460405161017a92919061127a565b60405180910390a1005b600080fd5b34801561019557600080fd5b506101a76101a43660046112a8565b50565b005b3480156101b557600080fd5b506101a76101c43660046112a8565b610486565b3480156101d557600080fd5b506008546101e9906001600160a01b031681565b6040516101f691906112c5565b60405180910390f35b34801561020b57600080fd5b506000545b6040519081526020016101f6565b34801561022a57600080fd5b50600a546101e9906001600160a01b031681565b34801561024a57600080fd5b506102106102593660046112d9565b6104fa565b34801561026a57600080fd5b506101a7610525565b34801561027f57600080fd5b506101a7610787565b34801561029457600080fd5b506101a76102a33660046112d9565b5050565b3480156102b357600080fd5b506101a76102c23660046112a8565b6108a5565b3480156102d357600080fd5b50600b546101e9906001600160a01b031681565b3480156102f357600080fd5b506101a7610a57565b34801561030857600080fd5b506101e9610317366004611312565b610a9d565b34801561032857600080fd5b506101a7610acd565b34801561033d57600080fd5b5061021061034c3660046112a8565b6001600160a01b031660009081526003602052604090205490565b34801561037357600080fd5b506102106103823660046112a8565b610b11565b34801561039357600080fd5b506101a7610b59565b3480156103a857600080fd5b506009546101e9906001600160a01b031681565b3480156103c857600080fd5b506102106103d73660046112d9565b610c3e565b3480156103e857600080fd5b506102106103f73660046112a8565b6001600160a01b031660009081526002602052604090205490565b34801561041e57600080fd5b5061021061042d3660046112a8565b6001600160a01b031660009081526005602052604090205490565b34801561045457600080fd5b50600154610210565b34801561046957600080fd5b506007546101e9906001600160a01b031681565b60405180910390fd5b336000908152600c602052604090205460ff166104b55760405162461bcd60e51b815260040161047d9061132b565b60005b7f00000000000000000000000000000000000000000000000000000000000000008110156102a3576104f2826104ed83610a9d565b610ce0565b6001016104b8565b6001600160a01b03918216600090815260066020908152604080832093909416825291909152205490565b336000908152600c602052604090205460ff166105545760405162461bcd60e51b815260040161047d9061132b565b6007546040516370a0823160e01b81526000916001600160a01b0316906370a08231906105859030906004016112c5565b602060405180830381865afa1580156105a2573d6000803e3d6000fd5b505050506040513d601f19601f820116820180604052508101906105c69190611352565b6009546040516370a0823160e01b81529192506000916001600160a01b03909116906370a08231906105fc9030906004016112c5565b602060405180830381865afa158015610619573d6000803e3d6000fd5b505050506040513d601f19601f8201168201806040525081019061063d9190611352565b600b54600754604051639c66d9a960e01b8152600481018490526001600160a01b039182166024820152929350600092911690639c66d9a9906044016040805180830381865afa158015610695573d6000803e3d6000fd5b505050506040513d601f19601f820116820180604052508101906106b9919061136b565b91505060008184106106cd576127106106e4565b816106da856127106113a5565b6106e491906113c4565b905060006127106106f583866113a5565b6106ff91906113c4565b600b54600754604051635617ce4b60e11b81529293506001600160a01b039182169263ac2f9c969261073c928692911690600019906004016113e6565b6020604051808303816000875af115801561075b573d6000803e3d6000fd5b505050506040513d601f19601f8201168201806040525081019061077f9190611352565b505050505050565b336000908152600c602052604090205460ff166107b65760405162461bcd60e51b815260040161047d9061132b565b600b546008546040516370a0823160e01b81526001600160a01b03928316926367cdf6c99216906370a08231906107f19030906004016112c5565b602060405180830381865afa15801561080e573d6000803e3d6000fd5b505050506040513d601f19601f820116820180604052508101906108329190611352565b600a546040516001600160e01b031960e085901b16815261086392916001600160a01b0316906000906004016113e6565b60408051808303816000875af1158015610881573d6000803e3d6000fd5b505050506040513d601f19601f820116820180604052508101906102a3919061136b565b336000908152600c602052604090205460ff166108d45760405162461bcd60e51b815260040161047d9061132b565b600b80546001600160a01b0319166001600160a01b0383811691821790925560075460405163095ea7b360e01b815292169163095ea7b39161091c916000199060040161127a565b6020604051808303816000875af115801561093b573d6000803e3d6000fd5b505050506040513d601f19601f8201168201806040525081019061095f9190611405565b50600854600b5460405163095ea7b360e01b81526001600160a01b039283169263095ea7b392610998929116906000199060040161127a565b6020604051808303816000875af11580156109b7573d6000803e3d6000fd5b505050506040513d601f19601f820116820180604052508101906109db9190611405565b50600954600b5460405163095ea7b360e01b81526001600160a01b039283169263095ea7b392610a14929116906000199060040161127a565b6020604051808303816000875af1158015610a33573d6000803e3d6000fd5b505050506040513d601f19601f820116820180604052508101906102a39190611405565b336000908152600c602052604090205460ff16610a865760405162461bcd60e51b815260040161047d9061132b565b600a54610a9b906001600160a01b0316610486565b565b600060048281548110610ab257610ab2611427565b6000918252602090912001546001600160a01b031692915050565b60005b7f00000000000000000000000000000000000000000000000000000000000000008110156101a457610b09610b0482610a9d565b610cea565b600101610ad0565b600080610b1d60015490565b610b27904761143d565b9050610b528382610b4d866001600160a01b031660009081526003602052604090205490565b610cf3565b9392505050565b336000908152600c602052604090205460ff16610b885760405162461bcd60e51b815260040161047d9061132b565b600b546007546040516370a0823160e01b81526001600160a01b039283169263a59ac6dd92169081906370a0823190610bc59030906004016112c5565b602060405180830381865afa158015610be2573d6000803e3d6000fd5b505050506040513d601f19601f82011682018060405250810190610c069190611352565b6040516001600160e01b031960e085901b1681526001600160a01b039092166004830152602482015260006044820152606401610863565b6001600160a01b0382166000818152600560205260408082205490516370a0823160e01b8152919283926370a0823190610c7c9030906004016112c5565b602060405180830381865afa158015610c99573d6000803e3d6000fd5b505050506040513d601f19601f82011682018060405250810190610cbd9190611352565b610cc7919061143d565b9050610cd88382610b4d87876104fa565b949350505050565b6102a38282610d2e565b6101a481610e39565b600080546001600160a01b038516825260026020526040822054839190610d1a90866113a5565b610d2491906113c4565b610cd89190611455565b6001600160a01b038116600090815260026020526040902054610d635760405162461bcd60e51b815260040161047d9061146c565b6000610d6f8383610c3e565b905080610d8e5760405162461bcd60e51b815260040161047d906114b2565b6001600160a01b03831660009081526005602052604081208054839290610db690849061143d565b90915550506001600160a01b038084166000908152600660209081526040808320938616835292905220805482019055610df1838383610f14565b826001600160a01b03167f3be5b7a71e84ed12875d241991c70855ac5817d847039e17a9d895c1ceb0f18a8383604051610e2c92919061127a565b60405180910390a2505050565b6001600160a01b038116600090815260026020526040902054610e6e5760405162461bcd60e51b815260040161047d9061146c565b6000610e7982610b11565b905080610e985760405162461bcd60e51b815260040161047d906114b2565b8060016000828254610eaa919061143d565b90915550506001600160a01b0382166000908152600360205260409020805482019055610ed78282610f6f565b7fdf20fd1e76bc69d672e4814fafb2c449bba3a5369d8359adf9e05e6fde87b0568282604051610f0892919061127a565b60405180910390a15050565b610f6a8363a9059cbb60e01b8484604051602401610f3392919061127a565b60408051601f198184030181529190526020810180516001600160e01b03166001600160e01b031990931692909217909152611088565b505050565b80471015610fbf5760405162461bcd60e51b815260206004820152601d60248201527f416464726573733a20696e73756666696369656e742062616c616e6365000000604482015260640161047d565b6000826001600160a01b03168260405160006040518083038185875af1925050503d806000811461100c576040519150601f19603f3d011682016040523d82523d6000602084013e611011565b606091505b5050905080610f6a5760405162461bcd60e51b815260206004820152603a60248201527f416464726573733a20756e61626c6520746f2073656e642076616c75652c207260448201527f6563697069656e74206d61792068617665207265766572746564000000000000606482015260840161047d565b60006110dd826040518060400160405280602081526020017f5361666545524332303a206c6f772d6c6576656c2063616c6c206661696c6564815250856001600160a01b031661115a9092919063ffffffff16565b805190915015610f6a57808060200190518101906110fb9190611405565b610f6a5760405162461bcd60e51b815260206004820152602a60248201527f5361666545524332303a204552433230206f7065726174696f6e20646964206e6044820152691bdd081cdd58d8d9595960b21b606482015260840161047d565b6060610cd8848460008585600080866001600160a01b03168587604051611181919061152d565b60006040518083038185875af1925050503d80600081146111be576040519150601f19603f3d011682016040523d82523d6000602084013e6111c3565b606091505b50915091506111d4878383876111df565b979650505050505050565b6060831561124b578251611244576001600160a01b0385163b6112445760405162461bcd60e51b815260206004820152601d60248201527f416464726573733a2063616c6c20746f206e6f6e2d636f6e7472616374000000604482015260640161047d565b5081610cd8565b610cd883838151156112605781518083602001fd5b8060405162461bcd60e51b815260040161047d9190611549565b6001600160a01b03929092168252602082015260400190565b6001600160a01b03811681146101a457600080fd5b6000602082840312156112ba57600080fd5b8135610b5281611293565b6001600160a01b0391909116815260200190565b600080604083850312156112ec57600080fd5b82356112f781611293565b9150602083013561130781611293565b809150509250929050565b60006020828403121561132457600080fd5b5035919050565b6020808252600d908201526c4a7573742074656d6d6174657360981b604082015260600190565b60006020828403121561136457600080fd5b5051919050565b6000806040838503121561137e57600080fd5b505080516020909101519092909150565b634e487b7160e01b600052601160045260246000fd5b60008160001904831182151516156113bf576113bf61138f565b500290565b6000826113e157634e487b7160e01b600052601260045260246000fd5b500490565b9283526001600160a01b03919091166020830152604082015260600190565b60006020828403121561141757600080fd5b81518015158114610b5257600080fd5b634e487b7160e01b600052603260045260246000fd5b600082198211156114505761145061138f565b500190565b6000828210156114675761146761138f565b500390565b60208082526026908201527f5061796d656e7453706c69747465723a206163636f756e7420686173206e6f2060408201526573686172657360d01b606082015260800190565b6020808252602b908201527f5061796d656e7453706c69747465723a206163636f756e74206973206e6f742060408201526a191d59481c185e5b595b9d60aa1b606082015260800190565b60005b83811015611518578181015183820152602001611500565b83811115611527576000848401525b50505050565b6000825161153f8184602087016114fd565b9190910192915050565b60208152600082518060208401526115688160408501602087016114fd565b601f01601f1916919091016040019291505056fea2646970667358221220b0c2e0e3b48787fd74cbdb3698017b6262e9713fef4f7f72839319c2addf5ee564736f6c634300080c0033",
  "linkReferences": {},
  "deployedLinkReferences": {}
}